{
  "_format": "hh-sol-artifact-1",
  "contractName": "Company",
  "sourceName": "contracts/Company.sol",
  "abi": [
    {
      "inputs": [
        {
          "internalType": "string",
          "name": "_companyName",
          "type": "string"
        },
        {
          "internalType": "address",
          "name": "_companyAddress",
          "type": "address"
        }
      ],
      "stateMutability": "nonpayable",
      "type": "constructor"
    },
    {
      "inputs": [],
      "name": "allCategories",
      "outputs": [
        {
          "internalType": "string[]",
          "name": "",
          "type": "string[]"
        }
      ],
      "stateMutability": "view",
      "type": "function"
    },
    {
      "inputs": [],
      "name": "allCategoryAddresses",
      "outputs": [
        {
          "internalType": "contract Category[]",
          "name": "",
          "type": "address[]"
        }
      ],
      "stateMutability": "view",
      "type": "function"
    },
    {
      "inputs": [
        {
          "internalType": "uint256",
          "name": "",
          "type": "uint256"
        }
      ],
      "name": "categories",
      "outputs": [
        {
          "internalType": "string",
          "name": "",
          "type": "string"
        }
      ],
      "stateMutability": "view",
      "type": "function"
    },
    {
      "inputs": [
        {
          "internalType": "uint256",
          "name": "",
          "type": "uint256"
        }
      ],
      "name": "categoryAddresses",
      "outputs": [
        {
          "internalType": "contract Category",
          "name": "",
          "type": "address"
        }
      ],
      "stateMutability": "view",
      "type": "function"
    },
    {
      "inputs": [
        {
          "internalType": "string",
          "name": "_newCompanyName",
          "type": "string"
        }
      ],
      "name": "changeBrandName",
      "outputs": [],
      "stateMutability": "nonpayable",
      "type": "function"
    },
    {
      "inputs": [],
      "name": "companyAddress",
      "outputs": [
        {
          "internalType": "address",
          "name": "",
          "type": "address"
        }
      ],
      "stateMutability": "view",
      "type": "function"
    },
    {
      "inputs": [],
      "name": "companyName",
      "outputs": [
        {
          "internalType": "string",
          "name": "",
          "type": "string"
        }
      ],
      "stateMutability": "view",
      "type": "function"
    },
    {
      "inputs": [
        {
          "internalType": "string",
          "name": "_categoryName",
          "type": "string"
        }
      ],
      "name": "createCategory",
      "outputs": [],
      "stateMutability": "nonpayable",
      "type": "function"
    }
  ],
  "bytecode": "0x60806040523480156200001157600080fd5b5060405162002bc138038062002bc1833981016040819052620000349162000134565b81516200004990600090602085019062000071565b50600180546001600160a01b0319166001600160a01b03929092169190911790555062000272565b8280546200007f906200021f565b90600052602060002090601f016020900481019282620000a35760008555620000ee565b82601f10620000be57805160ff1916838001178555620000ee565b82800160010185558215620000ee579182015b82811115620000ee578251825591602001919060010190620000d1565b50620000fc92915062000100565b5090565b5b80821115620000fc576000815560010162000101565b80516001600160a01b03811681146200012f57600080fd5b919050565b6000806040838503121562000147578182fd5b82516001600160401b03808211156200015e578384fd5b818501915085601f83011262000172578384fd5b8151818111156200018757620001876200025c565b604051601f8201601f19908116603f01168101908382118183101715620001b257620001b26200025c565b81604052828152602093508884848701011115620001ce578687fd5b8691505b82821015620001f15784820184015181830185015290830190620001d2565b828211156200020257868484830101525b95506200021491505085820162000117565b925050509250929050565b600181811c908216806200023457607f821691505b602082108114156200025657634e487b7160e01b600052602260045260246000fd5b50919050565b634e487b7160e01b600052604160045260246000fd5b61293f80620002826000396000f3fe60806040523480156200001157600080fd5b5060043610620000935760003560e01c8063c6cdbe5e1162000062578063c6cdbe5e1462000112578063d742ed051462000138578063dc2986821462000151578063f5ec2eed146200016857600080fd5b80630b35de6514620000985780630be1e45c14620000cc578063264866d014620000e557806353e1ead914620000fe575b600080fd5b620000af620000a936600462000704565b62000172565b6040516001600160a01b0390911681526020015b60405180910390f35b620000e3620000dd36600462000650565b6200019d565b005b620000ef620001ec565b604051620000c39190620007ba565b600154620000af906001600160a01b031681565b620001296200012336600462000704565b62000367565b604051620000c391906200081f565b620001426200041c565b604051620000c391906200076b565b620000e36200016236600462000650565b62000480565b620001296200058d565b600281815481106200018357600080fd5b6000918252602090912001546001600160a01b0316905081565b6001546001600160a01b03163314620001d35760405162461bcd60e51b8152600401620001ca9062000918565b60405180910390fd5b8051620001e89060009060208401906200059c565b5050565b60035460609060009067ffffffffffffffff8111156200021c57634e487b7160e01b600052604160045260246000fd5b6040519080825280602002602001820160405280156200025157816020015b60608152602001906001900390816200023b5790505b50905060005b6003548110156200036157600381815481106200028457634e487b7160e01b600052603260045260246000fd5b9060005260206000200180546200029b9062000960565b80601f0160208091040260200160405190810160405280929190818152602001828054620002c99062000960565b80156200031a5780601f10620002ee576101008083540402835291602001916200031a565b820191906000526020600020905b815481529060010190602001808311620002fc57829003601f168201915b50505050508282815181106200034057634e487b7160e01b600052603260045260246000fd5b60200260200101819052508080620003589062000997565b91505062000257565b50919050565b600381815481106200037857600080fd5b906000526020600020016000915090508054620003959062000960565b80601f0160208091040260200160405190810160405280929190818152602001828054620003c39062000960565b8015620004145780601f10620003e85761010080835404028352916020019162000414565b820191906000526020600020905b815481529060010190602001808311620003f657829003601f168201915b505050505081565b606060028054806020026020016040519081016040528092919081815260200182805480156200047657602002820191906000526020600020905b81546001600160a01b0316815260019091019060200180831162000457575b5050505050905090565b6001546001600160a01b03163314620004ad5760405162461bcd60e51b8152600401620001ca9062000918565b600154604051600091829184916001600160a01b031690620004cf906200062b565b620004dd939291906200083b565b604051809103906000f080158015620004fa573d6000803e3d6000fd5b506002805460018082019092557f405787fa12a823e0f2b7631cc41b3ba8828b3321ca811111fa75cd3aa3bb5ace0180546001600160a01b0319166001600160a01b038416179055600380549182018155600052835191925062000588917fc2575a0e9e593c00f959f8c92f12db2869c3395a3b0502d05e2516446f71f85b9091019060208501906200059c565b505050565b60008054620003959062000960565b828054620005aa9062000960565b90600052602060002090601f016020900481019282620005ce576000855562000619565b82601f10620005e957805160ff191683800117855562000619565b8280016001018555821562000619579182015b8281111562000619578251825591602001919060010190620005fc565b506200062792915062000639565b5090565b611f3480620009d683390190565b5b808211156200062757600081556001016200063a565b60006020828403121562000662578081fd5b813567ffffffffffffffff808211156200067a578283fd5b818401915084601f8301126200068e578283fd5b813581811115620006a357620006a3620009bf565b604051601f8201601f19908116603f01168101908382118183101715620006ce57620006ce620009bf565b81604052828152876020848701011115620006e7578586fd5b826020860160208301379182016020019490945295945050505050565b60006020828403121562000716578081fd5b5035919050565b60008151808452815b81811015620007445760208185018101518683018201520162000726565b81811115620007565782602083870101525b50601f01601f19169290920160200192915050565b6020808252825182820181905260009190848201906040850190845b81811015620007ae5783516001600160a01b03168352928401929184019160010162000787565b50909695505050505050565b6000602080830181845280855180835260408601915060408160051b8701019250838701855b828110156200081257603f19888603018452620007ff8583516200071d565b94509285019290850190600101620007e0565b5092979650505050505050565b6020815260006200083460208301846200071d565b9392505050565b60608152600080855482600182811c9150808316806200085c57607f831692505b60208084108214156200087d57634e487b7160e01b87526022600452602487fd5b60608801849052608088018280156200089f5760018114620008b157620008dd565b60ff19871682528282019750620008dd565b60008d815260209020895b87811015620008d757815484820152908601908401620008bc565b83019850505b5050878603818901525050505050620008f781866200071d565b9150506200091060408301846001600160a01b03169052565b949350505050565b60208082526028908201527f46756e6374696f6e2061636365737369626c65206f6e6c7920627920746865206040820152676f776e657220212160c01b606082015260800190565b600181811c908216806200097557607f821691505b602082108114156200036157634e487b7160e01b600052602260045260246000fd5b6000600019821415620009b857634e487b7160e01b81526011600452602481fd5b5060010190565b634e487b7160e01b600052604160045260246000fdfe60806040523480156200001157600080fd5b5060405162001f3438038062001f348339810160408190526200003491620001e2565b82516200004990600090602086019062000089565b5081516200005f90600190602085019062000089565b50600280546001600160a01b0319166001600160a01b039290921691909117905550620002be9050565b82805462000097906200026b565b90600052602060002090601f016020900481019282620000bb576000855562000106565b82601f10620000d657805160ff191683800117855562000106565b8280016001018555821562000106579182015b8281111562000106578251825591602001919060010190620000e9565b506200011492915062000118565b5090565b5b8082111562000114576000815560010162000119565b600082601f83011262000140578081fd5b81516001600160401b03808211156200015d576200015d620002a8565b604051601f8301601f19908116603f01168101908282118183101715620001885762000188620002a8565b81604052838152602092508683858801011115620001a4578485fd5b8491505b83821015620001c75785820183015181830184015290820190620001a8565b83821115620001d857848385830101525b9695505050505050565b600080600060608486031215620001f7578283fd5b83516001600160401b03808211156200020e578485fd5b6200021c878388016200012f565b9450602086015191508082111562000232578384fd5b5062000241868287016200012f565b604086015190935090506001600160a01b038116811462000260578182fd5b809150509250925092565b600181811c908216806200028057607f821691505b60208210811415620002a257634e487b7160e01b600052602260045260246000fd5b50919050565b634e487b7160e01b600052604160045260246000fd5b611c6680620002ce6000396000f3fe60806040523480156200001157600080fd5b5060043610620000935760003560e01c80637bf12b1c11620000625780637bf12b1c1462000110578063912952411462000129578063f3ff1dd91462000142578063f5ec2eed146200015b57600080fd5b8063150128c114620000985780631895699414620000cc57806353e1ead914620000e55780637acc0b2014620000f9575b600080fd5b620000af620000a936600462000718565b62000165565b6040516001600160a01b0390911681526020015b60405180910390f35b620000d662000190565b604051620000c3919062000833565b600254620000af906001600160a01b031681565b620000d66200010a36600462000718565b62000226565b620001276200012136600462000653565b62000254565b005b62000133620003b1565b604051620000c39190620007ce565b6200014c6200052c565b604051620000c391906200077f565b620000d662000590565b600381815481106200017657600080fd5b6000918252602090912001546001600160a01b0316905081565b600180546200019f906200093b565b80601f0160208091040260200160405190810160405280929190818152602001828054620001cd906200093b565b80156200021e5780601f10620001f2576101008083540402835291602001916200021e565b820191906000526020600020905b8154815290600101906020018083116200020057829003601f168201915b505050505081565b600481815481106200023757600080fd5b9060005260206000200160009150905080546200019f906200093b565b6002546001600160a01b03163314620002c45760405162461bcd60e51b815260206004820152602860248201527f46756e6374696f6e2061636365737369626c65206f6e6c7920627920746865206044820152676f776e657220212160c01b606482015260840160405180910390fd5b600083600084600260009054906101000a90046001600160a01b031685604051620002ef906200059f565b620002ff9594939291906200084f565b604051809103906000f0801580156200031c573d6000803e3d6000fd5b506003805460018082019092557fc2575a0e9e593c00f959f8c92f12db2869c3395a3b0502d05e2516446f71f85b0180546001600160a01b0319166001600160a01b0384161790556004805491820181556000528551919250620003aa917f8a35acfbc15ff81a39ae7d344fd709f28e8600b4aa8c65c6b64bfe7fe36bd19b909101906020870190620005ad565b5050505050565b60045460609060009067ffffffffffffffff811115620003e157634e487b7160e01b600052604160045260246000fd5b6040519080825280602002602001820160405280156200041657816020015b6060815260200190600190039081620004005790505b50905060005b6004548110156200052657600481815481106200044957634e487b7160e01b600052603260045260246000fd5b90600052602060002001805462000460906200093b565b80601f01602080910402602001604051908101604052809291908181526020018280546200048e906200093b565b8015620004df5780601f10620004b357610100808354040283529160200191620004df565b820191906000526020600020905b815481529060010190602001808311620004c157829003601f168201915b50505050508282815181106200050557634e487b7160e01b600052603260045260246000fd5b602002602001018190525080806200051d9062000972565b9150506200041c565b50919050565b606060038054806020026020016040519081016040528092919081815260200182805480156200058657602002820191906000526020600020905b81546001600160a01b0316815260019091019060200180831162000567575b5050505050905090565b600080546200019f906200093b565b61128080620009b183390190565b828054620005bb906200093b565b90600052602060002090601f016020900481019282620005df57600085556200062a565b82601f10620005fa57805160ff19168380011785556200062a565b828001600101855582156200062a579182015b828111156200062a5782518255916020019190600101906200060d565b50620006389291506200063c565b5090565b5b808211156200063857600081556001016200063d565b60008060006060848603121562000668578283fd5b833567ffffffffffffffff8082111562000680578485fd5b818601915086601f83011262000694578485fd5b813581811115620006a957620006a96200099a565b604051601f8201601f19908116603f01168101908382118183101715620006d457620006d46200099a565b81604052828152896020848701011115620006ed578788fd5b8260208601602083013791820160209081019790975250979486013596505050604090930135925050565b6000602082840312156200072a578081fd5b5035919050565b60008151808452815b8181101562000758576020818501810151868301820152016200073a565b818111156200076a5782602083870101525b50601f01601f19169290920160200192915050565b6020808252825182820181905260009190848201906040850190845b81811015620007c25783516001600160a01b0316835292840192918401916001016200079b565b50909695505050505050565b6000602080830181845280855180835260408601915060408160051b8701019250838701855b828110156200082657603f198886030184526200081385835162000731565b94509285019290850190600101620007f4565b5092979650505050505050565b60208152600062000848602083018462000731565b9392505050565b60a0815260006200086460a083018862000731565b60208382038185015282885484600182811c9150808316806200088857607f831692505b858310811415620008a757634e487b7160e01b88526022600452602488fd5b828752602087019650808015620008c75760018114620008d95762000905565b60ff1985168852868801955062000905565b60008e815260209020895b85811015620008ff5781548a820152908401908801620008e4565b89019650505b5050505050604085018890526001600160a01b038716606086015292506200092b915050565b8260808301529695505050505050565b600181811c908216806200095057607f821691505b602082108114156200052657634e487b7160e01b600052602260045260246000fd5b60006000198214156200099357634e487b7160e01b81526011600452602481fd5b5060010190565b634e487b7160e01b600052604160045260246000fdfe60806040523480156200001157600080fd5b50604051620012803803806200128083398101604081905262000034916200020d565b8451859085906200004d906000906020850190620000b4565b50805162000063906001906020840190620000b4565b50505060088390556009839055600680546001600160a01b0319166001600160a01b0384161790556200009b816301e13380620002aa565b6007555050600a805460ff191690555062000329915050565b828054620000c290620002d6565b90600052602060002090601f016020900481019282620000e6576000855562000131565b82601f106200010157805160ff191683800117855562000131565b8280016001018555821562000131579182015b828111156200013157825182559160200191906001019062000114565b506200013f92915062000143565b5090565b5b808211156200013f576000815560010162000144565b600082601f8301126200016b578081fd5b81516001600160401b038082111562000188576200018862000313565b604051601f8301601f19908116603f01168101908282118183101715620001b357620001b362000313565b81604052838152602092508683858801011115620001cf578485fd5b8491505b83821015620001f25785820183015181830184015290820190620001d3565b838211156200020357848385830101525b9695505050505050565b600080600080600060a0868803121562000225578081fd5b85516001600160401b03808211156200023c578283fd5b6200024a89838a016200015a565b9650602088015191508082111562000260578283fd5b506200026f888289016200015a565b60408801516060890151919650945090506001600160a01b038116811462000295578182fd5b80925050608086015190509295509295909350565b6000816000190483118215151615620002d157634e487b7160e01b81526011600452602481fd5b500290565b600181811c90821680620002eb57607f821691505b602082108114156200030d57634e487b7160e01b600052602260045260246000fd5b50919050565b634e487b7160e01b600052604160045260246000fd5b610f4780620003396000396000f3fe608060405234801561001057600080fd5b50600436106101005760003560e01c80636352211e116100975780639ff56acc116100665780639ff56acc14610201578063c87b56dd14610222578063da0239a614610235578063fb37e8831461023d57600080fd5b80636352211e146101be578063740ea8ab146101e95780638d75fe05146101f157806395d89b41146101f957600080fd5b806319d1997a116100d357806319d1997a1461018657806340753a761461018e57806342ec38e2146101a357806350847a33146101b657600080fd5b806306fdde03146101055780630a9857671461012357806312fa6feb1461015c578063171ee9f314610173575b600080fd5b61010d610250565b60405161011a9190610dc7565b60405180910390f35b61014e610131366004610c91565b600b60209081526000928352604080842090915290825290205481565b60405190815260200161011a565b600a5460ff165b604051901515815260200161011a565b610163610181366004610c70565b6102e2565b60085461014e565b6101a161019c366004610d64565b61033f565b005b61014e6101b1366004610c70565b61038c565b6101636103d0565b6101d16101cc366004610d64565b610464565b6040516001600160a01b03909116815260200161011a565b6101a16104e6565b61014e61059b565b61010d6105ab565b61021461020f366004610c70565b6105ba565b60405161011a929190610dda565b61010d610230366004610d64565b6106d5565b60095461014e565b61014e61024b366004610cba565b6107da565b60606000805461025f90610eaa565b80601f016020809104026020016040519081016040528092919081815260200182805461028b90610eaa565b80156102d85780601f106102ad576101008083540402835291602001916102d8565b820191906000526020600020905b8154815290600101906020018083116102bb57829003601f168201915b5050505050905090565b6007546001600160a01b0382166000908152600b602052604081209091908261030a8561038c565b8152602001908152602001600020546103239190610e7b565b42101561033257506001919050565b506000919050565b919050565b6006546001600160a01b031633146103725760405162461bcd60e51b815260040161036990610dfc565b60405180910390fd5b80600860008282546103849190610e7b565b909155505050565b60006001600160a01b0382166103b45760405162461bcd60e51b815260040161036990610e44565b506001600160a01b031660009081526003602052604090205490565b6006546000906001600160a01b031633146103fd5760405162461bcd60e51b815260040161036990610dfc565b600a5460ff16156104505760405162461bcd60e51b815260206004820152601860248201527f537570706c792068617320616c726561647920656e64656400000000000000006044820152606401610369565b50600a805460ff1916600190811790915590565b6000816104ab5760405162461bcd60e51b8152602060048201526015602482015274496e76616c696420746f6b656e49642076616c756560581b6044820152606401610369565b6000828152600260205260409020546001600160a01b0316806104e05760405162461bcd60e51b815260040161036990610e44565b92915050565b600754336000818152600b60205260408120916105029061038c565b81526020019081526020016000205461051b9190610e7b565b42116105885760405162461bcd60e51b815260206004820152603660248201527f596f75722077617272656e7479206973206e6f742065787069726564207965746044820152750b0818d85b9b9bdd08189d5c9b881e5bdd5c8813919560521b6064820152608401610369565b6105996105943361038c565b61092e565b565b60006105a660055490565b905090565b60606001805461025f90610eaa565b6007546001600160a01b0382166000908152600b6020526040812060609290826105e38661038c565b8152602001908152602001600020546105fc9190610e7b565b42101561066c576007546001600160a01b0384166000908152600b60205260408120906106288661038c565b8152602001908152602001600020546106419190610e7b565b60408051808201909152600b81526a22bc3834b932b99037b71d60a91b602082015294909350915050565b6007546001600160a01b0384166000908152600b60205260408120906106918661038c565b8152602001908152602001600020546106aa9190610e7b565b60408051808201909152600b81526a22bc3834b932b21037b71d60a91b602082015294909350915050565b6000818152600260205260409020546060906001600160a01b031661073c5760405162461bcd60e51b815260206004820152601f60248201527f55524920717565727920666f72206e6f6e6578697374656e7420746f6b656e006044820152606401610369565b6000828152600460205260409020805461075590610eaa565b80601f016020809104026020016040519081016040528092919081815260200182805461078190610eaa565b80156107ce5780601f106107a3576101008083540402835291602001916107ce565b820191906000526020600020905b8154815290600101906020018083116107b157829003601f168201915b50505050509050919050565b600a5460009060ff16156108235760405162461bcd60e51b815260206004820152601060248201526f4e6f206c6f6e6765722065786973747360801b6044820152606401610369565b6008546005541061086c5760405162461bcd60e51b81526020600482015260136024820152724e6f20737570706c792063757272656e746c7960681b6044820152606401610369565b61087a600580546001019055565b60016009600082825461088d9190610e93565b909155506108a59050336108a060055490565b6109aa565b6108b76108b160055490565b83610b38565b336000908152600b6020526040812042916108d160055490565b81526020810191909152604001600090812091909155600c805460018101825591527fdf6966c971051c3d54ec59162606531493a51404a002842f56009d7e5cf4a8c70180546001600160a01b031916331790556104e060055490565b600061093982610464565b6001600160a01b0381166000818152600360209081526040808320839055868352600282529182902080546001600160a01b0319169055905142815292935084927f23ff0e75edf108e3d0392d92e13e8c8a868ef19001bd49f9e94876dc46dff87f91015b60405180910390a35050565b6001600160a01b0382166109d05760405162461bcd60e51b815260040161036990610e44565b80610a1d5760405162461bcd60e51b815260206004820152601760248201527f546f6b656e2049442063616e6e6f74206265207a65726f0000000000000000006044820152606401610369565b6000818152600260205260409020546001600160a01b031615610a795760405162461bcd60e51b8152602060048201526014602482015273151bdad95b88185b1c9958591e481b5a5b9d195960621b6044820152606401610369565b610a828261038c565b15610acf5760405162461bcd60e51b815260206004820152601960248201527f4f776e657220616c726561647920686173206120746f6b656e000000000000006044820152606401610369565b6001600160a01b0382166000818152600360209081526040808320859055848352600282529182902080546001600160a01b0319168417905590514281528392917f25b428dfde728ccfaddad7e29e4ac23c24ed7fd1a6e3e3f91894a9a073f5dfff910161099e565b6000828152600260205260409020546001600160a01b0316610b9c5760405162461bcd60e51b815260206004820152601c60248201527f55524920736574206f66206e6f6e6578697374656e7420746f6b656e000000006044820152606401610369565b60008281526004602090815260409091208251610bbb92840190610bc0565b505050565b828054610bcc90610eaa565b90600052602060002090601f016020900481019282610bee5760008555610c34565b82601f10610c0757805160ff1916838001178555610c34565b82800160010185558215610c34579182015b82811115610c34578251825591602001919060010190610c19565b50610c40929150610c44565b5090565b5b80821115610c405760008155600101610c45565b80356001600160a01b038116811461033a57600080fd5b600060208284031215610c81578081fd5b610c8a82610c59565b9392505050565b60008060408385031215610ca3578081fd5b610cac83610c59565b946020939093013593505050565b600060208284031215610ccb578081fd5b813567ffffffffffffffff80821115610ce2578283fd5b818401915084601f830112610cf5578283fd5b813581811115610d0757610d07610efb565b604051601f8201601f19908116603f01168101908382118183101715610d2f57610d2f610efb565b81604052828152876020848701011115610d47578586fd5b826020860160208301379182016020019490945295945050505050565b600060208284031215610d75578081fd5b5035919050565b60008151808452815b81811015610da157602081850181015186830182015201610d85565b81811115610db25782602083870101525b50601f01601f19169290920160200192915050565b602081526000610c8a6020830184610d7c565b604081526000610ded6040830185610d7c565b90508260208301529392505050565b60208082526028908201527f46756e6374696f6e2061636365737369626c65206f6e6c7920627920746865206040820152676f776e657220212160c01b606082015260800190565b6020808252601d908201527f496e76616c6964206f776e6572206174207a65726f2061646472657373000000604082015260600190565b60008219821115610e8e57610e8e610ee5565b500190565b600082821015610ea557610ea5610ee5565b500390565b600181811c90821680610ebe57607f821691505b60208210811415610edf57634e487b7160e01b600052602260045260246000fd5b50919050565b634e487b7160e01b600052601160045260246000fd5b634e487b7160e01b600052604160045260246000fdfea2646970667358221220b2475b2dfbaba5a705615cb1c2e0b53c57508240b7dad5d2b8797cc1fa8e6ccb64736f6c63430008040033a2646970667358221220746542b11ad673d70dc848ce250dfdc7e5a01bf0fa0fbf30a63f01fba932d27964736f6c63430008040033a26469706673582212208c8c64bc0e38417efd9a63846d53f5152a930190aabbc8536b22a9ec9ab804af64736f6c63430008040033",
  "linkReferences": {},
  "deployedLinkReferences": {}
}