{
  "_format": "hh-sol-artifact-1",
  "contractName": "ERC1238",
  "sourceName": "contracts/ERC1238.sol",
  "abi": [
    {
      "inputs": [
        {
          "internalType": "string",
          "name": "name_",
          "type": "string"
        },
        {
          "internalType": "string",
          "name": "symbol_",
          "type": "string"
        }
      ],
      "stateMutability": "nonpayable",
      "type": "constructor"
    },
    {
      "anonymous": false,
      "inputs": [
        {
          "indexed": true,
          "internalType": "address",
          "name": "owner",
          "type": "address"
        },
        {
          "indexed": true,
          "internalType": "uint256",
          "name": "tokenId",
          "type": "uint256"
        },
        {
          "indexed": false,
          "internalType": "uint256",
          "name": "timestamp",
          "type": "uint256"
        }
      ],
      "name": "Burned",
      "type": "event"
    },
    {
      "anonymous": false,
      "inputs": [
        {
          "indexed": true,
          "internalType": "address",
          "name": "to",
          "type": "address"
        },
        {
          "indexed": true,
          "internalType": "uint256",
          "name": "tokenId",
          "type": "uint256"
        },
        {
          "indexed": false,
          "internalType": "uint256",
          "name": "timestamp",
          "type": "uint256"
        }
      ],
      "name": "Minted",
      "type": "event"
    },
    {
      "inputs": [],
      "name": "name",
      "outputs": [
        {
          "internalType": "string",
          "name": "",
          "type": "string"
        }
      ],
      "stateMutability": "view",
      "type": "function"
    },
    {
      "inputs": [
        {
          "internalType": "uint256",
          "name": "tokenId",
          "type": "uint256"
        }
      ],
      "name": "ownerOf",
      "outputs": [
        {
          "internalType": "address",
          "name": "",
          "type": "address"
        }
      ],
      "stateMutability": "view",
      "type": "function"
    },
    {
      "inputs": [],
      "name": "symbol",
      "outputs": [
        {
          "internalType": "string",
          "name": "",
          "type": "string"
        }
      ],
      "stateMutability": "view",
      "type": "function"
    },
    {
      "inputs": [
        {
          "internalType": "address",
          "name": "owner",
          "type": "address"
        }
      ],
      "name": "tokenOf",
      "outputs": [
        {
          "internalType": "uint256",
          "name": "",
          "type": "uint256"
        }
      ],
      "stateMutability": "view",
      "type": "function"
    },
    {
      "inputs": [
        {
          "internalType": "uint256",
          "name": "tokenId",
          "type": "uint256"
        }
      ],
      "name": "tokenURI",
      "outputs": [
        {
          "internalType": "string",
          "name": "",
          "type": "string"
        }
      ],
      "stateMutability": "view",
      "type": "function"
    }
  ],
  "bytecode": "0x608060405234801561001057600080fd5b5060405161071b38038061071b83398101604081905261002f9161019f565b815161004290600090602085019061005e565b50805161005690600190602084019061005e565b505050610250565b82805461006a906101ff565b90600052602060002090601f01602090048101928261008c57600085556100d2565b82601f106100a557805160ff19168380011785556100d2565b828001600101855582156100d2579182015b828111156100d25782518255916020019190600101906100b7565b506100de9291506100e2565b5090565b5b808211156100de57600081556001016100e3565b600082601f830112610107578081fd5b81516001600160401b03808211156101215761012161023a565b604051601f8301601f19908116603f011681019082821181831017156101495761014961023a565b81604052838152602092508683858801011115610164578485fd5b8491505b838210156101855785820183015181830184015290820190610168565b8382111561019557848385830101525b9695505050505050565b600080604083850312156101b1578182fd5b82516001600160401b03808211156101c7578384fd5b6101d3868387016100f7565b935060208501519150808211156101e8578283fd5b506101f5858286016100f7565b9150509250929050565b600181811c9082168061021357607f821691505b6020821081141561023457634e487b7160e01b600052602260045260246000fd5b50919050565b634e487b7160e01b600052604160045260246000fd5b6104bc8061025f6000396000f3fe608060405234801561001057600080fd5b50600436106100575760003560e01c806306fdde031461005c57806342ec38e21461007a5780636352211e1461009b57806395d89b41146100c6578063c87b56dd146100ce575b600080fd5b6100646100e1565b60405161007191906103f8565b60405180910390f35b61008d6100883660046103b2565b610173565b604051908152602001610071565b6100ae6100a93660046103e0565b6101ec565b6040516001600160a01b039091168152602001610071565b61006461029e565b6100646100dc3660046103e0565b6102ad565b6060600080546100f09061044b565b80601f016020809104026020016040519081016040528092919081815260200182805461011c9061044b565b80156101695780601f1061013e57610100808354040283529160200191610169565b820191906000526020600020905b81548152906001019060200180831161014c57829003601f168201915b5050505050905090565b60006001600160a01b0382166101d05760405162461bcd60e51b815260206004820152601d60248201527f496e76616c6964206f776e6572206174207a65726f206164647265737300000060448201526064015b60405180910390fd5b506001600160a01b031660009081526003602052604090205490565b6000816102335760405162461bcd60e51b8152602060048201526015602482015274496e76616c696420746f6b656e49642076616c756560581b60448201526064016101c7565b6000828152600260205260409020546001600160a01b0316806102985760405162461bcd60e51b815260206004820152601d60248201527f496e76616c6964206f776e6572206174207a65726f206164647265737300000060448201526064016101c7565b92915050565b6060600180546100f09061044b565b6000818152600260205260409020546060906001600160a01b03166103145760405162461bcd60e51b815260206004820152601f60248201527f55524920717565727920666f72206e6f6e6578697374656e7420746f6b656e0060448201526064016101c7565b6000828152600460205260409020805461032d9061044b565b80601f01602080910402602001604051908101604052809291908181526020018280546103599061044b565b80156103a65780601f1061037b576101008083540402835291602001916103a6565b820191906000526020600020905b81548152906001019060200180831161038957829003601f168201915b50505050509050919050565b6000602082840312156103c3578081fd5b81356001600160a01b03811681146103d9578182fd5b9392505050565b6000602082840312156103f1578081fd5b5035919050565b6000602080835283518082850152825b8181101561042457858101830151858201604001528201610408565b818111156104355783604083870101525b50601f01601f1916929092016040019392505050565b600181811c9082168061045f57607f821691505b6020821081141561048057634e487b7160e01b600052602260045260246000fd5b5091905056fea2646970667358221220a02e2a43b4ed433238979ffa5af3839dfa3ffdcc6fd4238bf991a91001f8687f64736f6c63430008040033",
  "linkReferences": {},
  "deployedLinkReferences": {}
}