{
  "_format": "hh-sol-artifact-1",
  "contractName": "Product",
  "sourceName": "contracts/Product.sol",
  "abi": [
    {
      "inputs": [
        {
          "internalType": "string",
          "name": "_productName",
          "type": "string"
        },
        {
          "internalType": "string",
          "name": "_companyName",
          "type": "string"
        },
        {
          "internalType": "uint256",
          "name": "_initialStock",
          "type": "uint256"
        },
        {
          "internalType": "address",
          "name": "_companyAddress",
          "type": "address"
        },
        {
          "internalType": "uint256",
          "name": "_warrentyPeriod",
          "type": "uint256"
        }
      ],
      "stateMutability": "nonpayable",
      "type": "constructor"
    },
    {
      "anonymous": false,
      "inputs": [
        {
          "indexed": true,
          "internalType": "address",
          "name": "owner",
          "type": "address"
        },
        {
          "indexed": true,
          "internalType": "uint256",
          "name": "tokenId",
          "type": "uint256"
        },
        {
          "indexed": false,
          "internalType": "uint256",
          "name": "timestamp",
          "type": "uint256"
        }
      ],
      "name": "Burned",
      "type": "event"
    },
    {
      "anonymous": false,
      "inputs": [
        {
          "indexed": true,
          "internalType": "address",
          "name": "to",
          "type": "address"
        },
        {
          "indexed": true,
          "internalType": "uint256",
          "name": "tokenId",
          "type": "uint256"
        },
        {
          "indexed": false,
          "internalType": "uint256",
          "name": "timestamp",
          "type": "uint256"
        }
      ],
      "name": "Minted",
      "type": "event"
    },
    {
      "inputs": [
        {
          "internalType": "uint256",
          "name": "_stock",
          "type": "uint256"
        }
      ],
      "name": "addSupply",
      "outputs": [],
      "stateMutability": "nonpayable",
      "type": "function"
    },
    {
      "inputs": [],
      "name": "burnNFT",
      "outputs": [],
      "stateMutability": "nonpayable",
      "type": "function"
    },
    {
      "inputs": [
        {
          "internalType": "address",
          "name": "_holderAddress",
          "type": "address"
        }
      ],
      "name": "checkExpiryDate",
      "outputs": [
        {
          "internalType": "string",
          "name": "",
          "type": "string"
        },
        {
          "internalType": "uint256",
          "name": "",
          "type": "uint256"
        }
      ],
      "stateMutability": "view",
      "type": "function"
    },
    {
      "inputs": [
        {
          "internalType": "address",
          "name": "_holderAddress",
          "type": "address"
        }
      ],
      "name": "checkValidity",
      "outputs": [
        {
          "internalType": "bool",
          "name": "",
          "type": "bool"
        }
      ],
      "stateMutability": "view",
      "type": "function"
    },
    {
      "inputs": [],
      "name": "endSupply",
      "outputs": [
        {
          "internalType": "bool",
          "name": "",
          "type": "bool"
        }
      ],
      "stateMutability": "nonpayable",
      "type": "function"
    },
    {
      "inputs": [],
      "name": "ended",
      "outputs": [
        {
          "internalType": "bool",
          "name": "",
          "type": "bool"
        }
      ],
      "stateMutability": "view",
      "type": "function"
    },
    {
      "inputs": [
        {
          "internalType": "address",
          "name": "",
          "type": "address"
        },
        {
          "internalType": "uint256",
          "name": "",
          "type": "uint256"
        }
      ],
      "name": "mapWarrentyValidity",
      "outputs": [
        {
          "internalType": "uint256",
          "name": "",
          "type": "uint256"
        }
      ],
      "stateMutability": "view",
      "type": "function"
    },
    {
      "inputs": [
        {
          "internalType": "string",
          "name": "tokenURI",
          "type": "string"
        }
      ],
      "name": "mintNFT",
      "outputs": [
        {
          "internalType": "uint256",
          "name": "",
          "type": "uint256"
        }
      ],
      "stateMutability": "nonpayable",
      "type": "function"
    },
    {
      "inputs": [],
      "name": "mintedTokens",
      "outputs": [
        {
          "internalType": "uint256",
          "name": "",
          "type": "uint256"
        }
      ],
      "stateMutability": "view",
      "type": "function"
    },
    {
      "inputs": [],
      "name": "name",
      "outputs": [
        {
          "internalType": "string",
          "name": "",
          "type": "string"
        }
      ],
      "stateMutability": "view",
      "type": "function"
    },
    {
      "inputs": [
        {
          "internalType": "uint256",
          "name": "tokenId",
          "type": "uint256"
        }
      ],
      "name": "ownerOf",
      "outputs": [
        {
          "internalType": "address",
          "name": "",
          "type": "address"
        }
      ],
      "stateMutability": "view",
      "type": "function"
    },
    {
      "inputs": [],
      "name": "remainingSupply",
      "outputs": [
        {
          "internalType": "uint256",
          "name": "",
          "type": "uint256"
        }
      ],
      "stateMutability": "view",
      "type": "function"
    },
    {
      "inputs": [],
      "name": "supplyLimit",
      "outputs": [
        {
          "internalType": "uint256",
          "name": "",
          "type": "uint256"
        }
      ],
      "stateMutability": "view",
      "type": "function"
    },
    {
      "inputs": [],
      "name": "symbol",
      "outputs": [
        {
          "internalType": "string",
          "name": "",
          "type": "string"
        }
      ],
      "stateMutability": "view",
      "type": "function"
    },
    {
      "inputs": [
        {
          "internalType": "address",
          "name": "owner",
          "type": "address"
        }
      ],
      "name": "tokenOf",
      "outputs": [
        {
          "internalType": "uint256",
          "name": "",
          "type": "uint256"
        }
      ],
      "stateMutability": "view",
      "type": "function"
    },
    {
      "inputs": [
        {
          "internalType": "uint256",
          "name": "tokenId",
          "type": "uint256"
        }
      ],
      "name": "tokenURI",
      "outputs": [
        {
          "internalType": "string",
          "name": "",
          "type": "string"
        }
      ],
      "stateMutability": "view",
      "type": "function"
    }
  ],
  "bytecode": "0x60806040523480156200001157600080fd5b50604051620012803803806200128083398101604081905262000034916200020d565b8451859085906200004d906000906020850190620000b4565b50805162000063906001906020840190620000b4565b50505060088390556009839055600680546001600160a01b0319166001600160a01b0384161790556200009b816301e13380620002aa565b6007555050600a805460ff191690555062000329915050565b828054620000c290620002d6565b90600052602060002090601f016020900481019282620000e6576000855562000131565b82601f106200010157805160ff191683800117855562000131565b8280016001018555821562000131579182015b828111156200013157825182559160200191906001019062000114565b506200013f92915062000143565b5090565b5b808211156200013f576000815560010162000144565b600082601f8301126200016b578081fd5b81516001600160401b038082111562000188576200018862000313565b604051601f8301601f19908116603f01168101908282118183101715620001b357620001b362000313565b81604052838152602092508683858801011115620001cf578485fd5b8491505b83821015620001f25785820183015181830184015290820190620001d3565b838211156200020357848385830101525b9695505050505050565b600080600080600060a0868803121562000225578081fd5b85516001600160401b03808211156200023c578283fd5b6200024a89838a016200015a565b9650602088015191508082111562000260578283fd5b506200026f888289016200015a565b60408801516060890151919650945090506001600160a01b038116811462000295578182fd5b80925050608086015190509295509295909350565b6000816000190483118215151615620002d157634e487b7160e01b81526011600452602481fd5b500290565b600181811c90821680620002eb57607f821691505b602082108114156200030d57634e487b7160e01b600052602260045260246000fd5b50919050565b634e487b7160e01b600052604160045260246000fd5b610f4780620003396000396000f3fe608060405234801561001057600080fd5b50600436106101005760003560e01c80636352211e116100975780639ff56acc116100665780639ff56acc14610201578063c87b56dd14610222578063da0239a614610235578063fb37e8831461023d57600080fd5b80636352211e146101be578063740ea8ab146101e95780638d75fe05146101f157806395d89b41146101f957600080fd5b806319d1997a116100d357806319d1997a1461018657806340753a761461018e57806342ec38e2146101a357806350847a33146101b657600080fd5b806306fdde03146101055780630a9857671461012357806312fa6feb1461015c578063171ee9f314610173575b600080fd5b61010d610250565b60405161011a9190610dc7565b60405180910390f35b61014e610131366004610c91565b600b60209081526000928352604080842090915290825290205481565b60405190815260200161011a565b600a5460ff165b604051901515815260200161011a565b610163610181366004610c70565b6102e2565b60085461014e565b6101a161019c366004610d64565b61033f565b005b61014e6101b1366004610c70565b61038c565b6101636103d0565b6101d16101cc366004610d64565b610464565b6040516001600160a01b03909116815260200161011a565b6101a16104e6565b61014e61059b565b61010d6105ab565b61021461020f366004610c70565b6105ba565b60405161011a929190610dda565b61010d610230366004610d64565b6106d5565b60095461014e565b61014e61024b366004610cba565b6107da565b60606000805461025f90610eaa565b80601f016020809104026020016040519081016040528092919081815260200182805461028b90610eaa565b80156102d85780601f106102ad576101008083540402835291602001916102d8565b820191906000526020600020905b8154815290600101906020018083116102bb57829003601f168201915b5050505050905090565b6007546001600160a01b0382166000908152600b602052604081209091908261030a8561038c565b8152602001908152602001600020546103239190610e7b565b42101561033257506001919050565b506000919050565b919050565b6006546001600160a01b031633146103725760405162461bcd60e51b815260040161036990610dfc565b60405180910390fd5b80600860008282546103849190610e7b565b909155505050565b60006001600160a01b0382166103b45760405162461bcd60e51b815260040161036990610e44565b506001600160a01b031660009081526003602052604090205490565b6006546000906001600160a01b031633146103fd5760405162461bcd60e51b815260040161036990610dfc565b600a5460ff16156104505760405162461bcd60e51b815260206004820152601860248201527f537570706c792068617320616c726561647920656e64656400000000000000006044820152606401610369565b50600a805460ff1916600190811790915590565b6000816104ab5760405162461bcd60e51b8152602060048201526015602482015274496e76616c696420746f6b656e49642076616c756560581b6044820152606401610369565b6000828152600260205260409020546001600160a01b0316806104e05760405162461bcd60e51b815260040161036990610e44565b92915050565b600754336000818152600b60205260408120916105029061038c565b81526020019081526020016000205461051b9190610e7b565b42116105885760405162461bcd60e51b815260206004820152603660248201527f596f75722077617272656e7479206973206e6f742065787069726564207965746044820152750b0818d85b9b9bdd08189d5c9b881e5bdd5c8813919560521b6064820152608401610369565b6105996105943361038c565b61092e565b565b60006105a660055490565b905090565b60606001805461025f90610eaa565b6007546001600160a01b0382166000908152600b6020526040812060609290826105e38661038c565b8152602001908152602001600020546105fc9190610e7b565b42101561066c576007546001600160a01b0384166000908152600b60205260408120906106288661038c565b8152602001908152602001600020546106419190610e7b565b60408051808201909152600b81526a22bc3834b932b99037b71d60a91b602082015294909350915050565b6007546001600160a01b0384166000908152600b60205260408120906106918661038c565b8152602001908152602001600020546106aa9190610e7b565b60408051808201909152600b81526a22bc3834b932b21037b71d60a91b602082015294909350915050565b6000818152600260205260409020546060906001600160a01b031661073c5760405162461bcd60e51b815260206004820152601f60248201527f55524920717565727920666f72206e6f6e6578697374656e7420746f6b656e006044820152606401610369565b6000828152600460205260409020805461075590610eaa565b80601f016020809104026020016040519081016040528092919081815260200182805461078190610eaa565b80156107ce5780601f106107a3576101008083540402835291602001916107ce565b820191906000526020600020905b8154815290600101906020018083116107b157829003601f168201915b50505050509050919050565b600a5460009060ff16156108235760405162461bcd60e51b815260206004820152601060248201526f4e6f206c6f6e6765722065786973747360801b6044820152606401610369565b6008546005541061086c5760405162461bcd60e51b81526020600482015260136024820152724e6f20737570706c792063757272656e746c7960681b6044820152606401610369565b61087a600580546001019055565b60016009600082825461088d9190610e93565b909155506108a59050336108a060055490565b6109aa565b6108b76108b160055490565b83610b38565b336000908152600b6020526040812042916108d160055490565b81526020810191909152604001600090812091909155600c805460018101825591527fdf6966c971051c3d54ec59162606531493a51404a002842f56009d7e5cf4a8c70180546001600160a01b031916331790556104e060055490565b600061093982610464565b6001600160a01b0381166000818152600360209081526040808320839055868352600282529182902080546001600160a01b0319169055905142815292935084927f23ff0e75edf108e3d0392d92e13e8c8a868ef19001bd49f9e94876dc46dff87f91015b60405180910390a35050565b6001600160a01b0382166109d05760405162461bcd60e51b815260040161036990610e44565b80610a1d5760405162461bcd60e51b815260206004820152601760248201527f546f6b656e2049442063616e6e6f74206265207a65726f0000000000000000006044820152606401610369565b6000818152600260205260409020546001600160a01b031615610a795760405162461bcd60e51b8152602060048201526014602482015273151bdad95b88185b1c9958591e481b5a5b9d195960621b6044820152606401610369565b610a828261038c565b15610acf5760405162461bcd60e51b815260206004820152601960248201527f4f776e657220616c726561647920686173206120746f6b656e000000000000006044820152606401610369565b6001600160a01b0382166000818152600360209081526040808320859055848352600282529182902080546001600160a01b0319168417905590514281528392917f25b428dfde728ccfaddad7e29e4ac23c24ed7fd1a6e3e3f91894a9a073f5dfff910161099e565b6000828152600260205260409020546001600160a01b0316610b9c5760405162461bcd60e51b815260206004820152601c60248201527f55524920736574206f66206e6f6e6578697374656e7420746f6b656e000000006044820152606401610369565b60008281526004602090815260409091208251610bbb92840190610bc0565b505050565b828054610bcc90610eaa565b90600052602060002090601f016020900481019282610bee5760008555610c34565b82601f10610c0757805160ff1916838001178555610c34565b82800160010185558215610c34579182015b82811115610c34578251825591602001919060010190610c19565b50610c40929150610c44565b5090565b5b80821115610c405760008155600101610c45565b80356001600160a01b038116811461033a57600080fd5b600060208284031215610c81578081fd5b610c8a82610c59565b9392505050565b60008060408385031215610ca3578081fd5b610cac83610c59565b946020939093013593505050565b600060208284031215610ccb578081fd5b813567ffffffffffffffff80821115610ce2578283fd5b818401915084601f830112610cf5578283fd5b813581811115610d0757610d07610efb565b604051601f8201601f19908116603f01168101908382118183101715610d2f57610d2f610efb565b81604052828152876020848701011115610d47578586fd5b826020860160208301379182016020019490945295945050505050565b600060208284031215610d75578081fd5b5035919050565b60008151808452815b81811015610da157602081850181015186830182015201610d85565b81811115610db25782602083870101525b50601f01601f19169290920160200192915050565b602081526000610c8a6020830184610d7c565b604081526000610ded6040830185610d7c565b90508260208301529392505050565b60208082526028908201527f46756e6374696f6e2061636365737369626c65206f6e6c7920627920746865206040820152676f776e657220212160c01b606082015260800190565b6020808252601d908201527f496e76616c6964206f776e6572206174207a65726f2061646472657373000000604082015260600190565b60008219821115610e8e57610e8e610ee5565b500190565b600082821015610ea557610ea5610ee5565b500390565b600181811c90821680610ebe57607f821691505b60208210811415610edf57634e487b7160e01b600052602260045260246000fd5b50919050565b634e487b7160e01b600052601160045260246000fd5b634e487b7160e01b600052604160045260246000fdfea2646970667358221220b2475b2dfbaba5a705615cb1c2e0b53c57508240b7dad5d2b8797cc1fa8e6ccb64736f6c63430008040033",
  "linkReferences": {},
  "deployedLinkReferences": {}
}