{
  "contracts/Flipkart.sol": {
    "Flipkart": {
      "abi": [
        {
          "inputs": [],
          "stateMutability": "nonpayable",
          "type": "constructor"
        },
        {
          "inputs": [],
          "name": "Name",
          "outputs": [
            {
              "internalType": "string",
              "name": "",
              "type": "string"
            }
          ],
          "stateMutability": "view",
          "type": "function"
        },
        {
          "inputs": [],
          "name": "allCompanies",
          "outputs": [
            {
              "internalType": "string[]",
              "name": "",
              "type": "string[]"
            }
          ],
          "stateMutability": "view",
          "type": "function"
        },
        {
          "inputs": [],
          "name": "allCompanyAddresses",
          "outputs": [
            {
              "internalType": "contract Company[]",
              "name": "",
              "type": "address[]"
            }
          ],
          "stateMutability": "view",
          "type": "function"
        },
        {
          "inputs": [
            {
              "internalType": "uint256",
              "name": "",
              "type": "uint256"
            }
          ],
          "name": "companies",
          "outputs": [
            {
              "internalType": "string",
              "name": "",
              "type": "string"
            }
          ],
          "stateMutability": "view",
          "type": "function"
        },
        {
          "inputs": [
            {
              "internalType": "uint256",
              "name": "",
              "type": "uint256"
            }
          ],
          "name": "companyAddresses",
          "outputs": [
            {
              "internalType": "contract Company",
              "name": "",
              "type": "address"
            }
          ],
          "stateMutability": "view",
          "type": "function"
        },
        {
          "inputs": [
            {
              "internalType": "string",
              "name": "_companyName",
              "type": "string"
            },
            {
              "internalType": "address",
              "name": "_companyAddress",
              "type": "address"
            }
          ],
          "name": "createCompany",
          "outputs": [],
          "stateMutability": "nonpayable",
          "type": "function"
        },
        {
          "inputs": [],
          "name": "flipkartAddress",
          "outputs": [
            {
              "internalType": "address",
              "name": "",
              "type": "address"
            }
          ],
          "stateMutability": "view",
          "type": "function"
        }
      ],
      "evm": {
        "bytecode": {
          "linkReferences": {},
          "object": "608060405234801561001057600080fd5b5060408051808201909152600880825267119b1a5c1ad85c9d60c21b602090920191825261004091600091610058565b50600180546001600160a01b0319163317905561012c565b828054610064906100f1565b90600052602060002090601f01602090048101928261008657600085556100cc565b82601f1061009f57805160ff19168380011785556100cc565b828001600101855582156100cc579182015b828111156100cc5782518255916020019190600101906100b1565b506100d89291506100dc565b5090565b5b808211156100d857600081556001016100dd565b600181811c9082168061010557607f821691505b6020821081141561012657634e487b7160e01b600052602260045260246000fd5b50919050565b6134cb8061013b6000396000f3fe60806040523480156200001157600080fd5b5060043610620000875760003560e01c80638052474d11620000625780638052474d146200010157806399687845146200010b578063c19db3261462000122578063f22f2a1a146200013b57600080fd5b806316e60470146200008c5780632813d19d14620000ae5780637848ed6a14620000d4575b600080fd5b6200009662000154565b604051620000a59190620007b2565b60405180910390f35b620000c5620000bf366004620006fc565b620002cf565b604051620000a5919062000817565b600154620000e8906001600160a01b031681565b6040516001600160a01b039091168152602001620000a5565b620000c562000384565b620000e86200011c366004620006fc565b62000393565b6200012c620003be565b604051620000a5919062000763565b620001526200014c36600462000633565b62000422565b005b60035460609060009067ffffffffffffffff8111156200018457634e487b7160e01b600052604160045260246000fd5b604051908082528060200260200182016040528015620001b957816020015b6060815260200190600190039081620001a35790505b50905060005b600354811015620002c95760038181548110620001ec57634e487b7160e01b600052603260045260246000fd5b90600052602060002001805462000203906200085f565b80601f016020809104026020016040519081016040528092919081815260200182805462000231906200085f565b8015620002825780601f10620002565761010080835404028352916020019162000282565b820191906000526020600020905b8154815290600101906020018083116200026457829003601f168201915b5050505050828281518110620002a857634e487b7160e01b600052603260045260246000fd5b60200260200101819052508080620002c09062000896565b915050620001bf565b50919050565b60038181548110620002e057600080fd5b906000526020600020016000915090508054620002fd906200085f565b80601f01602080910402602001604051908101604052809291908181526020018280546200032b906200085f565b80156200037c5780601f1062000350576101008083540402835291602001916200037c565b820191906000526020600020905b8154815290600101906020018083116200035e57829003601f168201915b505050505081565b60008054620002fd906200085f565b60028181548110620003a457600080fd5b6000918252602090912001546001600160a01b0316905081565b606060028054806020026020016040519081016040528092919081815260200182805480156200041857602002820191906000526020600020905b81546001600160a01b03168152600190910190602001808311620003f9575b5050505050905090565b6001546001600160a01b03163314620004925760405162461bcd60e51b815260206004820152602860248201527f46756e6374696f6e2061636365737369626c65206f6e6c7920627920746865206044820152676f776e657220212160c01b606482015260840160405180910390fd5b60008282604051620004a49062000562565b620004b192919062000833565b604051809103906000f080158015620004ce573d6000803e3d6000fd5b506002805460018082019092557f405787fa12a823e0f2b7631cc41b3ba8828b3321ca811111fa75cd3aa3bb5ace0180546001600160a01b0319166001600160a01b03841617905560038054918201815560005284519192506200055c917fc2575a0e9e593c00f959f8c92f12db2869c3395a3b0502d05e2516446f71f85b90910190602086019062000570565b50505050565b612bc180620008d583390190565b8280546200057e906200085f565b90600052602060002090601f016020900481019282620005a25760008555620005ed565b82601f10620005bd57805160ff1916838001178555620005ed565b82800160010185558215620005ed579182015b82811115620005ed578251825591602001919060010190620005d0565b50620005fb929150620005ff565b5090565b5b80821115620005fb576000815560010162000600565b80356001600160a01b03811681146200062e57600080fd5b919050565b6000806040838503121562000646578182fd5b823567ffffffffffffffff808211156200065e578384fd5b818501915085601f83011262000672578384fd5b813581811115620006875762000687620008be565b604051601f8201601f19908116603f01168101908382118183101715620006b257620006b2620008be565b81604052828152886020848701011115620006cb578687fd5b8260208601602083013786602084830101528096505050505050620006f36020840162000616565b90509250929050565b6000602082840312156200070e578081fd5b5035919050565b60008151808452815b818110156200073c576020818501810151868301820152016200071e565b818111156200074e5782602083870101525b50601f01601f19169290920160200192915050565b6020808252825182820181905260009190848201906040850190845b81811015620007a65783516001600160a01b0316835292840192918401916001016200077f565b50909695505050505050565b6000602080830181845280855180835260408601915060408160051b8701019250838701855b828110156200080a57603f19888603018452620007f785835162000715565b94509285019290850190600101620007d8565b5092979650505050505050565b6020815260006200082c602083018462000715565b9392505050565b60408152600062000848604083018562000715565b905060018060a01b03831660208301529392505050565b600181811c908216806200087457607f821691505b60208210811415620002c957634e487b7160e01b600052602260045260246000fd5b6000600019821415620008b757634e487b7160e01b81526011600452602481fd5b5060010190565b634e487b7160e01b600052604160045260246000fdfe60806040523480156200001157600080fd5b5060405162002bc138038062002bc1833981016040819052620000349162000134565b81516200004990600090602085019062000071565b50600180546001600160a01b0319166001600160a01b03929092169190911790555062000272565b8280546200007f906200021f565b90600052602060002090601f016020900481019282620000a35760008555620000ee565b82601f10620000be57805160ff1916838001178555620000ee565b82800160010185558215620000ee579182015b82811115620000ee578251825591602001919060010190620000d1565b50620000fc92915062000100565b5090565b5b80821115620000fc576000815560010162000101565b80516001600160a01b03811681146200012f57600080fd5b919050565b6000806040838503121562000147578182fd5b82516001600160401b03808211156200015e578384fd5b818501915085601f83011262000172578384fd5b8151818111156200018757620001876200025c565b604051601f8201601f19908116603f01168101908382118183101715620001b257620001b26200025c565b81604052828152602093508884848701011115620001ce578687fd5b8691505b82821015620001f15784820184015181830185015290830190620001d2565b828211156200020257868484830101525b95506200021491505085820162000117565b925050509250929050565b600181811c908216806200023457607f821691505b602082108114156200025657634e487b7160e01b600052602260045260246000fd5b50919050565b634e487b7160e01b600052604160045260246000fd5b61293f80620002826000396000f3fe60806040523480156200001157600080fd5b5060043610620000935760003560e01c8063c6cdbe5e1162000062578063c6cdbe5e1462000112578063d742ed051462000138578063dc2986821462000151578063f5ec2eed146200016857600080fd5b80630b35de6514620000985780630be1e45c14620000cc578063264866d014620000e557806353e1ead914620000fe575b600080fd5b620000af620000a936600462000704565b62000172565b6040516001600160a01b0390911681526020015b60405180910390f35b620000e3620000dd36600462000650565b6200019d565b005b620000ef620001ec565b604051620000c39190620007ba565b600154620000af906001600160a01b031681565b620001296200012336600462000704565b62000367565b604051620000c391906200081f565b620001426200041c565b604051620000c391906200076b565b620000e36200016236600462000650565b62000480565b620001296200058d565b600281815481106200018357600080fd5b6000918252602090912001546001600160a01b0316905081565b6001546001600160a01b03163314620001d35760405162461bcd60e51b8152600401620001ca9062000918565b60405180910390fd5b8051620001e89060009060208401906200059c565b5050565b60035460609060009067ffffffffffffffff8111156200021c57634e487b7160e01b600052604160045260246000fd5b6040519080825280602002602001820160405280156200025157816020015b60608152602001906001900390816200023b5790505b50905060005b6003548110156200036157600381815481106200028457634e487b7160e01b600052603260045260246000fd5b9060005260206000200180546200029b9062000960565b80601f0160208091040260200160405190810160405280929190818152602001828054620002c99062000960565b80156200031a5780601f10620002ee576101008083540402835291602001916200031a565b820191906000526020600020905b815481529060010190602001808311620002fc57829003601f168201915b50505050508282815181106200034057634e487b7160e01b600052603260045260246000fd5b60200260200101819052508080620003589062000997565b91505062000257565b50919050565b600381815481106200037857600080fd5b906000526020600020016000915090508054620003959062000960565b80601f0160208091040260200160405190810160405280929190818152602001828054620003c39062000960565b8015620004145780601f10620003e85761010080835404028352916020019162000414565b820191906000526020600020905b815481529060010190602001808311620003f657829003601f168201915b505050505081565b606060028054806020026020016040519081016040528092919081815260200182805480156200047657602002820191906000526020600020905b81546001600160a01b0316815260019091019060200180831162000457575b5050505050905090565b6001546001600160a01b03163314620004ad5760405162461bcd60e51b8152600401620001ca9062000918565b600154604051600091829184916001600160a01b031690620004cf906200062b565b620004dd939291906200083b565b604051809103906000f080158015620004fa573d6000803e3d6000fd5b506002805460018082019092557f405787fa12a823e0f2b7631cc41b3ba8828b3321ca811111fa75cd3aa3bb5ace0180546001600160a01b0319166001600160a01b038416179055600380549182018155600052835191925062000588917fc2575a0e9e593c00f959f8c92f12db2869c3395a3b0502d05e2516446f71f85b9091019060208501906200059c565b505050565b60008054620003959062000960565b828054620005aa9062000960565b90600052602060002090601f016020900481019282620005ce576000855562000619565b82601f10620005e957805160ff191683800117855562000619565b8280016001018555821562000619579182015b8281111562000619578251825591602001919060010190620005fc565b506200062792915062000639565b5090565b611f3480620009d683390190565b5b808211156200062757600081556001016200063a565b60006020828403121562000662578081fd5b813567ffffffffffffffff808211156200067a578283fd5b818401915084601f8301126200068e578283fd5b813581811115620006a357620006a3620009bf565b604051601f8201601f19908116603f01168101908382118183101715620006ce57620006ce620009bf565b81604052828152876020848701011115620006e7578586fd5b826020860160208301379182016020019490945295945050505050565b60006020828403121562000716578081fd5b5035919050565b60008151808452815b81811015620007445760208185018101518683018201520162000726565b81811115620007565782602083870101525b50601f01601f19169290920160200192915050565b6020808252825182820181905260009190848201906040850190845b81811015620007ae5783516001600160a01b03168352928401929184019160010162000787565b50909695505050505050565b6000602080830181845280855180835260408601915060408160051b8701019250838701855b828110156200081257603f19888603018452620007ff8583516200071d565b94509285019290850190600101620007e0565b5092979650505050505050565b6020815260006200083460208301846200071d565b9392505050565b60608152600080855482600182811c9150808316806200085c57607f831692505b60208084108214156200087d57634e487b7160e01b87526022600452602487fd5b60608801849052608088018280156200089f5760018114620008b157620008dd565b60ff19871682528282019750620008dd565b60008d815260209020895b87811015620008d757815484820152908601908401620008bc565b83019850505b5050878603818901525050505050620008f781866200071d565b9150506200091060408301846001600160a01b03169052565b949350505050565b60208082526028908201527f46756e6374696f6e2061636365737369626c65206f6e6c7920627920746865206040820152676f776e657220212160c01b606082015260800190565b600181811c908216806200097557607f821691505b602082108114156200036157634e487b7160e01b600052602260045260246000fd5b6000600019821415620009b857634e487b7160e01b81526011600452602481fd5b5060010190565b634e487b7160e01b600052604160045260246000fdfe60806040523480156200001157600080fd5b5060405162001f3438038062001f348339810160408190526200003491620001e2565b82516200004990600090602086019062000089565b5081516200005f90600190602085019062000089565b50600280546001600160a01b0319166001600160a01b039290921691909117905550620002be9050565b82805462000097906200026b565b90600052602060002090601f016020900481019282620000bb576000855562000106565b82601f10620000d657805160ff191683800117855562000106565b8280016001018555821562000106579182015b8281111562000106578251825591602001919060010190620000e9565b506200011492915062000118565b5090565b5b8082111562000114576000815560010162000119565b600082601f83011262000140578081fd5b81516001600160401b03808211156200015d576200015d620002a8565b604051601f8301601f19908116603f01168101908282118183101715620001885762000188620002a8565b81604052838152602092508683858801011115620001a4578485fd5b8491505b83821015620001c75785820183015181830184015290820190620001a8565b83821115620001d857848385830101525b9695505050505050565b600080600060608486031215620001f7578283fd5b83516001600160401b03808211156200020e578485fd5b6200021c878388016200012f565b9450602086015191508082111562000232578384fd5b5062000241868287016200012f565b604086015190935090506001600160a01b038116811462000260578182fd5b809150509250925092565b600181811c908216806200028057607f821691505b60208210811415620002a257634e487b7160e01b600052602260045260246000fd5b50919050565b634e487b7160e01b600052604160045260246000fd5b611c6680620002ce6000396000f3fe60806040523480156200001157600080fd5b5060043610620000935760003560e01c80637bf12b1c11620000625780637bf12b1c1462000110578063912952411462000129578063f3ff1dd91462000142578063f5ec2eed146200015b57600080fd5b8063150128c114620000985780631895699414620000cc57806353e1ead914620000e55780637acc0b2014620000f9575b600080fd5b620000af620000a936600462000718565b62000165565b6040516001600160a01b0390911681526020015b60405180910390f35b620000d662000190565b604051620000c3919062000833565b600254620000af906001600160a01b031681565b620000d66200010a36600462000718565b62000226565b620001276200012136600462000653565b62000254565b005b62000133620003b1565b604051620000c39190620007ce565b6200014c6200052c565b604051620000c391906200077f565b620000d662000590565b600381815481106200017657600080fd5b6000918252602090912001546001600160a01b0316905081565b600180546200019f906200093b565b80601f0160208091040260200160405190810160405280929190818152602001828054620001cd906200093b565b80156200021e5780601f10620001f2576101008083540402835291602001916200021e565b820191906000526020600020905b8154815290600101906020018083116200020057829003601f168201915b505050505081565b600481815481106200023757600080fd5b9060005260206000200160009150905080546200019f906200093b565b6002546001600160a01b03163314620002c45760405162461bcd60e51b815260206004820152602860248201527f46756e6374696f6e2061636365737369626c65206f6e6c7920627920746865206044820152676f776e657220212160c01b606482015260840160405180910390fd5b600083600084600260009054906101000a90046001600160a01b031685604051620002ef906200059f565b620002ff9594939291906200084f565b604051809103906000f0801580156200031c573d6000803e3d6000fd5b506003805460018082019092557fc2575a0e9e593c00f959f8c92f12db2869c3395a3b0502d05e2516446f71f85b0180546001600160a01b0319166001600160a01b0384161790556004805491820181556000528551919250620003aa917f8a35acfbc15ff81a39ae7d344fd709f28e8600b4aa8c65c6b64bfe7fe36bd19b909101906020870190620005ad565b5050505050565b60045460609060009067ffffffffffffffff811115620003e157634e487b7160e01b600052604160045260246000fd5b6040519080825280602002602001820160405280156200041657816020015b6060815260200190600190039081620004005790505b50905060005b6004548110156200052657600481815481106200044957634e487b7160e01b600052603260045260246000fd5b90600052602060002001805462000460906200093b565b80601f01602080910402602001604051908101604052809291908181526020018280546200048e906200093b565b8015620004df5780601f10620004b357610100808354040283529160200191620004df565b820191906000526020600020905b815481529060010190602001808311620004c157829003601f168201915b50505050508282815181106200050557634e487b7160e01b600052603260045260246000fd5b602002602001018190525080806200051d9062000972565b9150506200041c565b50919050565b606060038054806020026020016040519081016040528092919081815260200182805480156200058657602002820191906000526020600020905b81546001600160a01b0316815260019091019060200180831162000567575b5050505050905090565b600080546200019f906200093b565b61128080620009b183390190565b828054620005bb906200093b565b90600052602060002090601f016020900481019282620005df57600085556200062a565b82601f10620005fa57805160ff19168380011785556200062a565b828001600101855582156200062a579182015b828111156200062a5782518255916020019190600101906200060d565b50620006389291506200063c565b5090565b5b808211156200063857600081556001016200063d565b60008060006060848603121562000668578283fd5b833567ffffffffffffffff8082111562000680578485fd5b818601915086601f83011262000694578485fd5b813581811115620006a957620006a96200099a565b604051601f8201601f19908116603f01168101908382118183101715620006d457620006d46200099a565b81604052828152896020848701011115620006ed578788fd5b8260208601602083013791820160209081019790975250979486013596505050604090930135925050565b6000602082840312156200072a578081fd5b5035919050565b60008151808452815b8181101562000758576020818501810151868301820152016200073a565b818111156200076a5782602083870101525b50601f01601f19169290920160200192915050565b6020808252825182820181905260009190848201906040850190845b81811015620007c25783516001600160a01b0316835292840192918401916001016200079b565b50909695505050505050565b6000602080830181845280855180835260408601915060408160051b8701019250838701855b828110156200082657603f198886030184526200081385835162000731565b94509285019290850190600101620007f4565b5092979650505050505050565b60208152600062000848602083018462000731565b9392505050565b60a0815260006200086460a083018862000731565b60208382038185015282885484600182811c9150808316806200088857607f831692505b858310811415620008a757634e487b7160e01b88526022600452602488fd5b828752602087019650808015620008c75760018114620008d95762000905565b60ff1985168852868801955062000905565b60008e815260209020895b85811015620008ff5781548a820152908401908801620008e4565b89019650505b5050505050604085018890526001600160a01b038716606086015292506200092b915050565b8260808301529695505050505050565b600181811c908216806200095057607f821691505b602082108114156200052657634e487b7160e01b600052602260045260246000fd5b60006000198214156200099357634e487b7160e01b81526011600452602481fd5b5060010190565b634e487b7160e01b600052604160045260246000fdfe60806040523480156200001157600080fd5b50604051620012803803806200128083398101604081905262000034916200020d565b8451859085906200004d906000906020850190620000b4565b50805162000063906001906020840190620000b4565b50505060088390556009839055600680546001600160a01b0319166001600160a01b0384161790556200009b816301e13380620002aa565b6007555050600a805460ff191690555062000329915050565b828054620000c290620002d6565b90600052602060002090601f016020900481019282620000e6576000855562000131565b82601f106200010157805160ff191683800117855562000131565b8280016001018555821562000131579182015b828111156200013157825182559160200191906001019062000114565b506200013f92915062000143565b5090565b5b808211156200013f576000815560010162000144565b600082601f8301126200016b578081fd5b81516001600160401b038082111562000188576200018862000313565b604051601f8301601f19908116603f01168101908282118183101715620001b357620001b362000313565b81604052838152602092508683858801011115620001cf578485fd5b8491505b83821015620001f25785820183015181830184015290820190620001d3565b838211156200020357848385830101525b9695505050505050565b600080600080600060a0868803121562000225578081fd5b85516001600160401b03808211156200023c578283fd5b6200024a89838a016200015a565b9650602088015191508082111562000260578283fd5b506200026f888289016200015a565b60408801516060890151919650945090506001600160a01b038116811462000295578182fd5b80925050608086015190509295509295909350565b6000816000190483118215151615620002d157634e487b7160e01b81526011600452602481fd5b500290565b600181811c90821680620002eb57607f821691505b602082108114156200030d57634e487b7160e01b600052602260045260246000fd5b50919050565b634e487b7160e01b600052604160045260246000fd5b610f4780620003396000396000f3fe608060405234801561001057600080fd5b50600436106101005760003560e01c80636352211e116100975780639ff56acc116100665780639ff56acc14610201578063c87b56dd14610222578063da0239a614610235578063fb37e8831461023d57600080fd5b80636352211e146101be578063740ea8ab146101e95780638d75fe05146101f157806395d89b41146101f957600080fd5b806319d1997a116100d357806319d1997a1461018657806340753a761461018e57806342ec38e2146101a357806350847a33146101b657600080fd5b806306fdde03146101055780630a9857671461012357806312fa6feb1461015c578063171ee9f314610173575b600080fd5b61010d610250565b60405161011a9190610dc7565b60405180910390f35b61014e610131366004610c91565b600b60209081526000928352604080842090915290825290205481565b60405190815260200161011a565b600a5460ff165b604051901515815260200161011a565b610163610181366004610c70565b6102e2565b60085461014e565b6101a161019c366004610d64565b61033f565b005b61014e6101b1366004610c70565b61038c565b6101636103d0565b6101d16101cc366004610d64565b610464565b6040516001600160a01b03909116815260200161011a565b6101a16104e6565b61014e61059b565b61010d6105ab565b61021461020f366004610c70565b6105ba565b60405161011a929190610dda565b61010d610230366004610d64565b6106d5565b60095461014e565b61014e61024b366004610cba565b6107da565b60606000805461025f90610eaa565b80601f016020809104026020016040519081016040528092919081815260200182805461028b90610eaa565b80156102d85780601f106102ad576101008083540402835291602001916102d8565b820191906000526020600020905b8154815290600101906020018083116102bb57829003601f168201915b5050505050905090565b6007546001600160a01b0382166000908152600b602052604081209091908261030a8561038c565b8152602001908152602001600020546103239190610e7b565b42101561033257506001919050565b506000919050565b919050565b6006546001600160a01b031633146103725760405162461bcd60e51b815260040161036990610dfc565b60405180910390fd5b80600860008282546103849190610e7b565b909155505050565b60006001600160a01b0382166103b45760405162461bcd60e51b815260040161036990610e44565b506001600160a01b031660009081526003602052604090205490565b6006546000906001600160a01b031633146103fd5760405162461bcd60e51b815260040161036990610dfc565b600a5460ff16156104505760405162461bcd60e51b815260206004820152601860248201527f537570706c792068617320616c726561647920656e64656400000000000000006044820152606401610369565b50600a805460ff1916600190811790915590565b6000816104ab5760405162461bcd60e51b8152602060048201526015602482015274496e76616c696420746f6b656e49642076616c756560581b6044820152606401610369565b6000828152600260205260409020546001600160a01b0316806104e05760405162461bcd60e51b815260040161036990610e44565b92915050565b600754336000818152600b60205260408120916105029061038c565b81526020019081526020016000205461051b9190610e7b565b42116105885760405162461bcd60e51b815260206004820152603660248201527f596f75722077617272656e7479206973206e6f742065787069726564207965746044820152750b0818d85b9b9bdd08189d5c9b881e5bdd5c8813919560521b6064820152608401610369565b6105996105943361038c565b61092e565b565b60006105a660055490565b905090565b60606001805461025f90610eaa565b6007546001600160a01b0382166000908152600b6020526040812060609290826105e38661038c565b8152602001908152602001600020546105fc9190610e7b565b42101561066c576007546001600160a01b0384166000908152600b60205260408120906106288661038c565b8152602001908152602001600020546106419190610e7b565b60408051808201909152600b81526a22bc3834b932b99037b71d60a91b602082015294909350915050565b6007546001600160a01b0384166000908152600b60205260408120906106918661038c565b8152602001908152602001600020546106aa9190610e7b565b60408051808201909152600b81526a22bc3834b932b21037b71d60a91b602082015294909350915050565b6000818152600260205260409020546060906001600160a01b031661073c5760405162461bcd60e51b815260206004820152601f60248201527f55524920717565727920666f72206e6f6e6578697374656e7420746f6b656e006044820152606401610369565b6000828152600460205260409020805461075590610eaa565b80601f016020809104026020016040519081016040528092919081815260200182805461078190610eaa565b80156107ce5780601f106107a3576101008083540402835291602001916107ce565b820191906000526020600020905b8154815290600101906020018083116107b157829003601f168201915b50505050509050919050565b600a5460009060ff16156108235760405162461bcd60e51b815260206004820152601060248201526f4e6f206c6f6e6765722065786973747360801b6044820152606401610369565b6008546005541061086c5760405162461bcd60e51b81526020600482015260136024820152724e6f20737570706c792063757272656e746c7960681b6044820152606401610369565b61087a600580546001019055565b60016009600082825461088d9190610e93565b909155506108a59050336108a060055490565b6109aa565b6108b76108b160055490565b83610b38565b336000908152600b6020526040812042916108d160055490565b81526020810191909152604001600090812091909155600c805460018101825591527fdf6966c971051c3d54ec59162606531493a51404a002842f56009d7e5cf4a8c70180546001600160a01b031916331790556104e060055490565b600061093982610464565b6001600160a01b0381166000818152600360209081526040808320839055868352600282529182902080546001600160a01b0319169055905142815292935084927f23ff0e75edf108e3d0392d92e13e8c8a868ef19001bd49f9e94876dc46dff87f91015b60405180910390a35050565b6001600160a01b0382166109d05760405162461bcd60e51b815260040161036990610e44565b80610a1d5760405162461bcd60e51b815260206004820152601760248201527f546f6b656e2049442063616e6e6f74206265207a65726f0000000000000000006044820152606401610369565b6000818152600260205260409020546001600160a01b031615610a795760405162461bcd60e51b8152602060048201526014602482015273151bdad95b88185b1c9958591e481b5a5b9d195960621b6044820152606401610369565b610a828261038c565b15610acf5760405162461bcd60e51b815260206004820152601960248201527f4f776e657220616c726561647920686173206120746f6b656e000000000000006044820152606401610369565b6001600160a01b0382166000818152600360209081526040808320859055848352600282529182902080546001600160a01b0319168417905590514281528392917f25b428dfde728ccfaddad7e29e4ac23c24ed7fd1a6e3e3f91894a9a073f5dfff910161099e565b6000828152600260205260409020546001600160a01b0316610b9c5760405162461bcd60e51b815260206004820152601c60248201527f55524920736574206f66206e6f6e6578697374656e7420746f6b656e000000006044820152606401610369565b60008281526004602090815260409091208251610bbb92840190610bc0565b505050565b828054610bcc90610eaa565b90600052602060002090601f016020900481019282610bee5760008555610c34565b82601f10610c0757805160ff1916838001178555610c34565b82800160010185558215610c34579182015b82811115610c34578251825591602001919060010190610c19565b50610c40929150610c44565b5090565b5b80821115610c405760008155600101610c45565b80356001600160a01b038116811461033a57600080fd5b600060208284031215610c81578081fd5b610c8a82610c59565b9392505050565b60008060408385031215610ca3578081fd5b610cac83610c59565b946020939093013593505050565b600060208284031215610ccb578081fd5b813567ffffffffffffffff80821115610ce2578283fd5b818401915084601f830112610cf5578283fd5b813581811115610d0757610d07610efb565b604051601f8201601f19908116603f01168101908382118183101715610d2f57610d2f610efb565b81604052828152876020848701011115610d47578586fd5b826020860160208301379182016020019490945295945050505050565b600060208284031215610d75578081fd5b5035919050565b60008151808452815b81811015610da157602081850181015186830182015201610d85565b81811115610db25782602083870101525b50601f01601f19169290920160200192915050565b602081526000610c8a6020830184610d7c565b604081526000610ded6040830185610d7c565b90508260208301529392505050565b60208082526028908201527f46756e6374696f6e2061636365737369626c65206f6e6c7920627920746865206040820152676f776e657220212160c01b606082015260800190565b6020808252601d908201527f496e76616c6964206f776e6572206174207a65726f2061646472657373000000604082015260600190565b60008219821115610e8e57610e8e610ee5565b500190565b600082821015610ea557610ea5610ee5565b500390565b600181811c90821680610ebe57607f821691505b60208210811415610edf57634e487b7160e01b600052602260045260246000fd5b50919050565b634e487b7160e01b600052601160045260246000fd5b634e487b7160e01b600052604160045260246000fdfea2646970667358221220b2475b2dfbaba5a705615cb1c2e0b53c57508240b7dad5d2b8797cc1fa8e6ccb64736f6c63430008040033a2646970667358221220746542b11ad673d70dc848ce250dfdc7e5a01bf0fa0fbf30a63f01fba932d27964736f6c63430008040033a26469706673582212208c8c64bc0e38417efd9a63846d53f5152a930190aabbc8536b22a9ec9ab804af64736f6c63430008040033a264697066735822122061ea01aaafc86cce107fafd72953db1e3cc7e7a1ceb4d98efb7fd32459a756cf64736f6c63430008040033",
          "opcodes": "PUSH1 0x80 PUSH1 0x40 MSTORE CALLVALUE DUP1 ISZERO PUSH2 0x10 JUMPI PUSH1 0x0 DUP1 REVERT JUMPDEST POP PUSH1 0x40 DUP1 MLOAD DUP1 DUP3 ADD SWAP1 SWAP2 MSTORE PUSH1 0x8 DUP1 DUP3 MSTORE PUSH8 0x119B1A5C1AD85C9D PUSH1 0xC2 SHL PUSH1 0x20 SWAP1 SWAP3 ADD SWAP2 DUP3 MSTORE PUSH2 0x40 SWAP2 PUSH1 0x0 SWAP2 PUSH2 0x58 JUMP JUMPDEST POP PUSH1 0x1 DUP1 SLOAD PUSH1 0x1 PUSH1 0x1 PUSH1 0xA0 SHL SUB NOT AND CALLER OR SWAP1 SSTORE PUSH2 0x12C JUMP JUMPDEST DUP3 DUP1 SLOAD PUSH2 0x64 SWAP1 PUSH2 0xF1 JUMP JUMPDEST SWAP1 PUSH1 0x0 MSTORE PUSH1 0x20 PUSH1 0x0 KECCAK256 SWAP1 PUSH1 0x1F ADD PUSH1 0x20 SWAP1 DIV DUP2 ADD SWAP3 DUP3 PUSH2 0x86 JUMPI PUSH1 0x0 DUP6 SSTORE PUSH2 0xCC JUMP JUMPDEST DUP3 PUSH1 0x1F LT PUSH2 0x9F JUMPI DUP1 MLOAD PUSH1 0xFF NOT AND DUP4 DUP1 ADD OR DUP6 SSTORE PUSH2 0xCC JUMP JUMPDEST DUP3 DUP1 ADD PUSH1 0x1 ADD DUP6 SSTORE DUP3 ISZERO PUSH2 0xCC JUMPI SWAP2 DUP3 ADD JUMPDEST DUP3 DUP2 GT ISZERO PUSH2 0xCC JUMPI DUP3 MLOAD DUP3 SSTORE SWAP2 PUSH1 0x20 ADD SWAP2 SWAP1 PUSH1 0x1 ADD SWAP1 PUSH2 0xB1 JUMP JUMPDEST POP PUSH2 0xD8 SWAP3 SWAP2 POP PUSH2 0xDC JUMP JUMPDEST POP SWAP1 JUMP JUMPDEST JUMPDEST DUP1 DUP3 GT ISZERO PUSH2 0xD8 JUMPI PUSH1 0x0 DUP2 SSTORE PUSH1 0x1 ADD PUSH2 0xDD JUMP JUMPDEST PUSH1 0x1 DUP2 DUP2 SHR SWAP1 DUP3 AND DUP1 PUSH2 0x105 JUMPI PUSH1 0x7F DUP3 AND SWAP2 POP JUMPDEST PUSH1 0x20 DUP3 LT DUP2 EQ ISZERO PUSH2 0x126 JUMPI PUSH4 0x4E487B71 PUSH1 0xE0 SHL PUSH1 0x0 MSTORE PUSH1 0x22 PUSH1 0x4 MSTORE PUSH1 0x24 PUSH1 0x0 REVERT JUMPDEST POP SWAP2 SWAP1 POP JUMP JUMPDEST PUSH2 0x34CB DUP1 PUSH2 0x13B PUSH1 0x0 CODECOPY PUSH1 0x0 RETURN INVALID PUSH1 0x80 PUSH1 0x40 MSTORE CALLVALUE DUP1 ISZERO PUSH3 0x11 JUMPI PUSH1 0x0 DUP1 REVERT JUMPDEST POP PUSH1 0x4 CALLDATASIZE LT PUSH3 0x87 JUMPI PUSH1 0x0 CALLDATALOAD PUSH1 0xE0 SHR DUP1 PUSH4 0x8052474D GT PUSH3 0x62 JUMPI DUP1 PUSH4 0x8052474D EQ PUSH3 0x101 JUMPI DUP1 PUSH4 0x99687845 EQ PUSH3 0x10B JUMPI DUP1 PUSH4 0xC19DB326 EQ PUSH3 0x122 JUMPI DUP1 PUSH4 0xF22F2A1A EQ PUSH3 0x13B JUMPI PUSH1 0x0 DUP1 REVERT JUMPDEST DUP1 PUSH4 0x16E60470 EQ PUSH3 0x8C JUMPI DUP1 PUSH4 0x2813D19D EQ PUSH3 0xAE JUMPI DUP1 PUSH4 0x7848ED6A EQ PUSH3 0xD4 JUMPI JUMPDEST PUSH1 0x0 DUP1 REVERT JUMPDEST PUSH3 0x96 PUSH3 0x154 JUMP JUMPDEST PUSH1 0x40 MLOAD PUSH3 0xA5 SWAP2 SWAP1 PUSH3 0x7B2 JUMP JUMPDEST PUSH1 0x40 MLOAD DUP1 SWAP2 SUB SWAP1 RETURN JUMPDEST PUSH3 0xC5 PUSH3 0xBF CALLDATASIZE PUSH1 0x4 PUSH3 0x6FC JUMP JUMPDEST PUSH3 0x2CF JUMP JUMPDEST PUSH1 0x40 MLOAD PUSH3 0xA5 SWAP2 SWAP1 PUSH3 0x817 JUMP JUMPDEST PUSH1 0x1 SLOAD PUSH3 0xE8 SWAP1 PUSH1 0x1 PUSH1 0x1 PUSH1 0xA0 SHL SUB AND DUP2 JUMP JUMPDEST PUSH1 0x40 MLOAD PUSH1 0x1 PUSH1 0x1 PUSH1 0xA0 SHL SUB SWAP1 SWAP2 AND DUP2 MSTORE PUSH1 0x20 ADD PUSH3 0xA5 JUMP JUMPDEST PUSH3 0xC5 PUSH3 0x384 JUMP JUMPDEST PUSH3 0xE8 PUSH3 0x11C CALLDATASIZE PUSH1 0x4 PUSH3 0x6FC JUMP JUMPDEST PUSH3 0x393 JUMP JUMPDEST PUSH3 0x12C PUSH3 0x3BE JUMP JUMPDEST PUSH1 0x40 MLOAD PUSH3 0xA5 SWAP2 SWAP1 PUSH3 0x763 JUMP JUMPDEST PUSH3 0x152 PUSH3 0x14C CALLDATASIZE PUSH1 0x4 PUSH3 0x633 JUMP JUMPDEST PUSH3 0x422 JUMP JUMPDEST STOP JUMPDEST PUSH1 0x3 SLOAD PUSH1 0x60 SWAP1 PUSH1 0x0 SWAP1 PUSH8 0xFFFFFFFFFFFFFFFF DUP2 GT ISZERO PUSH3 0x184 JUMPI PUSH4 0x4E487B71 PUSH1 0xE0 SHL PUSH1 0x0 MSTORE PUSH1 0x41 PUSH1 0x4 MSTORE PUSH1 0x24 PUSH1 0x0 REVERT JUMPDEST PUSH1 0x40 MLOAD SWAP1 DUP1 DUP3 MSTORE DUP1 PUSH1 0x20 MUL PUSH1 0x20 ADD DUP3 ADD PUSH1 0x40 MSTORE DUP1 ISZERO PUSH3 0x1B9 JUMPI DUP2 PUSH1 0x20 ADD JUMPDEST PUSH1 0x60 DUP2 MSTORE PUSH1 0x20 ADD SWAP1 PUSH1 0x1 SWAP1 SUB SWAP1 DUP2 PUSH3 0x1A3 JUMPI SWAP1 POP JUMPDEST POP SWAP1 POP PUSH1 0x0 JUMPDEST PUSH1 0x3 SLOAD DUP2 LT ISZERO PUSH3 0x2C9 JUMPI PUSH1 0x3 DUP2 DUP2 SLOAD DUP2 LT PUSH3 0x1EC JUMPI PUSH4 0x4E487B71 PUSH1 0xE0 SHL PUSH1 0x0 MSTORE PUSH1 0x32 PUSH1 0x4 MSTORE PUSH1 0x24 PUSH1 0x0 REVERT JUMPDEST SWAP1 PUSH1 0x0 MSTORE PUSH1 0x20 PUSH1 0x0 KECCAK256 ADD DUP1 SLOAD PUSH3 0x203 SWAP1 PUSH3 0x85F JUMP JUMPDEST DUP1 PUSH1 0x1F ADD PUSH1 0x20 DUP1 SWAP2 DIV MUL PUSH1 0x20 ADD PUSH1 0x40 MLOAD SWAP1 DUP2 ADD PUSH1 0x40 MSTORE DUP1 SWAP3 SWAP2 SWAP1 DUP2 DUP2 MSTORE PUSH1 0x20 ADD DUP3 DUP1 SLOAD PUSH3 0x231 SWAP1 PUSH3 0x85F JUMP JUMPDEST DUP1 ISZERO PUSH3 0x282 JUMPI DUP1 PUSH1 0x1F LT PUSH3 0x256 JUMPI PUSH2 0x100 DUP1 DUP4 SLOAD DIV MUL DUP4 MSTORE SWAP2 PUSH1 0x20 ADD SWAP2 PUSH3 0x282 JUMP JUMPDEST DUP3 ADD SWAP2 SWAP1 PUSH1 0x0 MSTORE PUSH1 0x20 PUSH1 0x0 KECCAK256 SWAP1 JUMPDEST DUP2 SLOAD DUP2 MSTORE SWAP1 PUSH1 0x1 ADD SWAP1 PUSH1 0x20 ADD DUP1 DUP4 GT PUSH3 0x264 JUMPI DUP3 SWAP1 SUB PUSH1 0x1F AND DUP3 ADD SWAP2 JUMPDEST POP POP POP POP POP DUP3 DUP3 DUP2 MLOAD DUP2 LT PUSH3 0x2A8 JUMPI PUSH4 0x4E487B71 PUSH1 0xE0 SHL PUSH1 0x0 MSTORE PUSH1 0x32 PUSH1 0x4 MSTORE PUSH1 0x24 PUSH1 0x0 REVERT JUMPDEST PUSH1 0x20 MUL PUSH1 0x20 ADD ADD DUP2 SWAP1 MSTORE POP DUP1 DUP1 PUSH3 0x2C0 SWAP1 PUSH3 0x896 JUMP JUMPDEST SWAP2 POP POP PUSH3 0x1BF JUMP JUMPDEST POP SWAP2 SWAP1 POP JUMP JUMPDEST PUSH1 0x3 DUP2 DUP2 SLOAD DUP2 LT PUSH3 0x2E0 JUMPI PUSH1 0x0 DUP1 REVERT JUMPDEST SWAP1 PUSH1 0x0 MSTORE PUSH1 0x20 PUSH1 0x0 KECCAK256 ADD PUSH1 0x0 SWAP2 POP SWAP1 POP DUP1 SLOAD PUSH3 0x2FD SWAP1 PUSH3 0x85F JUMP JUMPDEST DUP1 PUSH1 0x1F ADD PUSH1 0x20 DUP1 SWAP2 DIV MUL PUSH1 0x20 ADD PUSH1 0x40 MLOAD SWAP1 DUP2 ADD PUSH1 0x40 MSTORE DUP1 SWAP3 SWAP2 SWAP1 DUP2 DUP2 MSTORE PUSH1 0x20 ADD DUP3 DUP1 SLOAD PUSH3 0x32B SWAP1 PUSH3 0x85F JUMP JUMPDEST DUP1 ISZERO PUSH3 0x37C JUMPI DUP1 PUSH1 0x1F LT PUSH3 0x350 JUMPI PUSH2 0x100 DUP1 DUP4 SLOAD DIV MUL DUP4 MSTORE SWAP2 PUSH1 0x20 ADD SWAP2 PUSH3 0x37C JUMP JUMPDEST DUP3 ADD SWAP2 SWAP1 PUSH1 0x0 MSTORE PUSH1 0x20 PUSH1 0x0 KECCAK256 SWAP1 JUMPDEST DUP2 SLOAD DUP2 MSTORE SWAP1 PUSH1 0x1 ADD SWAP1 PUSH1 0x20 ADD DUP1 DUP4 GT PUSH3 0x35E JUMPI DUP3 SWAP1 SUB PUSH1 0x1F AND DUP3 ADD SWAP2 JUMPDEST POP POP POP POP POP DUP2 JUMP JUMPDEST PUSH1 0x0 DUP1 SLOAD PUSH3 0x2FD SWAP1 PUSH3 0x85F JUMP JUMPDEST PUSH1 0x2 DUP2 DUP2 SLOAD DUP2 LT PUSH3 0x3A4 JUMPI PUSH1 0x0 DUP1 REVERT JUMPDEST PUSH1 0x0 SWAP2 DUP3 MSTORE PUSH1 0x20 SWAP1 SWAP2 KECCAK256 ADD SLOAD PUSH1 0x1 PUSH1 0x1 PUSH1 0xA0 SHL SUB AND SWAP1 POP DUP2 JUMP JUMPDEST PUSH1 0x60 PUSH1 0x2 DUP1 SLOAD DUP1 PUSH1 0x20 MUL PUSH1 0x20 ADD PUSH1 0x40 MLOAD SWAP1 DUP2 ADD PUSH1 0x40 MSTORE DUP1 SWAP3 SWAP2 SWAP1 DUP2 DUP2 MSTORE PUSH1 0x20 ADD DUP3 DUP1 SLOAD DUP1 ISZERO PUSH3 0x418 JUMPI PUSH1 0x20 MUL DUP3 ADD SWAP2 SWAP1 PUSH1 0x0 MSTORE PUSH1 0x20 PUSH1 0x0 KECCAK256 SWAP1 JUMPDEST DUP2 SLOAD PUSH1 0x1 PUSH1 0x1 PUSH1 0xA0 SHL SUB AND DUP2 MSTORE PUSH1 0x1 SWAP1 SWAP2 ADD SWAP1 PUSH1 0x20 ADD DUP1 DUP4 GT PUSH3 0x3F9 JUMPI JUMPDEST POP POP POP POP POP SWAP1 POP SWAP1 JUMP JUMPDEST PUSH1 0x1 SLOAD PUSH1 0x1 PUSH1 0x1 PUSH1 0xA0 SHL SUB AND CALLER EQ PUSH3 0x492 JUMPI PUSH1 0x40 MLOAD PUSH3 0x461BCD PUSH1 0xE5 SHL DUP2 MSTORE PUSH1 0x20 PUSH1 0x4 DUP3 ADD MSTORE PUSH1 0x28 PUSH1 0x24 DUP3 ADD MSTORE PUSH32 0x46756E6374696F6E2061636365737369626C65206F6E6C792062792074686520 PUSH1 0x44 DUP3 ADD MSTORE PUSH8 0x6F776E6572202121 PUSH1 0xC0 SHL PUSH1 0x64 DUP3 ADD MSTORE PUSH1 0x84 ADD PUSH1 0x40 MLOAD DUP1 SWAP2 SUB SWAP1 REVERT JUMPDEST PUSH1 0x0 DUP3 DUP3 PUSH1 0x40 MLOAD PUSH3 0x4A4 SWAP1 PUSH3 0x562 JUMP JUMPDEST PUSH3 0x4B1 SWAP3 SWAP2 SWAP1 PUSH3 0x833 JUMP JUMPDEST PUSH1 0x40 MLOAD DUP1 SWAP2 SUB SWAP1 PUSH1 0x0 CREATE DUP1 ISZERO DUP1 ISZERO PUSH3 0x4CE JUMPI RETURNDATASIZE PUSH1 0x0 DUP1 RETURNDATACOPY RETURNDATASIZE PUSH1 0x0 REVERT JUMPDEST POP PUSH1 0x2 DUP1 SLOAD PUSH1 0x1 DUP1 DUP3 ADD SWAP1 SWAP3 SSTORE PUSH32 0x405787FA12A823E0F2B7631CC41B3BA8828B3321CA811111FA75CD3AA3BB5ACE ADD DUP1 SLOAD PUSH1 0x1 PUSH1 0x1 PUSH1 0xA0 SHL SUB NOT AND PUSH1 0x1 PUSH1 0x1 PUSH1 0xA0 SHL SUB DUP5 AND OR SWAP1 SSTORE PUSH1 0x3 DUP1 SLOAD SWAP2 DUP3 ADD DUP2 SSTORE PUSH1 0x0 MSTORE DUP5 MLOAD SWAP2 SWAP3 POP PUSH3 0x55C SWAP2 PUSH32 0xC2575A0E9E593C00F959F8C92F12DB2869C3395A3B0502D05E2516446F71F85B SWAP1 SWAP2 ADD SWAP1 PUSH1 0x20 DUP7 ADD SWAP1 PUSH3 0x570 JUMP JUMPDEST POP POP POP POP JUMP JUMPDEST PUSH2 0x2BC1 DUP1 PUSH3 0x8D5 DUP4 CODECOPY ADD SWAP1 JUMP JUMPDEST DUP3 DUP1 SLOAD PUSH3 0x57E SWAP1 PUSH3 0x85F JUMP JUMPDEST SWAP1 PUSH1 0x0 MSTORE PUSH1 0x20 PUSH1 0x0 KECCAK256 SWAP1 PUSH1 0x1F ADD PUSH1 0x20 SWAP1 DIV DUP2 ADD SWAP3 DUP3 PUSH3 0x5A2 JUMPI PUSH1 0x0 DUP6 SSTORE PUSH3 0x5ED JUMP JUMPDEST DUP3 PUSH1 0x1F LT PUSH3 0x5BD JUMPI DUP1 MLOAD PUSH1 0xFF NOT AND DUP4 DUP1 ADD OR DUP6 SSTORE PUSH3 0x5ED JUMP JUMPDEST DUP3 DUP1 ADD PUSH1 0x1 ADD DUP6 SSTORE DUP3 ISZERO PUSH3 0x5ED JUMPI SWAP2 DUP3 ADD JUMPDEST DUP3 DUP2 GT ISZERO PUSH3 0x5ED JUMPI DUP3 MLOAD DUP3 SSTORE SWAP2 PUSH1 0x20 ADD SWAP2 SWAP1 PUSH1 0x1 ADD SWAP1 PUSH3 0x5D0 JUMP JUMPDEST POP PUSH3 0x5FB SWAP3 SWAP2 POP PUSH3 0x5FF JUMP JUMPDEST POP SWAP1 JUMP JUMPDEST JUMPDEST DUP1 DUP3 GT ISZERO PUSH3 0x5FB JUMPI PUSH1 0x0 DUP2 SSTORE PUSH1 0x1 ADD PUSH3 0x600 JUMP JUMPDEST DUP1 CALLDATALOAD PUSH1 0x1 PUSH1 0x1 PUSH1 0xA0 SHL SUB DUP2 AND DUP2 EQ PUSH3 0x62E JUMPI PUSH1 0x0 DUP1 REVERT JUMPDEST SWAP2 SWAP1 POP JUMP JUMPDEST PUSH1 0x0 DUP1 PUSH1 0x40 DUP4 DUP6 SUB SLT ISZERO PUSH3 0x646 JUMPI DUP2 DUP3 REVERT JUMPDEST DUP3 CALLDATALOAD PUSH8 0xFFFFFFFFFFFFFFFF DUP1 DUP3 GT ISZERO PUSH3 0x65E JUMPI DUP4 DUP5 REVERT JUMPDEST DUP2 DUP6 ADD SWAP2 POP DUP6 PUSH1 0x1F DUP4 ADD SLT PUSH3 0x672 JUMPI DUP4 DUP5 REVERT JUMPDEST DUP2 CALLDATALOAD DUP2 DUP2 GT ISZERO PUSH3 0x687 JUMPI PUSH3 0x687 PUSH3 0x8BE JUMP JUMPDEST PUSH1 0x40 MLOAD PUSH1 0x1F DUP3 ADD PUSH1 0x1F NOT SWAP1 DUP2 AND PUSH1 0x3F ADD AND DUP2 ADD SWAP1 DUP4 DUP3 GT DUP2 DUP4 LT OR ISZERO PUSH3 0x6B2 JUMPI PUSH3 0x6B2 PUSH3 0x8BE JUMP JUMPDEST DUP2 PUSH1 0x40 MSTORE DUP3 DUP2 MSTORE DUP9 PUSH1 0x20 DUP5 DUP8 ADD ADD GT ISZERO PUSH3 0x6CB JUMPI DUP7 DUP8 REVERT JUMPDEST DUP3 PUSH1 0x20 DUP7 ADD PUSH1 0x20 DUP4 ADD CALLDATACOPY DUP7 PUSH1 0x20 DUP5 DUP4 ADD ADD MSTORE DUP1 SWAP7 POP POP POP POP POP POP PUSH3 0x6F3 PUSH1 0x20 DUP5 ADD PUSH3 0x616 JUMP JUMPDEST SWAP1 POP SWAP3 POP SWAP3 SWAP1 POP JUMP JUMPDEST PUSH1 0x0 PUSH1 0x20 DUP3 DUP5 SUB SLT ISZERO PUSH3 0x70E JUMPI DUP1 DUP2 REVERT JUMPDEST POP CALLDATALOAD SWAP2 SWAP1 POP JUMP JUMPDEST PUSH1 0x0 DUP2 MLOAD DUP1 DUP5 MSTORE DUP2 JUMPDEST DUP2 DUP2 LT ISZERO PUSH3 0x73C JUMPI PUSH1 0x20 DUP2 DUP6 ADD DUP2 ADD MLOAD DUP7 DUP4 ADD DUP3 ADD MSTORE ADD PUSH3 0x71E JUMP JUMPDEST DUP2 DUP2 GT ISZERO PUSH3 0x74E JUMPI DUP3 PUSH1 0x20 DUP4 DUP8 ADD ADD MSTORE JUMPDEST POP PUSH1 0x1F ADD PUSH1 0x1F NOT AND SWAP3 SWAP1 SWAP3 ADD PUSH1 0x20 ADD SWAP3 SWAP2 POP POP JUMP JUMPDEST PUSH1 0x20 DUP1 DUP3 MSTORE DUP3 MLOAD DUP3 DUP3 ADD DUP2 SWAP1 MSTORE PUSH1 0x0 SWAP2 SWAP1 DUP5 DUP3 ADD SWAP1 PUSH1 0x40 DUP6 ADD SWAP1 DUP5 JUMPDEST DUP2 DUP2 LT ISZERO PUSH3 0x7A6 JUMPI DUP4 MLOAD PUSH1 0x1 PUSH1 0x1 PUSH1 0xA0 SHL SUB AND DUP4 MSTORE SWAP3 DUP5 ADD SWAP3 SWAP2 DUP5 ADD SWAP2 PUSH1 0x1 ADD PUSH3 0x77F JUMP JUMPDEST POP SWAP1 SWAP7 SWAP6 POP POP POP POP POP POP JUMP JUMPDEST PUSH1 0x0 PUSH1 0x20 DUP1 DUP4 ADD DUP2 DUP5 MSTORE DUP1 DUP6 MLOAD DUP1 DUP4 MSTORE PUSH1 0x40 DUP7 ADD SWAP2 POP PUSH1 0x40 DUP2 PUSH1 0x5 SHL DUP8 ADD ADD SWAP3 POP DUP4 DUP8 ADD DUP6 JUMPDEST DUP3 DUP2 LT ISZERO PUSH3 0x80A JUMPI PUSH1 0x3F NOT DUP9 DUP7 SUB ADD DUP5 MSTORE PUSH3 0x7F7 DUP6 DUP4 MLOAD PUSH3 0x715 JUMP JUMPDEST SWAP5 POP SWAP3 DUP6 ADD SWAP3 SWAP1 DUP6 ADD SWAP1 PUSH1 0x1 ADD PUSH3 0x7D8 JUMP JUMPDEST POP SWAP3 SWAP8 SWAP7 POP POP POP POP POP POP POP JUMP JUMPDEST PUSH1 0x20 DUP2 MSTORE PUSH1 0x0 PUSH3 0x82C PUSH1 0x20 DUP4 ADD DUP5 PUSH3 0x715 JUMP JUMPDEST SWAP4 SWAP3 POP POP POP JUMP JUMPDEST PUSH1 0x40 DUP2 MSTORE PUSH1 0x0 PUSH3 0x848 PUSH1 0x40 DUP4 ADD DUP6 PUSH3 0x715 JUMP JUMPDEST SWAP1 POP PUSH1 0x1 DUP1 PUSH1 0xA0 SHL SUB DUP4 AND PUSH1 0x20 DUP4 ADD MSTORE SWAP4 SWAP3 POP POP POP JUMP JUMPDEST PUSH1 0x1 DUP2 DUP2 SHR SWAP1 DUP3 AND DUP1 PUSH3 0x874 JUMPI PUSH1 0x7F DUP3 AND SWAP2 POP JUMPDEST PUSH1 0x20 DUP3 LT DUP2 EQ ISZERO PUSH3 0x2C9 JUMPI PUSH4 0x4E487B71 PUSH1 0xE0 SHL PUSH1 0x0 MSTORE PUSH1 0x22 PUSH1 0x4 MSTORE PUSH1 0x24 PUSH1 0x0 REVERT JUMPDEST PUSH1 0x0 PUSH1 0x0 NOT DUP3 EQ ISZERO PUSH3 0x8B7 JUMPI PUSH4 0x4E487B71 PUSH1 0xE0 SHL DUP2 MSTORE PUSH1 0x11 PUSH1 0x4 MSTORE PUSH1 0x24 DUP2 REVERT JUMPDEST POP PUSH1 0x1 ADD SWAP1 JUMP JUMPDEST PUSH4 0x4E487B71 PUSH1 0xE0 SHL PUSH1 0x0 MSTORE PUSH1 0x41 PUSH1 0x4 MSTORE PUSH1 0x24 PUSH1 0x0 REVERT INVALID PUSH1 0x80 PUSH1 0x40 MSTORE CALLVALUE DUP1 ISZERO PUSH3 0x11 JUMPI PUSH1 0x0 DUP1 REVERT JUMPDEST POP PUSH1 0x40 MLOAD PUSH3 0x2BC1 CODESIZE SUB DUP1 PUSH3 0x2BC1 DUP4 CODECOPY DUP2 ADD PUSH1 0x40 DUP2 SWAP1 MSTORE PUSH3 0x34 SWAP2 PUSH3 0x134 JUMP JUMPDEST DUP2 MLOAD PUSH3 0x49 SWAP1 PUSH1 0x0 SWAP1 PUSH1 0x20 DUP6 ADD SWAP1 PUSH3 0x71 JUMP JUMPDEST POP PUSH1 0x1 DUP1 SLOAD PUSH1 0x1 PUSH1 0x1 PUSH1 0xA0 SHL SUB NOT AND PUSH1 0x1 PUSH1 0x1 PUSH1 0xA0 SHL SUB SWAP3 SWAP1 SWAP3 AND SWAP2 SWAP1 SWAP2 OR SWAP1 SSTORE POP PUSH3 0x272 JUMP JUMPDEST DUP3 DUP1 SLOAD PUSH3 0x7F SWAP1 PUSH3 0x21F JUMP JUMPDEST SWAP1 PUSH1 0x0 MSTORE PUSH1 0x20 PUSH1 0x0 KECCAK256 SWAP1 PUSH1 0x1F ADD PUSH1 0x20 SWAP1 DIV DUP2 ADD SWAP3 DUP3 PUSH3 0xA3 JUMPI PUSH1 0x0 DUP6 SSTORE PUSH3 0xEE JUMP JUMPDEST DUP3 PUSH1 0x1F LT PUSH3 0xBE JUMPI DUP1 MLOAD PUSH1 0xFF NOT AND DUP4 DUP1 ADD OR DUP6 SSTORE PUSH3 0xEE JUMP JUMPDEST DUP3 DUP1 ADD PUSH1 0x1 ADD DUP6 SSTORE DUP3 ISZERO PUSH3 0xEE JUMPI SWAP2 DUP3 ADD JUMPDEST DUP3 DUP2 GT ISZERO PUSH3 0xEE JUMPI DUP3 MLOAD DUP3 SSTORE SWAP2 PUSH1 0x20 ADD SWAP2 SWAP1 PUSH1 0x1 ADD SWAP1 PUSH3 0xD1 JUMP JUMPDEST POP PUSH3 0xFC SWAP3 SWAP2 POP PUSH3 0x100 JUMP JUMPDEST POP SWAP1 JUMP JUMPDEST JUMPDEST DUP1 DUP3 GT ISZERO PUSH3 0xFC JUMPI PUSH1 0x0 DUP2 SSTORE PUSH1 0x1 ADD PUSH3 0x101 JUMP JUMPDEST DUP1 MLOAD PUSH1 0x1 PUSH1 0x1 PUSH1 0xA0 SHL SUB DUP2 AND DUP2 EQ PUSH3 0x12F JUMPI PUSH1 0x0 DUP1 REVERT JUMPDEST SWAP2 SWAP1 POP JUMP JUMPDEST PUSH1 0x0 DUP1 PUSH1 0x40 DUP4 DUP6 SUB SLT ISZERO PUSH3 0x147 JUMPI DUP2 DUP3 REVERT JUMPDEST DUP3 MLOAD PUSH1 0x1 PUSH1 0x1 PUSH1 0x40 SHL SUB DUP1 DUP3 GT ISZERO PUSH3 0x15E JUMPI DUP4 DUP5 REVERT JUMPDEST DUP2 DUP6 ADD SWAP2 POP DUP6 PUSH1 0x1F DUP4 ADD SLT PUSH3 0x172 JUMPI DUP4 DUP5 REVERT JUMPDEST DUP2 MLOAD DUP2 DUP2 GT ISZERO PUSH3 0x187 JUMPI PUSH3 0x187 PUSH3 0x25C JUMP JUMPDEST PUSH1 0x40 MLOAD PUSH1 0x1F DUP3 ADD PUSH1 0x1F NOT SWAP1 DUP2 AND PUSH1 0x3F ADD AND DUP2 ADD SWAP1 DUP4 DUP3 GT DUP2 DUP4 LT OR ISZERO PUSH3 0x1B2 JUMPI PUSH3 0x1B2 PUSH3 0x25C JUMP JUMPDEST DUP2 PUSH1 0x40 MSTORE DUP3 DUP2 MSTORE PUSH1 0x20 SWAP4 POP DUP9 DUP5 DUP5 DUP8 ADD ADD GT ISZERO PUSH3 0x1CE JUMPI DUP7 DUP8 REVERT JUMPDEST DUP7 SWAP2 POP JUMPDEST DUP3 DUP3 LT ISZERO PUSH3 0x1F1 JUMPI DUP5 DUP3 ADD DUP5 ADD MLOAD DUP2 DUP4 ADD DUP6 ADD MSTORE SWAP1 DUP4 ADD SWAP1 PUSH3 0x1D2 JUMP JUMPDEST DUP3 DUP3 GT ISZERO PUSH3 0x202 JUMPI DUP7 DUP5 DUP5 DUP4 ADD ADD MSTORE JUMPDEST SWAP6 POP PUSH3 0x214 SWAP2 POP POP DUP6 DUP3 ADD PUSH3 0x117 JUMP JUMPDEST SWAP3 POP POP POP SWAP3 POP SWAP3 SWAP1 POP JUMP JUMPDEST PUSH1 0x1 DUP2 DUP2 SHR SWAP1 DUP3 AND DUP1 PUSH3 0x234 JUMPI PUSH1 0x7F DUP3 AND SWAP2 POP JUMPDEST PUSH1 0x20 DUP3 LT DUP2 EQ ISZERO PUSH3 0x256 JUMPI PUSH4 0x4E487B71 PUSH1 0xE0 SHL PUSH1 0x0 MSTORE PUSH1 0x22 PUSH1 0x4 MSTORE PUSH1 0x24 PUSH1 0x0 REVERT JUMPDEST POP SWAP2 SWAP1 POP JUMP JUMPDEST PUSH4 0x4E487B71 PUSH1 0xE0 SHL PUSH1 0x0 MSTORE PUSH1 0x41 PUSH1 0x4 MSTORE PUSH1 0x24 PUSH1 0x0 REVERT JUMPDEST PUSH2 0x293F DUP1 PUSH3 0x282 PUSH1 0x0 CODECOPY PUSH1 0x0 RETURN INVALID PUSH1 0x80 PUSH1 0x40 MSTORE CALLVALUE DUP1 ISZERO PUSH3 0x11 JUMPI PUSH1 0x0 DUP1 REVERT JUMPDEST POP PUSH1 0x4 CALLDATASIZE LT PUSH3 0x93 JUMPI PUSH1 0x0 CALLDATALOAD PUSH1 0xE0 SHR DUP1 PUSH4 0xC6CDBE5E GT PUSH3 0x62 JUMPI DUP1 PUSH4 0xC6CDBE5E EQ PUSH3 0x112 JUMPI DUP1 PUSH4 0xD742ED05 EQ PUSH3 0x138 JUMPI DUP1 PUSH4 0xDC298682 EQ PUSH3 0x151 JUMPI DUP1 PUSH4 0xF5EC2EED EQ PUSH3 0x168 JUMPI PUSH1 0x0 DUP1 REVERT JUMPDEST DUP1 PUSH4 0xB35DE65 EQ PUSH3 0x98 JUMPI DUP1 PUSH4 0xBE1E45C EQ PUSH3 0xCC JUMPI DUP1 PUSH4 0x264866D0 EQ PUSH3 0xE5 JUMPI DUP1 PUSH4 0x53E1EAD9 EQ PUSH3 0xFE JUMPI JUMPDEST PUSH1 0x0 DUP1 REVERT JUMPDEST PUSH3 0xAF PUSH3 0xA9 CALLDATASIZE PUSH1 0x4 PUSH3 0x704 JUMP JUMPDEST PUSH3 0x172 JUMP JUMPDEST PUSH1 0x40 MLOAD PUSH1 0x1 PUSH1 0x1 PUSH1 0xA0 SHL SUB SWAP1 SWAP2 AND DUP2 MSTORE PUSH1 0x20 ADD JUMPDEST PUSH1 0x40 MLOAD DUP1 SWAP2 SUB SWAP1 RETURN JUMPDEST PUSH3 0xE3 PUSH3 0xDD CALLDATASIZE PUSH1 0x4 PUSH3 0x650 JUMP JUMPDEST PUSH3 0x19D JUMP JUMPDEST STOP JUMPDEST PUSH3 0xEF PUSH3 0x1EC JUMP JUMPDEST PUSH1 0x40 MLOAD PUSH3 0xC3 SWAP2 SWAP1 PUSH3 0x7BA JUMP JUMPDEST PUSH1 0x1 SLOAD PUSH3 0xAF SWAP1 PUSH1 0x1 PUSH1 0x1 PUSH1 0xA0 SHL SUB AND DUP2 JUMP JUMPDEST PUSH3 0x129 PUSH3 0x123 CALLDATASIZE PUSH1 0x4 PUSH3 0x704 JUMP JUMPDEST PUSH3 0x367 JUMP JUMPDEST PUSH1 0x40 MLOAD PUSH3 0xC3 SWAP2 SWAP1 PUSH3 0x81F JUMP JUMPDEST PUSH3 0x142 PUSH3 0x41C JUMP JUMPDEST PUSH1 0x40 MLOAD PUSH3 0xC3 SWAP2 SWAP1 PUSH3 0x76B JUMP JUMPDEST PUSH3 0xE3 PUSH3 0x162 CALLDATASIZE PUSH1 0x4 PUSH3 0x650 JUMP JUMPDEST PUSH3 0x480 JUMP JUMPDEST PUSH3 0x129 PUSH3 0x58D JUMP JUMPDEST PUSH1 0x2 DUP2 DUP2 SLOAD DUP2 LT PUSH3 0x183 JUMPI PUSH1 0x0 DUP1 REVERT JUMPDEST PUSH1 0x0 SWAP2 DUP3 MSTORE PUSH1 0x20 SWAP1 SWAP2 KECCAK256 ADD SLOAD PUSH1 0x1 PUSH1 0x1 PUSH1 0xA0 SHL SUB AND SWAP1 POP DUP2 JUMP JUMPDEST PUSH1 0x1 SLOAD PUSH1 0x1 PUSH1 0x1 PUSH1 0xA0 SHL SUB AND CALLER EQ PUSH3 0x1D3 JUMPI PUSH1 0x40 MLOAD PUSH3 0x461BCD PUSH1 0xE5 SHL DUP2 MSTORE PUSH1 0x4 ADD PUSH3 0x1CA SWAP1 PUSH3 0x918 JUMP JUMPDEST PUSH1 0x40 MLOAD DUP1 SWAP2 SUB SWAP1 REVERT JUMPDEST DUP1 MLOAD PUSH3 0x1E8 SWAP1 PUSH1 0x0 SWAP1 PUSH1 0x20 DUP5 ADD SWAP1 PUSH3 0x59C JUMP JUMPDEST POP POP JUMP JUMPDEST PUSH1 0x3 SLOAD PUSH1 0x60 SWAP1 PUSH1 0x0 SWAP1 PUSH8 0xFFFFFFFFFFFFFFFF DUP2 GT ISZERO PUSH3 0x21C JUMPI PUSH4 0x4E487B71 PUSH1 0xE0 SHL PUSH1 0x0 MSTORE PUSH1 0x41 PUSH1 0x4 MSTORE PUSH1 0x24 PUSH1 0x0 REVERT JUMPDEST PUSH1 0x40 MLOAD SWAP1 DUP1 DUP3 MSTORE DUP1 PUSH1 0x20 MUL PUSH1 0x20 ADD DUP3 ADD PUSH1 0x40 MSTORE DUP1 ISZERO PUSH3 0x251 JUMPI DUP2 PUSH1 0x20 ADD JUMPDEST PUSH1 0x60 DUP2 MSTORE PUSH1 0x20 ADD SWAP1 PUSH1 0x1 SWAP1 SUB SWAP1 DUP2 PUSH3 0x23B JUMPI SWAP1 POP JUMPDEST POP SWAP1 POP PUSH1 0x0 JUMPDEST PUSH1 0x3 SLOAD DUP2 LT ISZERO PUSH3 0x361 JUMPI PUSH1 0x3 DUP2 DUP2 SLOAD DUP2 LT PUSH3 0x284 JUMPI PUSH4 0x4E487B71 PUSH1 0xE0 SHL PUSH1 0x0 MSTORE PUSH1 0x32 PUSH1 0x4 MSTORE PUSH1 0x24 PUSH1 0x0 REVERT JUMPDEST SWAP1 PUSH1 0x0 MSTORE PUSH1 0x20 PUSH1 0x0 KECCAK256 ADD DUP1 SLOAD PUSH3 0x29B SWAP1 PUSH3 0x960 JUMP JUMPDEST DUP1 PUSH1 0x1F ADD PUSH1 0x20 DUP1 SWAP2 DIV MUL PUSH1 0x20 ADD PUSH1 0x40 MLOAD SWAP1 DUP2 ADD PUSH1 0x40 MSTORE DUP1 SWAP3 SWAP2 SWAP1 DUP2 DUP2 MSTORE PUSH1 0x20 ADD DUP3 DUP1 SLOAD PUSH3 0x2C9 SWAP1 PUSH3 0x960 JUMP JUMPDEST DUP1 ISZERO PUSH3 0x31A JUMPI DUP1 PUSH1 0x1F LT PUSH3 0x2EE JUMPI PUSH2 0x100 DUP1 DUP4 SLOAD DIV MUL DUP4 MSTORE SWAP2 PUSH1 0x20 ADD SWAP2 PUSH3 0x31A JUMP JUMPDEST DUP3 ADD SWAP2 SWAP1 PUSH1 0x0 MSTORE PUSH1 0x20 PUSH1 0x0 KECCAK256 SWAP1 JUMPDEST DUP2 SLOAD DUP2 MSTORE SWAP1 PUSH1 0x1 ADD SWAP1 PUSH1 0x20 ADD DUP1 DUP4 GT PUSH3 0x2FC JUMPI DUP3 SWAP1 SUB PUSH1 0x1F AND DUP3 ADD SWAP2 JUMPDEST POP POP POP POP POP DUP3 DUP3 DUP2 MLOAD DUP2 LT PUSH3 0x340 JUMPI PUSH4 0x4E487B71 PUSH1 0xE0 SHL PUSH1 0x0 MSTORE PUSH1 0x32 PUSH1 0x4 MSTORE PUSH1 0x24 PUSH1 0x0 REVERT JUMPDEST PUSH1 0x20 MUL PUSH1 0x20 ADD ADD DUP2 SWAP1 MSTORE POP DUP1 DUP1 PUSH3 0x358 SWAP1 PUSH3 0x997 JUMP JUMPDEST SWAP2 POP POP PUSH3 0x257 JUMP JUMPDEST POP SWAP2 SWAP1 POP JUMP JUMPDEST PUSH1 0x3 DUP2 DUP2 SLOAD DUP2 LT PUSH3 0x378 JUMPI PUSH1 0x0 DUP1 REVERT JUMPDEST SWAP1 PUSH1 0x0 MSTORE PUSH1 0x20 PUSH1 0x0 KECCAK256 ADD PUSH1 0x0 SWAP2 POP SWAP1 POP DUP1 SLOAD PUSH3 0x395 SWAP1 PUSH3 0x960 JUMP JUMPDEST DUP1 PUSH1 0x1F ADD PUSH1 0x20 DUP1 SWAP2 DIV MUL PUSH1 0x20 ADD PUSH1 0x40 MLOAD SWAP1 DUP2 ADD PUSH1 0x40 MSTORE DUP1 SWAP3 SWAP2 SWAP1 DUP2 DUP2 MSTORE PUSH1 0x20 ADD DUP3 DUP1 SLOAD PUSH3 0x3C3 SWAP1 PUSH3 0x960 JUMP JUMPDEST DUP1 ISZERO PUSH3 0x414 JUMPI DUP1 PUSH1 0x1F LT PUSH3 0x3E8 JUMPI PUSH2 0x100 DUP1 DUP4 SLOAD DIV MUL DUP4 MSTORE SWAP2 PUSH1 0x20 ADD SWAP2 PUSH3 0x414 JUMP JUMPDEST DUP3 ADD SWAP2 SWAP1 PUSH1 0x0 MSTORE PUSH1 0x20 PUSH1 0x0 KECCAK256 SWAP1 JUMPDEST DUP2 SLOAD DUP2 MSTORE SWAP1 PUSH1 0x1 ADD SWAP1 PUSH1 0x20 ADD DUP1 DUP4 GT PUSH3 0x3F6 JUMPI DUP3 SWAP1 SUB PUSH1 0x1F AND DUP3 ADD SWAP2 JUMPDEST POP POP POP POP POP DUP2 JUMP JUMPDEST PUSH1 0x60 PUSH1 0x2 DUP1 SLOAD DUP1 PUSH1 0x20 MUL PUSH1 0x20 ADD PUSH1 0x40 MLOAD SWAP1 DUP2 ADD PUSH1 0x40 MSTORE DUP1 SWAP3 SWAP2 SWAP1 DUP2 DUP2 MSTORE PUSH1 0x20 ADD DUP3 DUP1 SLOAD DUP1 ISZERO PUSH3 0x476 JUMPI PUSH1 0x20 MUL DUP3 ADD SWAP2 SWAP1 PUSH1 0x0 MSTORE PUSH1 0x20 PUSH1 0x0 KECCAK256 SWAP1 JUMPDEST DUP2 SLOAD PUSH1 0x1 PUSH1 0x1 PUSH1 0xA0 SHL SUB AND DUP2 MSTORE PUSH1 0x1 SWAP1 SWAP2 ADD SWAP1 PUSH1 0x20 ADD DUP1 DUP4 GT PUSH3 0x457 JUMPI JUMPDEST POP POP POP POP POP SWAP1 POP SWAP1 JUMP JUMPDEST PUSH1 0x1 SLOAD PUSH1 0x1 PUSH1 0x1 PUSH1 0xA0 SHL SUB AND CALLER EQ PUSH3 0x4AD JUMPI PUSH1 0x40 MLOAD PUSH3 0x461BCD PUSH1 0xE5 SHL DUP2 MSTORE PUSH1 0x4 ADD PUSH3 0x1CA SWAP1 PUSH3 0x918 JUMP JUMPDEST PUSH1 0x1 SLOAD PUSH1 0x40 MLOAD PUSH1 0x0 SWAP2 DUP3 SWAP2 DUP5 SWAP2 PUSH1 0x1 PUSH1 0x1 PUSH1 0xA0 SHL SUB AND SWAP1 PUSH3 0x4CF SWAP1 PUSH3 0x62B JUMP JUMPDEST PUSH3 0x4DD SWAP4 SWAP3 SWAP2 SWAP1 PUSH3 0x83B JUMP JUMPDEST PUSH1 0x40 MLOAD DUP1 SWAP2 SUB SWAP1 PUSH1 0x0 CREATE DUP1 ISZERO DUP1 ISZERO PUSH3 0x4FA JUMPI RETURNDATASIZE PUSH1 0x0 DUP1 RETURNDATACOPY RETURNDATASIZE PUSH1 0x0 REVERT JUMPDEST POP PUSH1 0x2 DUP1 SLOAD PUSH1 0x1 DUP1 DUP3 ADD SWAP1 SWAP3 SSTORE PUSH32 0x405787FA12A823E0F2B7631CC41B3BA8828B3321CA811111FA75CD3AA3BB5ACE ADD DUP1 SLOAD PUSH1 0x1 PUSH1 0x1 PUSH1 0xA0 SHL SUB NOT AND PUSH1 0x1 PUSH1 0x1 PUSH1 0xA0 SHL SUB DUP5 AND OR SWAP1 SSTORE PUSH1 0x3 DUP1 SLOAD SWAP2 DUP3 ADD DUP2 SSTORE PUSH1 0x0 MSTORE DUP4 MLOAD SWAP2 SWAP3 POP PUSH3 0x588 SWAP2 PUSH32 0xC2575A0E9E593C00F959F8C92F12DB2869C3395A3B0502D05E2516446F71F85B SWAP1 SWAP2 ADD SWAP1 PUSH1 0x20 DUP6 ADD SWAP1 PUSH3 0x59C JUMP JUMPDEST POP POP POP JUMP JUMPDEST PUSH1 0x0 DUP1 SLOAD PUSH3 0x395 SWAP1 PUSH3 0x960 JUMP JUMPDEST DUP3 DUP1 SLOAD PUSH3 0x5AA SWAP1 PUSH3 0x960 JUMP JUMPDEST SWAP1 PUSH1 0x0 MSTORE PUSH1 0x20 PUSH1 0x0 KECCAK256 SWAP1 PUSH1 0x1F ADD PUSH1 0x20 SWAP1 DIV DUP2 ADD SWAP3 DUP3 PUSH3 0x5CE JUMPI PUSH1 0x0 DUP6 SSTORE PUSH3 0x619 JUMP JUMPDEST DUP3 PUSH1 0x1F LT PUSH3 0x5E9 JUMPI DUP1 MLOAD PUSH1 0xFF NOT AND DUP4 DUP1 ADD OR DUP6 SSTORE PUSH3 0x619 JUMP JUMPDEST DUP3 DUP1 ADD PUSH1 0x1 ADD DUP6 SSTORE DUP3 ISZERO PUSH3 0x619 JUMPI SWAP2 DUP3 ADD JUMPDEST DUP3 DUP2 GT ISZERO PUSH3 0x619 JUMPI DUP3 MLOAD DUP3 SSTORE SWAP2 PUSH1 0x20 ADD SWAP2 SWAP1 PUSH1 0x1 ADD SWAP1 PUSH3 0x5FC JUMP JUMPDEST POP PUSH3 0x627 SWAP3 SWAP2 POP PUSH3 0x639 JUMP JUMPDEST POP SWAP1 JUMP JUMPDEST PUSH2 0x1F34 DUP1 PUSH3 0x9D6 DUP4 CODECOPY ADD SWAP1 JUMP JUMPDEST JUMPDEST DUP1 DUP3 GT ISZERO PUSH3 0x627 JUMPI PUSH1 0x0 DUP2 SSTORE PUSH1 0x1 ADD PUSH3 0x63A JUMP JUMPDEST PUSH1 0x0 PUSH1 0x20 DUP3 DUP5 SUB SLT ISZERO PUSH3 0x662 JUMPI DUP1 DUP2 REVERT JUMPDEST DUP2 CALLDATALOAD PUSH8 0xFFFFFFFFFFFFFFFF DUP1 DUP3 GT ISZERO PUSH3 0x67A JUMPI DUP3 DUP4 REVERT JUMPDEST DUP2 DUP5 ADD SWAP2 POP DUP5 PUSH1 0x1F DUP4 ADD SLT PUSH3 0x68E JUMPI DUP3 DUP4 REVERT JUMPDEST DUP2 CALLDATALOAD DUP2 DUP2 GT ISZERO PUSH3 0x6A3 JUMPI PUSH3 0x6A3 PUSH3 0x9BF JUMP JUMPDEST PUSH1 0x40 MLOAD PUSH1 0x1F DUP3 ADD PUSH1 0x1F NOT SWAP1 DUP2 AND PUSH1 0x3F ADD AND DUP2 ADD SWAP1 DUP4 DUP3 GT DUP2 DUP4 LT OR ISZERO PUSH3 0x6CE JUMPI PUSH3 0x6CE PUSH3 0x9BF JUMP JUMPDEST DUP2 PUSH1 0x40 MSTORE DUP3 DUP2 MSTORE DUP8 PUSH1 0x20 DUP5 DUP8 ADD ADD GT ISZERO PUSH3 0x6E7 JUMPI DUP6 DUP7 REVERT JUMPDEST DUP3 PUSH1 0x20 DUP7 ADD PUSH1 0x20 DUP4 ADD CALLDATACOPY SWAP2 DUP3 ADD PUSH1 0x20 ADD SWAP5 SWAP1 SWAP5 MSTORE SWAP6 SWAP5 POP POP POP POP POP JUMP JUMPDEST PUSH1 0x0 PUSH1 0x20 DUP3 DUP5 SUB SLT ISZERO PUSH3 0x716 JUMPI DUP1 DUP2 REVERT JUMPDEST POP CALLDATALOAD SWAP2 SWAP1 POP JUMP JUMPDEST PUSH1 0x0 DUP2 MLOAD DUP1 DUP5 MSTORE DUP2 JUMPDEST DUP2 DUP2 LT ISZERO PUSH3 0x744 JUMPI PUSH1 0x20 DUP2 DUP6 ADD DUP2 ADD MLOAD DUP7 DUP4 ADD DUP3 ADD MSTORE ADD PUSH3 0x726 JUMP JUMPDEST DUP2 DUP2 GT ISZERO PUSH3 0x756 JUMPI DUP3 PUSH1 0x20 DUP4 DUP8 ADD ADD MSTORE JUMPDEST POP PUSH1 0x1F ADD PUSH1 0x1F NOT AND SWAP3 SWAP1 SWAP3 ADD PUSH1 0x20 ADD SWAP3 SWAP2 POP POP JUMP JUMPDEST PUSH1 0x20 DUP1 DUP3 MSTORE DUP3 MLOAD DUP3 DUP3 ADD DUP2 SWAP1 MSTORE PUSH1 0x0 SWAP2 SWAP1 DUP5 DUP3 ADD SWAP1 PUSH1 0x40 DUP6 ADD SWAP1 DUP5 JUMPDEST DUP2 DUP2 LT ISZERO PUSH3 0x7AE JUMPI DUP4 MLOAD PUSH1 0x1 PUSH1 0x1 PUSH1 0xA0 SHL SUB AND DUP4 MSTORE SWAP3 DUP5 ADD SWAP3 SWAP2 DUP5 ADD SWAP2 PUSH1 0x1 ADD PUSH3 0x787 JUMP JUMPDEST POP SWAP1 SWAP7 SWAP6 POP POP POP POP POP POP JUMP JUMPDEST PUSH1 0x0 PUSH1 0x20 DUP1 DUP4 ADD DUP2 DUP5 MSTORE DUP1 DUP6 MLOAD DUP1 DUP4 MSTORE PUSH1 0x40 DUP7 ADD SWAP2 POP PUSH1 0x40 DUP2 PUSH1 0x5 SHL DUP8 ADD ADD SWAP3 POP DUP4 DUP8 ADD DUP6 JUMPDEST DUP3 DUP2 LT ISZERO PUSH3 0x812 JUMPI PUSH1 0x3F NOT DUP9 DUP7 SUB ADD DUP5 MSTORE PUSH3 0x7FF DUP6 DUP4 MLOAD PUSH3 0x71D JUMP JUMPDEST SWAP5 POP SWAP3 DUP6 ADD SWAP3 SWAP1 DUP6 ADD SWAP1 PUSH1 0x1 ADD PUSH3 0x7E0 JUMP JUMPDEST POP SWAP3 SWAP8 SWAP7 POP POP POP POP POP POP POP JUMP JUMPDEST PUSH1 0x20 DUP2 MSTORE PUSH1 0x0 PUSH3 0x834 PUSH1 0x20 DUP4 ADD DUP5 PUSH3 0x71D JUMP JUMPDEST SWAP4 SWAP3 POP POP POP JUMP JUMPDEST PUSH1 0x60 DUP2 MSTORE PUSH1 0x0 DUP1 DUP6 SLOAD DUP3 PUSH1 0x1 DUP3 DUP2 SHR SWAP2 POP DUP1 DUP4 AND DUP1 PUSH3 0x85C JUMPI PUSH1 0x7F DUP4 AND SWAP3 POP JUMPDEST PUSH1 0x20 DUP1 DUP5 LT DUP3 EQ ISZERO PUSH3 0x87D JUMPI PUSH4 0x4E487B71 PUSH1 0xE0 SHL DUP8 MSTORE PUSH1 0x22 PUSH1 0x4 MSTORE PUSH1 0x24 DUP8 REVERT JUMPDEST PUSH1 0x60 DUP9 ADD DUP5 SWAP1 MSTORE PUSH1 0x80 DUP9 ADD DUP3 DUP1 ISZERO PUSH3 0x89F JUMPI PUSH1 0x1 DUP2 EQ PUSH3 0x8B1 JUMPI PUSH3 0x8DD JUMP JUMPDEST PUSH1 0xFF NOT DUP8 AND DUP3 MSTORE DUP3 DUP3 ADD SWAP8 POP PUSH3 0x8DD JUMP JUMPDEST PUSH1 0x0 DUP14 DUP2 MSTORE PUSH1 0x20 SWAP1 KECCAK256 DUP10 JUMPDEST DUP8 DUP2 LT ISZERO PUSH3 0x8D7 JUMPI DUP2 SLOAD DUP5 DUP3 ADD MSTORE SWAP1 DUP7 ADD SWAP1 DUP5 ADD PUSH3 0x8BC JUMP JUMPDEST DUP4 ADD SWAP9 POP POP JUMPDEST POP POP DUP8 DUP7 SUB DUP2 DUP10 ADD MSTORE POP POP POP POP POP PUSH3 0x8F7 DUP2 DUP7 PUSH3 0x71D JUMP JUMPDEST SWAP2 POP POP PUSH3 0x910 PUSH1 0x40 DUP4 ADD DUP5 PUSH1 0x1 PUSH1 0x1 PUSH1 0xA0 SHL SUB AND SWAP1 MSTORE JUMP JUMPDEST SWAP5 SWAP4 POP POP POP POP JUMP JUMPDEST PUSH1 0x20 DUP1 DUP3 MSTORE PUSH1 0x28 SWAP1 DUP3 ADD MSTORE PUSH32 0x46756E6374696F6E2061636365737369626C65206F6E6C792062792074686520 PUSH1 0x40 DUP3 ADD MSTORE PUSH8 0x6F776E6572202121 PUSH1 0xC0 SHL PUSH1 0x60 DUP3 ADD MSTORE PUSH1 0x80 ADD SWAP1 JUMP JUMPDEST PUSH1 0x1 DUP2 DUP2 SHR SWAP1 DUP3 AND DUP1 PUSH3 0x975 JUMPI PUSH1 0x7F DUP3 AND SWAP2 POP JUMPDEST PUSH1 0x20 DUP3 LT DUP2 EQ ISZERO PUSH3 0x361 JUMPI PUSH4 0x4E487B71 PUSH1 0xE0 SHL PUSH1 0x0 MSTORE PUSH1 0x22 PUSH1 0x4 MSTORE PUSH1 0x24 PUSH1 0x0 REVERT JUMPDEST PUSH1 0x0 PUSH1 0x0 NOT DUP3 EQ ISZERO PUSH3 0x9B8 JUMPI PUSH4 0x4E487B71 PUSH1 0xE0 SHL DUP2 MSTORE PUSH1 0x11 PUSH1 0x4 MSTORE PUSH1 0x24 DUP2 REVERT JUMPDEST POP PUSH1 0x1 ADD SWAP1 JUMP JUMPDEST PUSH4 0x4E487B71 PUSH1 0xE0 SHL PUSH1 0x0 MSTORE PUSH1 0x41 PUSH1 0x4 MSTORE PUSH1 0x24 PUSH1 0x0 REVERT INVALID PUSH1 0x80 PUSH1 0x40 MSTORE CALLVALUE DUP1 ISZERO PUSH3 0x11 JUMPI PUSH1 0x0 DUP1 REVERT JUMPDEST POP PUSH1 0x40 MLOAD PUSH3 0x1F34 CODESIZE SUB DUP1 PUSH3 0x1F34 DUP4 CODECOPY DUP2 ADD PUSH1 0x40 DUP2 SWAP1 MSTORE PUSH3 0x34 SWAP2 PUSH3 0x1E2 JUMP JUMPDEST DUP3 MLOAD PUSH3 0x49 SWAP1 PUSH1 0x0 SWAP1 PUSH1 0x20 DUP7 ADD SWAP1 PUSH3 0x89 JUMP JUMPDEST POP DUP2 MLOAD PUSH3 0x5F SWAP1 PUSH1 0x1 SWAP1 PUSH1 0x20 DUP6 ADD SWAP1 PUSH3 0x89 JUMP JUMPDEST POP PUSH1 0x2 DUP1 SLOAD PUSH1 0x1 PUSH1 0x1 PUSH1 0xA0 SHL SUB NOT AND PUSH1 0x1 PUSH1 0x1 PUSH1 0xA0 SHL SUB SWAP3 SWAP1 SWAP3 AND SWAP2 SWAP1 SWAP2 OR SWAP1 SSTORE POP PUSH3 0x2BE SWAP1 POP JUMP JUMPDEST DUP3 DUP1 SLOAD PUSH3 0x97 SWAP1 PUSH3 0x26B JUMP JUMPDEST SWAP1 PUSH1 0x0 MSTORE PUSH1 0x20 PUSH1 0x0 KECCAK256 SWAP1 PUSH1 0x1F ADD PUSH1 0x20 SWAP1 DIV DUP2 ADD SWAP3 DUP3 PUSH3 0xBB JUMPI PUSH1 0x0 DUP6 SSTORE PUSH3 0x106 JUMP JUMPDEST DUP3 PUSH1 0x1F LT PUSH3 0xD6 JUMPI DUP1 MLOAD PUSH1 0xFF NOT AND DUP4 DUP1 ADD OR DUP6 SSTORE PUSH3 0x106 JUMP JUMPDEST DUP3 DUP1 ADD PUSH1 0x1 ADD DUP6 SSTORE DUP3 ISZERO PUSH3 0x106 JUMPI SWAP2 DUP3 ADD JUMPDEST DUP3 DUP2 GT ISZERO PUSH3 0x106 JUMPI DUP3 MLOAD DUP3 SSTORE SWAP2 PUSH1 0x20 ADD SWAP2 SWAP1 PUSH1 0x1 ADD SWAP1 PUSH3 0xE9 JUMP JUMPDEST POP PUSH3 0x114 SWAP3 SWAP2 POP PUSH3 0x118 JUMP JUMPDEST POP SWAP1 JUMP JUMPDEST JUMPDEST DUP1 DUP3 GT ISZERO PUSH3 0x114 JUMPI PUSH1 0x0 DUP2 SSTORE PUSH1 0x1 ADD PUSH3 0x119 JUMP JUMPDEST PUSH1 0x0 DUP3 PUSH1 0x1F DUP4 ADD SLT PUSH3 0x140 JUMPI DUP1 DUP2 REVERT JUMPDEST DUP2 MLOAD PUSH1 0x1 PUSH1 0x1 PUSH1 0x40 SHL SUB DUP1 DUP3 GT ISZERO PUSH3 0x15D JUMPI PUSH3 0x15D PUSH3 0x2A8 JUMP JUMPDEST PUSH1 0x40 MLOAD PUSH1 0x1F DUP4 ADD PUSH1 0x1F NOT SWAP1 DUP2 AND PUSH1 0x3F ADD AND DUP2 ADD SWAP1 DUP3 DUP3 GT DUP2 DUP4 LT OR ISZERO PUSH3 0x188 JUMPI PUSH3 0x188 PUSH3 0x2A8 JUMP JUMPDEST DUP2 PUSH1 0x40 MSTORE DUP4 DUP2 MSTORE PUSH1 0x20 SWAP3 POP DUP7 DUP4 DUP6 DUP9 ADD ADD GT ISZERO PUSH3 0x1A4 JUMPI DUP5 DUP6 REVERT JUMPDEST DUP5 SWAP2 POP JUMPDEST DUP4 DUP3 LT ISZERO PUSH3 0x1C7 JUMPI DUP6 DUP3 ADD DUP4 ADD MLOAD DUP2 DUP4 ADD DUP5 ADD MSTORE SWAP1 DUP3 ADD SWAP1 PUSH3 0x1A8 JUMP JUMPDEST DUP4 DUP3 GT ISZERO PUSH3 0x1D8 JUMPI DUP5 DUP4 DUP6 DUP4 ADD ADD MSTORE JUMPDEST SWAP7 SWAP6 POP POP POP POP POP POP JUMP JUMPDEST PUSH1 0x0 DUP1 PUSH1 0x0 PUSH1 0x60 DUP5 DUP7 SUB SLT ISZERO PUSH3 0x1F7 JUMPI DUP3 DUP4 REVERT JUMPDEST DUP4 MLOAD PUSH1 0x1 PUSH1 0x1 PUSH1 0x40 SHL SUB DUP1 DUP3 GT ISZERO PUSH3 0x20E JUMPI DUP5 DUP6 REVERT JUMPDEST PUSH3 0x21C DUP8 DUP4 DUP9 ADD PUSH3 0x12F JUMP JUMPDEST SWAP5 POP PUSH1 0x20 DUP7 ADD MLOAD SWAP2 POP DUP1 DUP3 GT ISZERO PUSH3 0x232 JUMPI DUP4 DUP5 REVERT JUMPDEST POP PUSH3 0x241 DUP7 DUP3 DUP8 ADD PUSH3 0x12F JUMP JUMPDEST PUSH1 0x40 DUP7 ADD MLOAD SWAP1 SWAP4 POP SWAP1 POP PUSH1 0x1 PUSH1 0x1 PUSH1 0xA0 SHL SUB DUP2 AND DUP2 EQ PUSH3 0x260 JUMPI DUP2 DUP3 REVERT JUMPDEST DUP1 SWAP2 POP POP SWAP3 POP SWAP3 POP SWAP3 JUMP JUMPDEST PUSH1 0x1 DUP2 DUP2 SHR SWAP1 DUP3 AND DUP1 PUSH3 0x280 JUMPI PUSH1 0x7F DUP3 AND SWAP2 POP JUMPDEST PUSH1 0x20 DUP3 LT DUP2 EQ ISZERO PUSH3 0x2A2 JUMPI PUSH4 0x4E487B71 PUSH1 0xE0 SHL PUSH1 0x0 MSTORE PUSH1 0x22 PUSH1 0x4 MSTORE PUSH1 0x24 PUSH1 0x0 REVERT JUMPDEST POP SWAP2 SWAP1 POP JUMP JUMPDEST PUSH4 0x4E487B71 PUSH1 0xE0 SHL PUSH1 0x0 MSTORE PUSH1 0x41 PUSH1 0x4 MSTORE PUSH1 0x24 PUSH1 0x0 REVERT JUMPDEST PUSH2 0x1C66 DUP1 PUSH3 0x2CE PUSH1 0x0 CODECOPY PUSH1 0x0 RETURN INVALID PUSH1 0x80 PUSH1 0x40 MSTORE CALLVALUE DUP1 ISZERO PUSH3 0x11 JUMPI PUSH1 0x0 DUP1 REVERT JUMPDEST POP PUSH1 0x4 CALLDATASIZE LT PUSH3 0x93 JUMPI PUSH1 0x0 CALLDATALOAD PUSH1 0xE0 SHR DUP1 PUSH4 0x7BF12B1C GT PUSH3 0x62 JUMPI DUP1 PUSH4 0x7BF12B1C EQ PUSH3 0x110 JUMPI DUP1 PUSH4 0x91295241 EQ PUSH3 0x129 JUMPI DUP1 PUSH4 0xF3FF1DD9 EQ PUSH3 0x142 JUMPI DUP1 PUSH4 0xF5EC2EED EQ PUSH3 0x15B JUMPI PUSH1 0x0 DUP1 REVERT JUMPDEST DUP1 PUSH4 0x150128C1 EQ PUSH3 0x98 JUMPI DUP1 PUSH4 0x18956994 EQ PUSH3 0xCC JUMPI DUP1 PUSH4 0x53E1EAD9 EQ PUSH3 0xE5 JUMPI DUP1 PUSH4 0x7ACC0B20 EQ PUSH3 0xF9 JUMPI JUMPDEST PUSH1 0x0 DUP1 REVERT JUMPDEST PUSH3 0xAF PUSH3 0xA9 CALLDATASIZE PUSH1 0x4 PUSH3 0x718 JUMP JUMPDEST PUSH3 0x165 JUMP JUMPDEST PUSH1 0x40 MLOAD PUSH1 0x1 PUSH1 0x1 PUSH1 0xA0 SHL SUB SWAP1 SWAP2 AND DUP2 MSTORE PUSH1 0x20 ADD JUMPDEST PUSH1 0x40 MLOAD DUP1 SWAP2 SUB SWAP1 RETURN JUMPDEST PUSH3 0xD6 PUSH3 0x190 JUMP JUMPDEST PUSH1 0x40 MLOAD PUSH3 0xC3 SWAP2 SWAP1 PUSH3 0x833 JUMP JUMPDEST PUSH1 0x2 SLOAD PUSH3 0xAF SWAP1 PUSH1 0x1 PUSH1 0x1 PUSH1 0xA0 SHL SUB AND DUP2 JUMP JUMPDEST PUSH3 0xD6 PUSH3 0x10A CALLDATASIZE PUSH1 0x4 PUSH3 0x718 JUMP JUMPDEST PUSH3 0x226 JUMP JUMPDEST PUSH3 0x127 PUSH3 0x121 CALLDATASIZE PUSH1 0x4 PUSH3 0x653 JUMP JUMPDEST PUSH3 0x254 JUMP JUMPDEST STOP JUMPDEST PUSH3 0x133 PUSH3 0x3B1 JUMP JUMPDEST PUSH1 0x40 MLOAD PUSH3 0xC3 SWAP2 SWAP1 PUSH3 0x7CE JUMP JUMPDEST PUSH3 0x14C PUSH3 0x52C JUMP JUMPDEST PUSH1 0x40 MLOAD PUSH3 0xC3 SWAP2 SWAP1 PUSH3 0x77F JUMP JUMPDEST PUSH3 0xD6 PUSH3 0x590 JUMP JUMPDEST PUSH1 0x3 DUP2 DUP2 SLOAD DUP2 LT PUSH3 0x176 JUMPI PUSH1 0x0 DUP1 REVERT JUMPDEST PUSH1 0x0 SWAP2 DUP3 MSTORE PUSH1 0x20 SWAP1 SWAP2 KECCAK256 ADD SLOAD PUSH1 0x1 PUSH1 0x1 PUSH1 0xA0 SHL SUB AND SWAP1 POP DUP2 JUMP JUMPDEST PUSH1 0x1 DUP1 SLOAD PUSH3 0x19F SWAP1 PUSH3 0x93B JUMP JUMPDEST DUP1 PUSH1 0x1F ADD PUSH1 0x20 DUP1 SWAP2 DIV MUL PUSH1 0x20 ADD PUSH1 0x40 MLOAD SWAP1 DUP2 ADD PUSH1 0x40 MSTORE DUP1 SWAP3 SWAP2 SWAP1 DUP2 DUP2 MSTORE PUSH1 0x20 ADD DUP3 DUP1 SLOAD PUSH3 0x1CD SWAP1 PUSH3 0x93B JUMP JUMPDEST DUP1 ISZERO PUSH3 0x21E JUMPI DUP1 PUSH1 0x1F LT PUSH3 0x1F2 JUMPI PUSH2 0x100 DUP1 DUP4 SLOAD DIV MUL DUP4 MSTORE SWAP2 PUSH1 0x20 ADD SWAP2 PUSH3 0x21E JUMP JUMPDEST DUP3 ADD SWAP2 SWAP1 PUSH1 0x0 MSTORE PUSH1 0x20 PUSH1 0x0 KECCAK256 SWAP1 JUMPDEST DUP2 SLOAD DUP2 MSTORE SWAP1 PUSH1 0x1 ADD SWAP1 PUSH1 0x20 ADD DUP1 DUP4 GT PUSH3 0x200 JUMPI DUP3 SWAP1 SUB PUSH1 0x1F AND DUP3 ADD SWAP2 JUMPDEST POP POP POP POP POP DUP2 JUMP JUMPDEST PUSH1 0x4 DUP2 DUP2 SLOAD DUP2 LT PUSH3 0x237 JUMPI PUSH1 0x0 DUP1 REVERT JUMPDEST SWAP1 PUSH1 0x0 MSTORE PUSH1 0x20 PUSH1 0x0 KECCAK256 ADD PUSH1 0x0 SWAP2 POP SWAP1 POP DUP1 SLOAD PUSH3 0x19F SWAP1 PUSH3 0x93B JUMP JUMPDEST PUSH1 0x2 SLOAD PUSH1 0x1 PUSH1 0x1 PUSH1 0xA0 SHL SUB AND CALLER EQ PUSH3 0x2C4 JUMPI PUSH1 0x40 MLOAD PUSH3 0x461BCD PUSH1 0xE5 SHL DUP2 MSTORE PUSH1 0x20 PUSH1 0x4 DUP3 ADD MSTORE PUSH1 0x28 PUSH1 0x24 DUP3 ADD MSTORE PUSH32 0x46756E6374696F6E2061636365737369626C65206F6E6C792062792074686520 PUSH1 0x44 DUP3 ADD MSTORE PUSH8 0x6F776E6572202121 PUSH1 0xC0 SHL PUSH1 0x64 DUP3 ADD MSTORE PUSH1 0x84 ADD PUSH1 0x40 MLOAD DUP1 SWAP2 SUB SWAP1 REVERT JUMPDEST PUSH1 0x0 DUP4 PUSH1 0x0 DUP5 PUSH1 0x2 PUSH1 0x0 SWAP1 SLOAD SWAP1 PUSH2 0x100 EXP SWAP1 DIV PUSH1 0x1 PUSH1 0x1 PUSH1 0xA0 SHL SUB AND DUP6 PUSH1 0x40 MLOAD PUSH3 0x2EF SWAP1 PUSH3 0x59F JUMP JUMPDEST PUSH3 0x2FF SWAP6 SWAP5 SWAP4 SWAP3 SWAP2 SWAP1 PUSH3 0x84F JUMP JUMPDEST PUSH1 0x40 MLOAD DUP1 SWAP2 SUB SWAP1 PUSH1 0x0 CREATE DUP1 ISZERO DUP1 ISZERO PUSH3 0x31C JUMPI RETURNDATASIZE PUSH1 0x0 DUP1 RETURNDATACOPY RETURNDATASIZE PUSH1 0x0 REVERT JUMPDEST POP PUSH1 0x3 DUP1 SLOAD PUSH1 0x1 DUP1 DUP3 ADD SWAP1 SWAP3 SSTORE PUSH32 0xC2575A0E9E593C00F959F8C92F12DB2869C3395A3B0502D05E2516446F71F85B ADD DUP1 SLOAD PUSH1 0x1 PUSH1 0x1 PUSH1 0xA0 SHL SUB NOT AND PUSH1 0x1 PUSH1 0x1 PUSH1 0xA0 SHL SUB DUP5 AND OR SWAP1 SSTORE PUSH1 0x4 DUP1 SLOAD SWAP2 DUP3 ADD DUP2 SSTORE PUSH1 0x0 MSTORE DUP6 MLOAD SWAP2 SWAP3 POP PUSH3 0x3AA SWAP2 PUSH32 0x8A35ACFBC15FF81A39AE7D344FD709F28E8600B4AA8C65C6B64BFE7FE36BD19B SWAP1 SWAP2 ADD SWAP1 PUSH1 0x20 DUP8 ADD SWAP1 PUSH3 0x5AD JUMP JUMPDEST POP POP POP POP POP JUMP JUMPDEST PUSH1 0x4 SLOAD PUSH1 0x60 SWAP1 PUSH1 0x0 SWAP1 PUSH8 0xFFFFFFFFFFFFFFFF DUP2 GT ISZERO PUSH3 0x3E1 JUMPI PUSH4 0x4E487B71 PUSH1 0xE0 SHL PUSH1 0x0 MSTORE PUSH1 0x41 PUSH1 0x4 MSTORE PUSH1 0x24 PUSH1 0x0 REVERT JUMPDEST PUSH1 0x40 MLOAD SWAP1 DUP1 DUP3 MSTORE DUP1 PUSH1 0x20 MUL PUSH1 0x20 ADD DUP3 ADD PUSH1 0x40 MSTORE DUP1 ISZERO PUSH3 0x416 JUMPI DUP2 PUSH1 0x20 ADD JUMPDEST PUSH1 0x60 DUP2 MSTORE PUSH1 0x20 ADD SWAP1 PUSH1 0x1 SWAP1 SUB SWAP1 DUP2 PUSH3 0x400 JUMPI SWAP1 POP JUMPDEST POP SWAP1 POP PUSH1 0x0 JUMPDEST PUSH1 0x4 SLOAD DUP2 LT ISZERO PUSH3 0x526 JUMPI PUSH1 0x4 DUP2 DUP2 SLOAD DUP2 LT PUSH3 0x449 JUMPI PUSH4 0x4E487B71 PUSH1 0xE0 SHL PUSH1 0x0 MSTORE PUSH1 0x32 PUSH1 0x4 MSTORE PUSH1 0x24 PUSH1 0x0 REVERT JUMPDEST SWAP1 PUSH1 0x0 MSTORE PUSH1 0x20 PUSH1 0x0 KECCAK256 ADD DUP1 SLOAD PUSH3 0x460 SWAP1 PUSH3 0x93B JUMP JUMPDEST DUP1 PUSH1 0x1F ADD PUSH1 0x20 DUP1 SWAP2 DIV MUL PUSH1 0x20 ADD PUSH1 0x40 MLOAD SWAP1 DUP2 ADD PUSH1 0x40 MSTORE DUP1 SWAP3 SWAP2 SWAP1 DUP2 DUP2 MSTORE PUSH1 0x20 ADD DUP3 DUP1 SLOAD PUSH3 0x48E SWAP1 PUSH3 0x93B JUMP JUMPDEST DUP1 ISZERO PUSH3 0x4DF JUMPI DUP1 PUSH1 0x1F LT PUSH3 0x4B3 JUMPI PUSH2 0x100 DUP1 DUP4 SLOAD DIV MUL DUP4 MSTORE SWAP2 PUSH1 0x20 ADD SWAP2 PUSH3 0x4DF JUMP JUMPDEST DUP3 ADD SWAP2 SWAP1 PUSH1 0x0 MSTORE PUSH1 0x20 PUSH1 0x0 KECCAK256 SWAP1 JUMPDEST DUP2 SLOAD DUP2 MSTORE SWAP1 PUSH1 0x1 ADD SWAP1 PUSH1 0x20 ADD DUP1 DUP4 GT PUSH3 0x4C1 JUMPI DUP3 SWAP1 SUB PUSH1 0x1F AND DUP3 ADD SWAP2 JUMPDEST POP POP POP POP POP DUP3 DUP3 DUP2 MLOAD DUP2 LT PUSH3 0x505 JUMPI PUSH4 0x4E487B71 PUSH1 0xE0 SHL PUSH1 0x0 MSTORE PUSH1 0x32 PUSH1 0x4 MSTORE PUSH1 0x24 PUSH1 0x0 REVERT JUMPDEST PUSH1 0x20 MUL PUSH1 0x20 ADD ADD DUP2 SWAP1 MSTORE POP DUP1 DUP1 PUSH3 0x51D SWAP1 PUSH3 0x972 JUMP JUMPDEST SWAP2 POP POP PUSH3 0x41C JUMP JUMPDEST POP SWAP2 SWAP1 POP JUMP JUMPDEST PUSH1 0x60 PUSH1 0x3 DUP1 SLOAD DUP1 PUSH1 0x20 MUL PUSH1 0x20 ADD PUSH1 0x40 MLOAD SWAP1 DUP2 ADD PUSH1 0x40 MSTORE DUP1 SWAP3 SWAP2 SWAP1 DUP2 DUP2 MSTORE PUSH1 0x20 ADD DUP3 DUP1 SLOAD DUP1 ISZERO PUSH3 0x586 JUMPI PUSH1 0x20 MUL DUP3 ADD SWAP2 SWAP1 PUSH1 0x0 MSTORE PUSH1 0x20 PUSH1 0x0 KECCAK256 SWAP1 JUMPDEST DUP2 SLOAD PUSH1 0x1 PUSH1 0x1 PUSH1 0xA0 SHL SUB AND DUP2 MSTORE PUSH1 0x1 SWAP1 SWAP2 ADD SWAP1 PUSH1 0x20 ADD DUP1 DUP4 GT PUSH3 0x567 JUMPI JUMPDEST POP POP POP POP POP SWAP1 POP SWAP1 JUMP JUMPDEST PUSH1 0x0 DUP1 SLOAD PUSH3 0x19F SWAP1 PUSH3 0x93B JUMP JUMPDEST PUSH2 0x1280 DUP1 PUSH3 0x9B1 DUP4 CODECOPY ADD SWAP1 JUMP JUMPDEST DUP3 DUP1 SLOAD PUSH3 0x5BB SWAP1 PUSH3 0x93B JUMP JUMPDEST SWAP1 PUSH1 0x0 MSTORE PUSH1 0x20 PUSH1 0x0 KECCAK256 SWAP1 PUSH1 0x1F ADD PUSH1 0x20 SWAP1 DIV DUP2 ADD SWAP3 DUP3 PUSH3 0x5DF JUMPI PUSH1 0x0 DUP6 SSTORE PUSH3 0x62A JUMP JUMPDEST DUP3 PUSH1 0x1F LT PUSH3 0x5FA JUMPI DUP1 MLOAD PUSH1 0xFF NOT AND DUP4 DUP1 ADD OR DUP6 SSTORE PUSH3 0x62A JUMP JUMPDEST DUP3 DUP1 ADD PUSH1 0x1 ADD DUP6 SSTORE DUP3 ISZERO PUSH3 0x62A JUMPI SWAP2 DUP3 ADD JUMPDEST DUP3 DUP2 GT ISZERO PUSH3 0x62A JUMPI DUP3 MLOAD DUP3 SSTORE SWAP2 PUSH1 0x20 ADD SWAP2 SWAP1 PUSH1 0x1 ADD SWAP1 PUSH3 0x60D JUMP JUMPDEST POP PUSH3 0x638 SWAP3 SWAP2 POP PUSH3 0x63C JUMP JUMPDEST POP SWAP1 JUMP JUMPDEST JUMPDEST DUP1 DUP3 GT ISZERO PUSH3 0x638 JUMPI PUSH1 0x0 DUP2 SSTORE PUSH1 0x1 ADD PUSH3 0x63D JUMP JUMPDEST PUSH1 0x0 DUP1 PUSH1 0x0 PUSH1 0x60 DUP5 DUP7 SUB SLT ISZERO PUSH3 0x668 JUMPI DUP3 DUP4 REVERT JUMPDEST DUP4 CALLDATALOAD PUSH8 0xFFFFFFFFFFFFFFFF DUP1 DUP3 GT ISZERO PUSH3 0x680 JUMPI DUP5 DUP6 REVERT JUMPDEST DUP2 DUP7 ADD SWAP2 POP DUP7 PUSH1 0x1F DUP4 ADD SLT PUSH3 0x694 JUMPI DUP5 DUP6 REVERT JUMPDEST DUP2 CALLDATALOAD DUP2 DUP2 GT ISZERO PUSH3 0x6A9 JUMPI PUSH3 0x6A9 PUSH3 0x99A JUMP JUMPDEST PUSH1 0x40 MLOAD PUSH1 0x1F DUP3 ADD PUSH1 0x1F NOT SWAP1 DUP2 AND PUSH1 0x3F ADD AND DUP2 ADD SWAP1 DUP4 DUP3 GT DUP2 DUP4 LT OR ISZERO PUSH3 0x6D4 JUMPI PUSH3 0x6D4 PUSH3 0x99A JUMP JUMPDEST DUP2 PUSH1 0x40 MSTORE DUP3 DUP2 MSTORE DUP10 PUSH1 0x20 DUP5 DUP8 ADD ADD GT ISZERO PUSH3 0x6ED JUMPI DUP8 DUP9 REVERT JUMPDEST DUP3 PUSH1 0x20 DUP7 ADD PUSH1 0x20 DUP4 ADD CALLDATACOPY SWAP2 DUP3 ADD PUSH1 0x20 SWAP1 DUP2 ADD SWAP8 SWAP1 SWAP8 MSTORE POP SWAP8 SWAP5 DUP7 ADD CALLDATALOAD SWAP7 POP POP POP PUSH1 0x40 SWAP1 SWAP4 ADD CALLDATALOAD SWAP3 POP POP JUMP JUMPDEST PUSH1 0x0 PUSH1 0x20 DUP3 DUP5 SUB SLT ISZERO PUSH3 0x72A JUMPI DUP1 DUP2 REVERT JUMPDEST POP CALLDATALOAD SWAP2 SWAP1 POP JUMP JUMPDEST PUSH1 0x0 DUP2 MLOAD DUP1 DUP5 MSTORE DUP2 JUMPDEST DUP2 DUP2 LT ISZERO PUSH3 0x758 JUMPI PUSH1 0x20 DUP2 DUP6 ADD DUP2 ADD MLOAD DUP7 DUP4 ADD DUP3 ADD MSTORE ADD PUSH3 0x73A JUMP JUMPDEST DUP2 DUP2 GT ISZERO PUSH3 0x76A JUMPI DUP3 PUSH1 0x20 DUP4 DUP8 ADD ADD MSTORE JUMPDEST POP PUSH1 0x1F ADD PUSH1 0x1F NOT AND SWAP3 SWAP1 SWAP3 ADD PUSH1 0x20 ADD SWAP3 SWAP2 POP POP JUMP JUMPDEST PUSH1 0x20 DUP1 DUP3 MSTORE DUP3 MLOAD DUP3 DUP3 ADD DUP2 SWAP1 MSTORE PUSH1 0x0 SWAP2 SWAP1 DUP5 DUP3 ADD SWAP1 PUSH1 0x40 DUP6 ADD SWAP1 DUP5 JUMPDEST DUP2 DUP2 LT ISZERO PUSH3 0x7C2 JUMPI DUP4 MLOAD PUSH1 0x1 PUSH1 0x1 PUSH1 0xA0 SHL SUB AND DUP4 MSTORE SWAP3 DUP5 ADD SWAP3 SWAP2 DUP5 ADD SWAP2 PUSH1 0x1 ADD PUSH3 0x79B JUMP JUMPDEST POP SWAP1 SWAP7 SWAP6 POP POP POP POP POP POP JUMP JUMPDEST PUSH1 0x0 PUSH1 0x20 DUP1 DUP4 ADD DUP2 DUP5 MSTORE DUP1 DUP6 MLOAD DUP1 DUP4 MSTORE PUSH1 0x40 DUP7 ADD SWAP2 POP PUSH1 0x40 DUP2 PUSH1 0x5 SHL DUP8 ADD ADD SWAP3 POP DUP4 DUP8 ADD DUP6 JUMPDEST DUP3 DUP2 LT ISZERO PUSH3 0x826 JUMPI PUSH1 0x3F NOT DUP9 DUP7 SUB ADD DUP5 MSTORE PUSH3 0x813 DUP6 DUP4 MLOAD PUSH3 0x731 JUMP JUMPDEST SWAP5 POP SWAP3 DUP6 ADD SWAP3 SWAP1 DUP6 ADD SWAP1 PUSH1 0x1 ADD PUSH3 0x7F4 JUMP JUMPDEST POP SWAP3 SWAP8 SWAP7 POP POP POP POP POP POP POP JUMP JUMPDEST PUSH1 0x20 DUP2 MSTORE PUSH1 0x0 PUSH3 0x848 PUSH1 0x20 DUP4 ADD DUP5 PUSH3 0x731 JUMP JUMPDEST SWAP4 SWAP3 POP POP POP JUMP JUMPDEST PUSH1 0xA0 DUP2 MSTORE PUSH1 0x0 PUSH3 0x864 PUSH1 0xA0 DUP4 ADD DUP9 PUSH3 0x731 JUMP JUMPDEST PUSH1 0x20 DUP4 DUP3 SUB DUP2 DUP6 ADD MSTORE DUP3 DUP9 SLOAD DUP5 PUSH1 0x1 DUP3 DUP2 SHR SWAP2 POP DUP1 DUP4 AND DUP1 PUSH3 0x888 JUMPI PUSH1 0x7F DUP4 AND SWAP3 POP JUMPDEST DUP6 DUP4 LT DUP2 EQ ISZERO PUSH3 0x8A7 JUMPI PUSH4 0x4E487B71 PUSH1 0xE0 SHL DUP9 MSTORE PUSH1 0x22 PUSH1 0x4 MSTORE PUSH1 0x24 DUP9 REVERT JUMPDEST DUP3 DUP8 MSTORE PUSH1 0x20 DUP8 ADD SWAP7 POP DUP1 DUP1 ISZERO PUSH3 0x8C7 JUMPI PUSH1 0x1 DUP2 EQ PUSH3 0x8D9 JUMPI PUSH3 0x905 JUMP JUMPDEST PUSH1 0xFF NOT DUP6 AND DUP9 MSTORE DUP7 DUP9 ADD SWAP6 POP PUSH3 0x905 JUMP JUMPDEST PUSH1 0x0 DUP15 DUP2 MSTORE PUSH1 0x20 SWAP1 KECCAK256 DUP10 JUMPDEST DUP6 DUP2 LT ISZERO PUSH3 0x8FF JUMPI DUP2 SLOAD DUP11 DUP3 ADD MSTORE SWAP1 DUP5 ADD SWAP1 DUP9 ADD PUSH3 0x8E4 JUMP JUMPDEST DUP10 ADD SWAP7 POP POP JUMPDEST POP POP POP POP POP PUSH1 0x40 DUP6 ADD DUP9 SWAP1 MSTORE PUSH1 0x1 PUSH1 0x1 PUSH1 0xA0 SHL SUB DUP8 AND PUSH1 0x60 DUP7 ADD MSTORE SWAP3 POP PUSH3 0x92B SWAP2 POP POP JUMP JUMPDEST DUP3 PUSH1 0x80 DUP4 ADD MSTORE SWAP7 SWAP6 POP POP POP POP POP POP JUMP JUMPDEST PUSH1 0x1 DUP2 DUP2 SHR SWAP1 DUP3 AND DUP1 PUSH3 0x950 JUMPI PUSH1 0x7F DUP3 AND SWAP2 POP JUMPDEST PUSH1 0x20 DUP3 LT DUP2 EQ ISZERO PUSH3 0x526 JUMPI PUSH4 0x4E487B71 PUSH1 0xE0 SHL PUSH1 0x0 MSTORE PUSH1 0x22 PUSH1 0x4 MSTORE PUSH1 0x24 PUSH1 0x0 REVERT JUMPDEST PUSH1 0x0 PUSH1 0x0 NOT DUP3 EQ ISZERO PUSH3 0x993 JUMPI PUSH4 0x4E487B71 PUSH1 0xE0 SHL DUP2 MSTORE PUSH1 0x11 PUSH1 0x4 MSTORE PUSH1 0x24 DUP2 REVERT JUMPDEST POP PUSH1 0x1 ADD SWAP1 JUMP JUMPDEST PUSH4 0x4E487B71 PUSH1 0xE0 SHL PUSH1 0x0 MSTORE PUSH1 0x41 PUSH1 0x4 MSTORE PUSH1 0x24 PUSH1 0x0 REVERT INVALID PUSH1 0x80 PUSH1 0x40 MSTORE CALLVALUE DUP1 ISZERO PUSH3 0x11 JUMPI PUSH1 0x0 DUP1 REVERT JUMPDEST POP PUSH1 0x40 MLOAD PUSH3 0x1280 CODESIZE SUB DUP1 PUSH3 0x1280 DUP4 CODECOPY DUP2 ADD PUSH1 0x40 DUP2 SWAP1 MSTORE PUSH3 0x34 SWAP2 PUSH3 0x20D JUMP JUMPDEST DUP5 MLOAD DUP6 SWAP1 DUP6 SWAP1 PUSH3 0x4D SWAP1 PUSH1 0x0 SWAP1 PUSH1 0x20 DUP6 ADD SWAP1 PUSH3 0xB4 JUMP JUMPDEST POP DUP1 MLOAD PUSH3 0x63 SWAP1 PUSH1 0x1 SWAP1 PUSH1 0x20 DUP5 ADD SWAP1 PUSH3 0xB4 JUMP JUMPDEST POP POP POP PUSH1 0x8 DUP4 SWAP1 SSTORE PUSH1 0x9 DUP4 SWAP1 SSTORE PUSH1 0x6 DUP1 SLOAD PUSH1 0x1 PUSH1 0x1 PUSH1 0xA0 SHL SUB NOT AND PUSH1 0x1 PUSH1 0x1 PUSH1 0xA0 SHL SUB DUP5 AND OR SWAP1 SSTORE PUSH3 0x9B DUP2 PUSH4 0x1E13380 PUSH3 0x2AA JUMP JUMPDEST PUSH1 0x7 SSTORE POP POP PUSH1 0xA DUP1 SLOAD PUSH1 0xFF NOT AND SWAP1 SSTORE POP PUSH3 0x329 SWAP2 POP POP JUMP JUMPDEST DUP3 DUP1 SLOAD PUSH3 0xC2 SWAP1 PUSH3 0x2D6 JUMP JUMPDEST SWAP1 PUSH1 0x0 MSTORE PUSH1 0x20 PUSH1 0x0 KECCAK256 SWAP1 PUSH1 0x1F ADD PUSH1 0x20 SWAP1 DIV DUP2 ADD SWAP3 DUP3 PUSH3 0xE6 JUMPI PUSH1 0x0 DUP6 SSTORE PUSH3 0x131 JUMP JUMPDEST DUP3 PUSH1 0x1F LT PUSH3 0x101 JUMPI DUP1 MLOAD PUSH1 0xFF NOT AND DUP4 DUP1 ADD OR DUP6 SSTORE PUSH3 0x131 JUMP JUMPDEST DUP3 DUP1 ADD PUSH1 0x1 ADD DUP6 SSTORE DUP3 ISZERO PUSH3 0x131 JUMPI SWAP2 DUP3 ADD JUMPDEST DUP3 DUP2 GT ISZERO PUSH3 0x131 JUMPI DUP3 MLOAD DUP3 SSTORE SWAP2 PUSH1 0x20 ADD SWAP2 SWAP1 PUSH1 0x1 ADD SWAP1 PUSH3 0x114 JUMP JUMPDEST POP PUSH3 0x13F SWAP3 SWAP2 POP PUSH3 0x143 JUMP JUMPDEST POP SWAP1 JUMP JUMPDEST JUMPDEST DUP1 DUP3 GT ISZERO PUSH3 0x13F JUMPI PUSH1 0x0 DUP2 SSTORE PUSH1 0x1 ADD PUSH3 0x144 JUMP JUMPDEST PUSH1 0x0 DUP3 PUSH1 0x1F DUP4 ADD SLT PUSH3 0x16B JUMPI DUP1 DUP2 REVERT JUMPDEST DUP2 MLOAD PUSH1 0x1 PUSH1 0x1 PUSH1 0x40 SHL SUB DUP1 DUP3 GT ISZERO PUSH3 0x188 JUMPI PUSH3 0x188 PUSH3 0x313 JUMP JUMPDEST PUSH1 0x40 MLOAD PUSH1 0x1F DUP4 ADD PUSH1 0x1F NOT SWAP1 DUP2 AND PUSH1 0x3F ADD AND DUP2 ADD SWAP1 DUP3 DUP3 GT DUP2 DUP4 LT OR ISZERO PUSH3 0x1B3 JUMPI PUSH3 0x1B3 PUSH3 0x313 JUMP JUMPDEST DUP2 PUSH1 0x40 MSTORE DUP4 DUP2 MSTORE PUSH1 0x20 SWAP3 POP DUP7 DUP4 DUP6 DUP9 ADD ADD GT ISZERO PUSH3 0x1CF JUMPI DUP5 DUP6 REVERT JUMPDEST DUP5 SWAP2 POP JUMPDEST DUP4 DUP3 LT ISZERO PUSH3 0x1F2 JUMPI DUP6 DUP3 ADD DUP4 ADD MLOAD DUP2 DUP4 ADD DUP5 ADD MSTORE SWAP1 DUP3 ADD SWAP1 PUSH3 0x1D3 JUMP JUMPDEST DUP4 DUP3 GT ISZERO PUSH3 0x203 JUMPI DUP5 DUP4 DUP6 DUP4 ADD ADD MSTORE JUMPDEST SWAP7 SWAP6 POP POP POP POP POP POP JUMP JUMPDEST PUSH1 0x0 DUP1 PUSH1 0x0 DUP1 PUSH1 0x0 PUSH1 0xA0 DUP7 DUP9 SUB SLT ISZERO PUSH3 0x225 JUMPI DUP1 DUP2 REVERT JUMPDEST DUP6 MLOAD PUSH1 0x1 PUSH1 0x1 PUSH1 0x40 SHL SUB DUP1 DUP3 GT ISZERO PUSH3 0x23C JUMPI DUP3 DUP4 REVERT JUMPDEST PUSH3 0x24A DUP10 DUP4 DUP11 ADD PUSH3 0x15A JUMP JUMPDEST SWAP7 POP PUSH1 0x20 DUP9 ADD MLOAD SWAP2 POP DUP1 DUP3 GT ISZERO PUSH3 0x260 JUMPI DUP3 DUP4 REVERT JUMPDEST POP PUSH3 0x26F DUP9 DUP3 DUP10 ADD PUSH3 0x15A JUMP JUMPDEST PUSH1 0x40 DUP9 ADD MLOAD PUSH1 0x60 DUP10 ADD MLOAD SWAP2 SWAP7 POP SWAP5 POP SWAP1 POP PUSH1 0x1 PUSH1 0x1 PUSH1 0xA0 SHL SUB DUP2 AND DUP2 EQ PUSH3 0x295 JUMPI DUP2 DUP3 REVERT JUMPDEST DUP1 SWAP3 POP POP PUSH1 0x80 DUP7 ADD MLOAD SWAP1 POP SWAP3 SWAP6 POP SWAP3 SWAP6 SWAP1 SWAP4 POP JUMP JUMPDEST PUSH1 0x0 DUP2 PUSH1 0x0 NOT DIV DUP4 GT DUP3 ISZERO ISZERO AND ISZERO PUSH3 0x2D1 JUMPI PUSH4 0x4E487B71 PUSH1 0xE0 SHL DUP2 MSTORE PUSH1 0x11 PUSH1 0x4 MSTORE PUSH1 0x24 DUP2 REVERT JUMPDEST POP MUL SWAP1 JUMP JUMPDEST PUSH1 0x1 DUP2 DUP2 SHR SWAP1 DUP3 AND DUP1 PUSH3 0x2EB JUMPI PUSH1 0x7F DUP3 AND SWAP2 POP JUMPDEST PUSH1 0x20 DUP3 LT DUP2 EQ ISZERO PUSH3 0x30D JUMPI PUSH4 0x4E487B71 PUSH1 0xE0 SHL PUSH1 0x0 MSTORE PUSH1 0x22 PUSH1 0x4 MSTORE PUSH1 0x24 PUSH1 0x0 REVERT JUMPDEST POP SWAP2 SWAP1 POP JUMP JUMPDEST PUSH4 0x4E487B71 PUSH1 0xE0 SHL PUSH1 0x0 MSTORE PUSH1 0x41 PUSH1 0x4 MSTORE PUSH1 0x24 PUSH1 0x0 REVERT JUMPDEST PUSH2 0xF47 DUP1 PUSH3 0x339 PUSH1 0x0 CODECOPY PUSH1 0x0 RETURN INVALID PUSH1 0x80 PUSH1 0x40 MSTORE CALLVALUE DUP1 ISZERO PUSH2 0x10 JUMPI PUSH1 0x0 DUP1 REVERT JUMPDEST POP PUSH1 0x4 CALLDATASIZE LT PUSH2 0x100 JUMPI PUSH1 0x0 CALLDATALOAD PUSH1 0xE0 SHR DUP1 PUSH4 0x6352211E GT PUSH2 0x97 JUMPI DUP1 PUSH4 0x9FF56ACC GT PUSH2 0x66 JUMPI DUP1 PUSH4 0x9FF56ACC EQ PUSH2 0x201 JUMPI DUP1 PUSH4 0xC87B56DD EQ PUSH2 0x222 JUMPI DUP1 PUSH4 0xDA0239A6 EQ PUSH2 0x235 JUMPI DUP1 PUSH4 0xFB37E883 EQ PUSH2 0x23D JUMPI PUSH1 0x0 DUP1 REVERT JUMPDEST DUP1 PUSH4 0x6352211E EQ PUSH2 0x1BE JUMPI DUP1 PUSH4 0x740EA8AB EQ PUSH2 0x1E9 JUMPI DUP1 PUSH4 0x8D75FE05 EQ PUSH2 0x1F1 JUMPI DUP1 PUSH4 0x95D89B41 EQ PUSH2 0x1F9 JUMPI PUSH1 0x0 DUP1 REVERT JUMPDEST DUP1 PUSH4 0x19D1997A GT PUSH2 0xD3 JUMPI DUP1 PUSH4 0x19D1997A EQ PUSH2 0x186 JUMPI DUP1 PUSH4 0x40753A76 EQ PUSH2 0x18E JUMPI DUP1 PUSH4 0x42EC38E2 EQ PUSH2 0x1A3 JUMPI DUP1 PUSH4 0x50847A33 EQ PUSH2 0x1B6 JUMPI PUSH1 0x0 DUP1 REVERT JUMPDEST DUP1 PUSH4 0x6FDDE03 EQ PUSH2 0x105 JUMPI DUP1 PUSH4 0xA985767 EQ PUSH2 0x123 JUMPI DUP1 PUSH4 0x12FA6FEB EQ PUSH2 0x15C JUMPI DUP1 PUSH4 0x171EE9F3 EQ PUSH2 0x173 JUMPI JUMPDEST PUSH1 0x0 DUP1 REVERT JUMPDEST PUSH2 0x10D PUSH2 0x250 JUMP JUMPDEST PUSH1 0x40 MLOAD PUSH2 0x11A SWAP2 SWAP1 PUSH2 0xDC7 JUMP JUMPDEST PUSH1 0x40 MLOAD DUP1 SWAP2 SUB SWAP1 RETURN JUMPDEST PUSH2 0x14E PUSH2 0x131 CALLDATASIZE PUSH1 0x4 PUSH2 0xC91 JUMP JUMPDEST PUSH1 0xB PUSH1 0x20 SWAP1 DUP2 MSTORE PUSH1 0x0 SWAP3 DUP4 MSTORE PUSH1 0x40 DUP1 DUP5 KECCAK256 SWAP1 SWAP2 MSTORE SWAP1 DUP3 MSTORE SWAP1 KECCAK256 SLOAD DUP2 JUMP JUMPDEST PUSH1 0x40 MLOAD SWAP1 DUP2 MSTORE PUSH1 0x20 ADD PUSH2 0x11A JUMP JUMPDEST PUSH1 0xA SLOAD PUSH1 0xFF AND JUMPDEST PUSH1 0x40 MLOAD SWAP1 ISZERO ISZERO DUP2 MSTORE PUSH1 0x20 ADD PUSH2 0x11A JUMP JUMPDEST PUSH2 0x163 PUSH2 0x181 CALLDATASIZE PUSH1 0x4 PUSH2 0xC70 JUMP JUMPDEST PUSH2 0x2E2 JUMP JUMPDEST PUSH1 0x8 SLOAD PUSH2 0x14E JUMP JUMPDEST PUSH2 0x1A1 PUSH2 0x19C CALLDATASIZE PUSH1 0x4 PUSH2 0xD64 JUMP JUMPDEST PUSH2 0x33F JUMP JUMPDEST STOP JUMPDEST PUSH2 0x14E PUSH2 0x1B1 CALLDATASIZE PUSH1 0x4 PUSH2 0xC70 JUMP JUMPDEST PUSH2 0x38C JUMP JUMPDEST PUSH2 0x163 PUSH2 0x3D0 JUMP JUMPDEST PUSH2 0x1D1 PUSH2 0x1CC CALLDATASIZE PUSH1 0x4 PUSH2 0xD64 JUMP JUMPDEST PUSH2 0x464 JUMP JUMPDEST PUSH1 0x40 MLOAD PUSH1 0x1 PUSH1 0x1 PUSH1 0xA0 SHL SUB SWAP1 SWAP2 AND DUP2 MSTORE PUSH1 0x20 ADD PUSH2 0x11A JUMP JUMPDEST PUSH2 0x1A1 PUSH2 0x4E6 JUMP JUMPDEST PUSH2 0x14E PUSH2 0x59B JUMP JUMPDEST PUSH2 0x10D PUSH2 0x5AB JUMP JUMPDEST PUSH2 0x214 PUSH2 0x20F CALLDATASIZE PUSH1 0x4 PUSH2 0xC70 JUMP JUMPDEST PUSH2 0x5BA JUMP JUMPDEST PUSH1 0x40 MLOAD PUSH2 0x11A SWAP3 SWAP2 SWAP1 PUSH2 0xDDA JUMP JUMPDEST PUSH2 0x10D PUSH2 0x230 CALLDATASIZE PUSH1 0x4 PUSH2 0xD64 JUMP JUMPDEST PUSH2 0x6D5 JUMP JUMPDEST PUSH1 0x9 SLOAD PUSH2 0x14E JUMP JUMPDEST PUSH2 0x14E PUSH2 0x24B CALLDATASIZE PUSH1 0x4 PUSH2 0xCBA JUMP JUMPDEST PUSH2 0x7DA JUMP JUMPDEST PUSH1 0x60 PUSH1 0x0 DUP1 SLOAD PUSH2 0x25F SWAP1 PUSH2 0xEAA JUMP JUMPDEST DUP1 PUSH1 0x1F ADD PUSH1 0x20 DUP1 SWAP2 DIV MUL PUSH1 0x20 ADD PUSH1 0x40 MLOAD SWAP1 DUP2 ADD PUSH1 0x40 MSTORE DUP1 SWAP3 SWAP2 SWAP1 DUP2 DUP2 MSTORE PUSH1 0x20 ADD DUP3 DUP1 SLOAD PUSH2 0x28B SWAP1 PUSH2 0xEAA JUMP JUMPDEST DUP1 ISZERO PUSH2 0x2D8 JUMPI DUP1 PUSH1 0x1F LT PUSH2 0x2AD JUMPI PUSH2 0x100 DUP1 DUP4 SLOAD DIV MUL DUP4 MSTORE SWAP2 PUSH1 0x20 ADD SWAP2 PUSH2 0x2D8 JUMP JUMPDEST DUP3 ADD SWAP2 SWAP1 PUSH1 0x0 MSTORE PUSH1 0x20 PUSH1 0x0 KECCAK256 SWAP1 JUMPDEST DUP2 SLOAD DUP2 MSTORE SWAP1 PUSH1 0x1 ADD SWAP1 PUSH1 0x20 ADD DUP1 DUP4 GT PUSH2 0x2BB JUMPI DUP3 SWAP1 SUB PUSH1 0x1F AND DUP3 ADD SWAP2 JUMPDEST POP POP POP POP POP SWAP1 POP SWAP1 JUMP JUMPDEST PUSH1 0x7 SLOAD PUSH1 0x1 PUSH1 0x1 PUSH1 0xA0 SHL SUB DUP3 AND PUSH1 0x0 SWAP1 DUP2 MSTORE PUSH1 0xB PUSH1 0x20 MSTORE PUSH1 0x40 DUP2 KECCAK256 SWAP1 SWAP2 SWAP1 DUP3 PUSH2 0x30A DUP6 PUSH2 0x38C JUMP JUMPDEST DUP2 MSTORE PUSH1 0x20 ADD SWAP1 DUP2 MSTORE PUSH1 0x20 ADD PUSH1 0x0 KECCAK256 SLOAD PUSH2 0x323 SWAP2 SWAP1 PUSH2 0xE7B JUMP JUMPDEST TIMESTAMP LT ISZERO PUSH2 0x332 JUMPI POP PUSH1 0x1 SWAP2 SWAP1 POP JUMP JUMPDEST POP PUSH1 0x0 SWAP2 SWAP1 POP JUMP JUMPDEST SWAP2 SWAP1 POP JUMP JUMPDEST PUSH1 0x6 SLOAD PUSH1 0x1 PUSH1 0x1 PUSH1 0xA0 SHL SUB AND CALLER EQ PUSH2 0x372 JUMPI PUSH1 0x40 MLOAD PUSH3 0x461BCD PUSH1 0xE5 SHL DUP2 MSTORE PUSH1 0x4 ADD PUSH2 0x369 SWAP1 PUSH2 0xDFC JUMP JUMPDEST PUSH1 0x40 MLOAD DUP1 SWAP2 SUB SWAP1 REVERT JUMPDEST DUP1 PUSH1 0x8 PUSH1 0x0 DUP3 DUP3 SLOAD PUSH2 0x384 SWAP2 SWAP1 PUSH2 0xE7B JUMP JUMPDEST SWAP1 SWAP2 SSTORE POP POP POP JUMP JUMPDEST PUSH1 0x0 PUSH1 0x1 PUSH1 0x1 PUSH1 0xA0 SHL SUB DUP3 AND PUSH2 0x3B4 JUMPI PUSH1 0x40 MLOAD PUSH3 0x461BCD PUSH1 0xE5 SHL DUP2 MSTORE PUSH1 0x4 ADD PUSH2 0x369 SWAP1 PUSH2 0xE44 JUMP JUMPDEST POP PUSH1 0x1 PUSH1 0x1 PUSH1 0xA0 SHL SUB AND PUSH1 0x0 SWAP1 DUP2 MSTORE PUSH1 0x3 PUSH1 0x20 MSTORE PUSH1 0x40 SWAP1 KECCAK256 SLOAD SWAP1 JUMP JUMPDEST PUSH1 0x6 SLOAD PUSH1 0x0 SWAP1 PUSH1 0x1 PUSH1 0x1 PUSH1 0xA0 SHL SUB AND CALLER EQ PUSH2 0x3FD JUMPI PUSH1 0x40 MLOAD PUSH3 0x461BCD PUSH1 0xE5 SHL DUP2 MSTORE PUSH1 0x4 ADD PUSH2 0x369 SWAP1 PUSH2 0xDFC JUMP JUMPDEST PUSH1 0xA SLOAD PUSH1 0xFF AND ISZERO PUSH2 0x450 JUMPI PUSH1 0x40 MLOAD PUSH3 0x461BCD PUSH1 0xE5 SHL DUP2 MSTORE PUSH1 0x20 PUSH1 0x4 DUP3 ADD MSTORE PUSH1 0x18 PUSH1 0x24 DUP3 ADD MSTORE PUSH32 0x537570706C792068617320616C726561647920656E6465640000000000000000 PUSH1 0x44 DUP3 ADD MSTORE PUSH1 0x64 ADD PUSH2 0x369 JUMP JUMPDEST POP PUSH1 0xA DUP1 SLOAD PUSH1 0xFF NOT AND PUSH1 0x1 SWAP1 DUP2 OR SWAP1 SWAP2 SSTORE SWAP1 JUMP JUMPDEST PUSH1 0x0 DUP2 PUSH2 0x4AB JUMPI PUSH1 0x40 MLOAD PUSH3 0x461BCD PUSH1 0xE5 SHL DUP2 MSTORE PUSH1 0x20 PUSH1 0x4 DUP3 ADD MSTORE PUSH1 0x15 PUSH1 0x24 DUP3 ADD MSTORE PUSH21 0x496E76616C696420746F6B656E49642076616C7565 PUSH1 0x58 SHL PUSH1 0x44 DUP3 ADD MSTORE PUSH1 0x64 ADD PUSH2 0x369 JUMP JUMPDEST PUSH1 0x0 DUP3 DUP2 MSTORE PUSH1 0x2 PUSH1 0x20 MSTORE PUSH1 0x40 SWAP1 KECCAK256 SLOAD PUSH1 0x1 PUSH1 0x1 PUSH1 0xA0 SHL SUB AND DUP1 PUSH2 0x4E0 JUMPI PUSH1 0x40 MLOAD PUSH3 0x461BCD PUSH1 0xE5 SHL DUP2 MSTORE PUSH1 0x4 ADD PUSH2 0x369 SWAP1 PUSH2 0xE44 JUMP JUMPDEST SWAP3 SWAP2 POP POP JUMP JUMPDEST PUSH1 0x7 SLOAD CALLER PUSH1 0x0 DUP2 DUP2 MSTORE PUSH1 0xB PUSH1 0x20 MSTORE PUSH1 0x40 DUP2 KECCAK256 SWAP2 PUSH2 0x502 SWAP1 PUSH2 0x38C JUMP JUMPDEST DUP2 MSTORE PUSH1 0x20 ADD SWAP1 DUP2 MSTORE PUSH1 0x20 ADD PUSH1 0x0 KECCAK256 SLOAD PUSH2 0x51B SWAP2 SWAP1 PUSH2 0xE7B JUMP JUMPDEST TIMESTAMP GT PUSH2 0x588 JUMPI PUSH1 0x40 MLOAD PUSH3 0x461BCD PUSH1 0xE5 SHL DUP2 MSTORE PUSH1 0x20 PUSH1 0x4 DUP3 ADD MSTORE PUSH1 0x36 PUSH1 0x24 DUP3 ADD MSTORE PUSH32 0x596F75722077617272656E7479206973206E6F74206578706972656420796574 PUSH1 0x44 DUP3 ADD MSTORE PUSH22 0xB0818D85B9B9BDD08189D5C9B881E5BDD5C88139195 PUSH1 0x52 SHL PUSH1 0x64 DUP3 ADD MSTORE PUSH1 0x84 ADD PUSH2 0x369 JUMP JUMPDEST PUSH2 0x599 PUSH2 0x594 CALLER PUSH2 0x38C JUMP JUMPDEST PUSH2 0x92E JUMP JUMPDEST JUMP JUMPDEST PUSH1 0x0 PUSH2 0x5A6 PUSH1 0x5 SLOAD SWAP1 JUMP JUMPDEST SWAP1 POP SWAP1 JUMP JUMPDEST PUSH1 0x60 PUSH1 0x1 DUP1 SLOAD PUSH2 0x25F SWAP1 PUSH2 0xEAA JUMP JUMPDEST PUSH1 0x7 SLOAD PUSH1 0x1 PUSH1 0x1 PUSH1 0xA0 SHL SUB DUP3 AND PUSH1 0x0 SWAP1 DUP2 MSTORE PUSH1 0xB PUSH1 0x20 MSTORE PUSH1 0x40 DUP2 KECCAK256 PUSH1 0x60 SWAP3 SWAP1 DUP3 PUSH2 0x5E3 DUP7 PUSH2 0x38C JUMP JUMPDEST DUP2 MSTORE PUSH1 0x20 ADD SWAP1 DUP2 MSTORE PUSH1 0x20 ADD PUSH1 0x0 KECCAK256 SLOAD PUSH2 0x5FC SWAP2 SWAP1 PUSH2 0xE7B JUMP JUMPDEST TIMESTAMP LT ISZERO PUSH2 0x66C JUMPI PUSH1 0x7 SLOAD PUSH1 0x1 PUSH1 0x1 PUSH1 0xA0 SHL SUB DUP5 AND PUSH1 0x0 SWAP1 DUP2 MSTORE PUSH1 0xB PUSH1 0x20 MSTORE PUSH1 0x40 DUP2 KECCAK256 SWAP1 PUSH2 0x628 DUP7 PUSH2 0x38C JUMP JUMPDEST DUP2 MSTORE PUSH1 0x20 ADD SWAP1 DUP2 MSTORE PUSH1 0x20 ADD PUSH1 0x0 KECCAK256 SLOAD PUSH2 0x641 SWAP2 SWAP1 PUSH2 0xE7B JUMP JUMPDEST PUSH1 0x40 DUP1 MLOAD DUP1 DUP3 ADD SWAP1 SWAP2 MSTORE PUSH1 0xB DUP2 MSTORE PUSH11 0x22BC3834B932B99037B71D PUSH1 0xA9 SHL PUSH1 0x20 DUP3 ADD MSTORE SWAP5 SWAP1 SWAP4 POP SWAP2 POP POP JUMP JUMPDEST PUSH1 0x7 SLOAD PUSH1 0x1 PUSH1 0x1 PUSH1 0xA0 SHL SUB DUP5 AND PUSH1 0x0 SWAP1 DUP2 MSTORE PUSH1 0xB PUSH1 0x20 MSTORE PUSH1 0x40 DUP2 KECCAK256 SWAP1 PUSH2 0x691 DUP7 PUSH2 0x38C JUMP JUMPDEST DUP2 MSTORE PUSH1 0x20 ADD SWAP1 DUP2 MSTORE PUSH1 0x20 ADD PUSH1 0x0 KECCAK256 SLOAD PUSH2 0x6AA SWAP2 SWAP1 PUSH2 0xE7B JUMP JUMPDEST PUSH1 0x40 DUP1 MLOAD DUP1 DUP3 ADD SWAP1 SWAP2 MSTORE PUSH1 0xB DUP2 MSTORE PUSH11 0x22BC3834B932B21037B71D PUSH1 0xA9 SHL PUSH1 0x20 DUP3 ADD MSTORE SWAP5 SWAP1 SWAP4 POP SWAP2 POP POP JUMP JUMPDEST PUSH1 0x0 DUP2 DUP2 MSTORE PUSH1 0x2 PUSH1 0x20 MSTORE PUSH1 0x40 SWAP1 KECCAK256 SLOAD PUSH1 0x60 SWAP1 PUSH1 0x1 PUSH1 0x1 PUSH1 0xA0 SHL SUB AND PUSH2 0x73C JUMPI PUSH1 0x40 MLOAD PUSH3 0x461BCD PUSH1 0xE5 SHL DUP2 MSTORE PUSH1 0x20 PUSH1 0x4 DUP3 ADD MSTORE PUSH1 0x1F PUSH1 0x24 DUP3 ADD MSTORE PUSH32 0x55524920717565727920666F72206E6F6E6578697374656E7420746F6B656E00 PUSH1 0x44 DUP3 ADD MSTORE PUSH1 0x64 ADD PUSH2 0x369 JUMP JUMPDEST PUSH1 0x0 DUP3 DUP2 MSTORE PUSH1 0x4 PUSH1 0x20 MSTORE PUSH1 0x40 SWAP1 KECCAK256 DUP1 SLOAD PUSH2 0x755 SWAP1 PUSH2 0xEAA JUMP JUMPDEST DUP1 PUSH1 0x1F ADD PUSH1 0x20 DUP1 SWAP2 DIV MUL PUSH1 0x20 ADD PUSH1 0x40 MLOAD SWAP1 DUP2 ADD PUSH1 0x40 MSTORE DUP1 SWAP3 SWAP2 SWAP1 DUP2 DUP2 MSTORE PUSH1 0x20 ADD DUP3 DUP1 SLOAD PUSH2 0x781 SWAP1 PUSH2 0xEAA JUMP JUMPDEST DUP1 ISZERO PUSH2 0x7CE JUMPI DUP1 PUSH1 0x1F LT PUSH2 0x7A3 JUMPI PUSH2 0x100 DUP1 DUP4 SLOAD DIV MUL DUP4 MSTORE SWAP2 PUSH1 0x20 ADD SWAP2 PUSH2 0x7CE JUMP JUMPDEST DUP3 ADD SWAP2 SWAP1 PUSH1 0x0 MSTORE PUSH1 0x20 PUSH1 0x0 KECCAK256 SWAP1 JUMPDEST DUP2 SLOAD DUP2 MSTORE SWAP1 PUSH1 0x1 ADD SWAP1 PUSH1 0x20 ADD DUP1 DUP4 GT PUSH2 0x7B1 JUMPI DUP3 SWAP1 SUB PUSH1 0x1F AND DUP3 ADD SWAP2 JUMPDEST POP POP POP POP POP SWAP1 POP SWAP2 SWAP1 POP JUMP JUMPDEST PUSH1 0xA SLOAD PUSH1 0x0 SWAP1 PUSH1 0xFF AND ISZERO PUSH2 0x823 JUMPI PUSH1 0x40 MLOAD PUSH3 0x461BCD PUSH1 0xE5 SHL DUP2 MSTORE PUSH1 0x20 PUSH1 0x4 DUP3 ADD MSTORE PUSH1 0x10 PUSH1 0x24 DUP3 ADD MSTORE PUSH16 0x4E6F206C6F6E67657220657869737473 PUSH1 0x80 SHL PUSH1 0x44 DUP3 ADD MSTORE PUSH1 0x64 ADD PUSH2 0x369 JUMP JUMPDEST PUSH1 0x8 SLOAD PUSH1 0x5 SLOAD LT PUSH2 0x86C JUMPI PUSH1 0x40 MLOAD PUSH3 0x461BCD PUSH1 0xE5 SHL DUP2 MSTORE PUSH1 0x20 PUSH1 0x4 DUP3 ADD MSTORE PUSH1 0x13 PUSH1 0x24 DUP3 ADD MSTORE PUSH19 0x4E6F20737570706C792063757272656E746C79 PUSH1 0x68 SHL PUSH1 0x44 DUP3 ADD MSTORE PUSH1 0x64 ADD PUSH2 0x369 JUMP JUMPDEST PUSH2 0x87A PUSH1 0x5 DUP1 SLOAD PUSH1 0x1 ADD SWAP1 SSTORE JUMP JUMPDEST PUSH1 0x1 PUSH1 0x9 PUSH1 0x0 DUP3 DUP3 SLOAD PUSH2 0x88D SWAP2 SWAP1 PUSH2 0xE93 JUMP JUMPDEST SWAP1 SWAP2 SSTORE POP PUSH2 0x8A5 SWAP1 POP CALLER PUSH2 0x8A0 PUSH1 0x5 SLOAD SWAP1 JUMP JUMPDEST PUSH2 0x9AA JUMP JUMPDEST PUSH2 0x8B7 PUSH2 0x8B1 PUSH1 0x5 SLOAD SWAP1 JUMP JUMPDEST DUP4 PUSH2 0xB38 JUMP JUMPDEST CALLER PUSH1 0x0 SWAP1 DUP2 MSTORE PUSH1 0xB PUSH1 0x20 MSTORE PUSH1 0x40 DUP2 KECCAK256 TIMESTAMP SWAP2 PUSH2 0x8D1 PUSH1 0x5 SLOAD SWAP1 JUMP JUMPDEST DUP2 MSTORE PUSH1 0x20 DUP2 ADD SWAP2 SWAP1 SWAP2 MSTORE PUSH1 0x40 ADD PUSH1 0x0 SWAP1 DUP2 KECCAK256 SWAP2 SWAP1 SWAP2 SSTORE PUSH1 0xC DUP1 SLOAD PUSH1 0x1 DUP2 ADD DUP3 SSTORE SWAP2 MSTORE PUSH32 0xDF6966C971051C3D54EC59162606531493A51404A002842F56009D7E5CF4A8C7 ADD DUP1 SLOAD PUSH1 0x1 PUSH1 0x1 PUSH1 0xA0 SHL SUB NOT AND CALLER OR SWAP1 SSTORE PUSH2 0x4E0 PUSH1 0x5 SLOAD SWAP1 JUMP JUMPDEST PUSH1 0x0 PUSH2 0x939 DUP3 PUSH2 0x464 JUMP JUMPDEST PUSH1 0x1 PUSH1 0x1 PUSH1 0xA0 SHL SUB DUP2 AND PUSH1 0x0 DUP2 DUP2 MSTORE PUSH1 0x3 PUSH1 0x20 SWAP1 DUP2 MSTORE PUSH1 0x40 DUP1 DUP4 KECCAK256 DUP4 SWAP1 SSTORE DUP7 DUP4 MSTORE PUSH1 0x2 DUP3 MSTORE SWAP2 DUP3 SWAP1 KECCAK256 DUP1 SLOAD PUSH1 0x1 PUSH1 0x1 PUSH1 0xA0 SHL SUB NOT AND SWAP1 SSTORE SWAP1 MLOAD TIMESTAMP DUP2 MSTORE SWAP3 SWAP4 POP DUP5 SWAP3 PUSH32 0x23FF0E75EDF108E3D0392D92E13E8C8A868EF19001BD49F9E94876DC46DFF87F SWAP2 ADD JUMPDEST PUSH1 0x40 MLOAD DUP1 SWAP2 SUB SWAP1 LOG3 POP POP JUMP JUMPDEST PUSH1 0x1 PUSH1 0x1 PUSH1 0xA0 SHL SUB DUP3 AND PUSH2 0x9D0 JUMPI PUSH1 0x40 MLOAD PUSH3 0x461BCD PUSH1 0xE5 SHL DUP2 MSTORE PUSH1 0x4 ADD PUSH2 0x369 SWAP1 PUSH2 0xE44 JUMP JUMPDEST DUP1 PUSH2 0xA1D JUMPI PUSH1 0x40 MLOAD PUSH3 0x461BCD PUSH1 0xE5 SHL DUP2 MSTORE PUSH1 0x20 PUSH1 0x4 DUP3 ADD MSTORE PUSH1 0x17 PUSH1 0x24 DUP3 ADD MSTORE PUSH32 0x546F6B656E2049442063616E6E6F74206265207A65726F000000000000000000 PUSH1 0x44 DUP3 ADD MSTORE PUSH1 0x64 ADD PUSH2 0x369 JUMP JUMPDEST PUSH1 0x0 DUP2 DUP2 MSTORE PUSH1 0x2 PUSH1 0x20 MSTORE PUSH1 0x40 SWAP1 KECCAK256 SLOAD PUSH1 0x1 PUSH1 0x1 PUSH1 0xA0 SHL SUB AND ISZERO PUSH2 0xA79 JUMPI PUSH1 0x40 MLOAD PUSH3 0x461BCD PUSH1 0xE5 SHL DUP2 MSTORE PUSH1 0x20 PUSH1 0x4 DUP3 ADD MSTORE PUSH1 0x14 PUSH1 0x24 DUP3 ADD MSTORE PUSH20 0x151BDAD95B88185B1C9958591E481B5A5B9D1959 PUSH1 0x62 SHL PUSH1 0x44 DUP3 ADD MSTORE PUSH1 0x64 ADD PUSH2 0x369 JUMP JUMPDEST PUSH2 0xA82 DUP3 PUSH2 0x38C JUMP JUMPDEST ISZERO PUSH2 0xACF JUMPI PUSH1 0x40 MLOAD PUSH3 0x461BCD PUSH1 0xE5 SHL DUP2 MSTORE PUSH1 0x20 PUSH1 0x4 DUP3 ADD MSTORE PUSH1 0x19 PUSH1 0x24 DUP3 ADD MSTORE PUSH32 0x4F776E657220616C726561647920686173206120746F6B656E00000000000000 PUSH1 0x44 DUP3 ADD MSTORE PUSH1 0x64 ADD PUSH2 0x369 JUMP JUMPDEST PUSH1 0x1 PUSH1 0x1 PUSH1 0xA0 SHL SUB DUP3 AND PUSH1 0x0 DUP2 DUP2 MSTORE PUSH1 0x3 PUSH1 0x20 SWAP1 DUP2 MSTORE PUSH1 0x40 DUP1 DUP4 KECCAK256 DUP6 SWAP1 SSTORE DUP5 DUP4 MSTORE PUSH1 0x2 DUP3 MSTORE SWAP2 DUP3 SWAP1 KECCAK256 DUP1 SLOAD PUSH1 0x1 PUSH1 0x1 PUSH1 0xA0 SHL SUB NOT AND DUP5 OR SWAP1 SSTORE SWAP1 MLOAD TIMESTAMP DUP2 MSTORE DUP4 SWAP3 SWAP2 PUSH32 0x25B428DFDE728CCFADDAD7E29E4AC23C24ED7FD1A6E3E3F91894A9A073F5DFFF SWAP2 ADD PUSH2 0x99E JUMP JUMPDEST PUSH1 0x0 DUP3 DUP2 MSTORE PUSH1 0x2 PUSH1 0x20 MSTORE PUSH1 0x40 SWAP1 KECCAK256 SLOAD PUSH1 0x1 PUSH1 0x1 PUSH1 0xA0 SHL SUB AND PUSH2 0xB9C JUMPI PUSH1 0x40 MLOAD PUSH3 0x461BCD PUSH1 0xE5 SHL DUP2 MSTORE PUSH1 0x20 PUSH1 0x4 DUP3 ADD MSTORE PUSH1 0x1C PUSH1 0x24 DUP3 ADD MSTORE PUSH32 0x55524920736574206F66206E6F6E6578697374656E7420746F6B656E00000000 PUSH1 0x44 DUP3 ADD MSTORE PUSH1 0x64 ADD PUSH2 0x369 JUMP JUMPDEST PUSH1 0x0 DUP3 DUP2 MSTORE PUSH1 0x4 PUSH1 0x20 SWAP1 DUP2 MSTORE PUSH1 0x40 SWAP1 SWAP2 KECCAK256 DUP3 MLOAD PUSH2 0xBBB SWAP3 DUP5 ADD SWAP1 PUSH2 0xBC0 JUMP JUMPDEST POP POP POP JUMP JUMPDEST DUP3 DUP1 SLOAD PUSH2 0xBCC SWAP1 PUSH2 0xEAA JUMP JUMPDEST SWAP1 PUSH1 0x0 MSTORE PUSH1 0x20 PUSH1 0x0 KECCAK256 SWAP1 PUSH1 0x1F ADD PUSH1 0x20 SWAP1 DIV DUP2 ADD SWAP3 DUP3 PUSH2 0xBEE JUMPI PUSH1 0x0 DUP6 SSTORE PUSH2 0xC34 JUMP JUMPDEST DUP3 PUSH1 0x1F LT PUSH2 0xC07 JUMPI DUP1 MLOAD PUSH1 0xFF NOT AND DUP4 DUP1 ADD OR DUP6 SSTORE PUSH2 0xC34 JUMP JUMPDEST DUP3 DUP1 ADD PUSH1 0x1 ADD DUP6 SSTORE DUP3 ISZERO PUSH2 0xC34 JUMPI SWAP2 DUP3 ADD JUMPDEST DUP3 DUP2 GT ISZERO PUSH2 0xC34 JUMPI DUP3 MLOAD DUP3 SSTORE SWAP2 PUSH1 0x20 ADD SWAP2 SWAP1 PUSH1 0x1 ADD SWAP1 PUSH2 0xC19 JUMP JUMPDEST POP PUSH2 0xC40 SWAP3 SWAP2 POP PUSH2 0xC44 JUMP JUMPDEST POP SWAP1 JUMP JUMPDEST JUMPDEST DUP1 DUP3 GT ISZERO PUSH2 0xC40 JUMPI PUSH1 0x0 DUP2 SSTORE PUSH1 0x1 ADD PUSH2 0xC45 JUMP JUMPDEST DUP1 CALLDATALOAD PUSH1 0x1 PUSH1 0x1 PUSH1 0xA0 SHL SUB DUP2 AND DUP2 EQ PUSH2 0x33A JUMPI PUSH1 0x0 DUP1 REVERT JUMPDEST PUSH1 0x0 PUSH1 0x20 DUP3 DUP5 SUB SLT ISZERO PUSH2 0xC81 JUMPI DUP1 DUP2 REVERT JUMPDEST PUSH2 0xC8A DUP3 PUSH2 0xC59 JUMP JUMPDEST SWAP4 SWAP3 POP POP POP JUMP JUMPDEST PUSH1 0x0 DUP1 PUSH1 0x40 DUP4 DUP6 SUB SLT ISZERO PUSH2 0xCA3 JUMPI DUP1 DUP2 REVERT JUMPDEST PUSH2 0xCAC DUP4 PUSH2 0xC59 JUMP JUMPDEST SWAP5 PUSH1 0x20 SWAP4 SWAP1 SWAP4 ADD CALLDATALOAD SWAP4 POP POP POP JUMP JUMPDEST PUSH1 0x0 PUSH1 0x20 DUP3 DUP5 SUB SLT ISZERO PUSH2 0xCCB JUMPI DUP1 DUP2 REVERT JUMPDEST DUP2 CALLDATALOAD PUSH8 0xFFFFFFFFFFFFFFFF DUP1 DUP3 GT ISZERO PUSH2 0xCE2 JUMPI DUP3 DUP4 REVERT JUMPDEST DUP2 DUP5 ADD SWAP2 POP DUP5 PUSH1 0x1F DUP4 ADD SLT PUSH2 0xCF5 JUMPI DUP3 DUP4 REVERT JUMPDEST DUP2 CALLDATALOAD DUP2 DUP2 GT ISZERO PUSH2 0xD07 JUMPI PUSH2 0xD07 PUSH2 0xEFB JUMP JUMPDEST PUSH1 0x40 MLOAD PUSH1 0x1F DUP3 ADD PUSH1 0x1F NOT SWAP1 DUP2 AND PUSH1 0x3F ADD AND DUP2 ADD SWAP1 DUP4 DUP3 GT DUP2 DUP4 LT OR ISZERO PUSH2 0xD2F JUMPI PUSH2 0xD2F PUSH2 0xEFB JUMP JUMPDEST DUP2 PUSH1 0x40 MSTORE DUP3 DUP2 MSTORE DUP8 PUSH1 0x20 DUP5 DUP8 ADD ADD GT ISZERO PUSH2 0xD47 JUMPI DUP6 DUP7 REVERT JUMPDEST DUP3 PUSH1 0x20 DUP7 ADD PUSH1 0x20 DUP4 ADD CALLDATACOPY SWAP2 DUP3 ADD PUSH1 0x20 ADD SWAP5 SWAP1 SWAP5 MSTORE SWAP6 SWAP5 POP POP POP POP POP JUMP JUMPDEST PUSH1 0x0 PUSH1 0x20 DUP3 DUP5 SUB SLT ISZERO PUSH2 0xD75 JUMPI DUP1 DUP2 REVERT JUMPDEST POP CALLDATALOAD SWAP2 SWAP1 POP JUMP JUMPDEST PUSH1 0x0 DUP2 MLOAD DUP1 DUP5 MSTORE DUP2 JUMPDEST DUP2 DUP2 LT ISZERO PUSH2 0xDA1 JUMPI PUSH1 0x20 DUP2 DUP6 ADD DUP2 ADD MLOAD DUP7 DUP4 ADD DUP3 ADD MSTORE ADD PUSH2 0xD85 JUMP JUMPDEST DUP2 DUP2 GT ISZERO PUSH2 0xDB2 JUMPI DUP3 PUSH1 0x20 DUP4 DUP8 ADD ADD MSTORE JUMPDEST POP PUSH1 0x1F ADD PUSH1 0x1F NOT AND SWAP3 SWAP1 SWAP3 ADD PUSH1 0x20 ADD SWAP3 SWAP2 POP POP JUMP JUMPDEST PUSH1 0x20 DUP2 MSTORE PUSH1 0x0 PUSH2 0xC8A PUSH1 0x20 DUP4 ADD DUP5 PUSH2 0xD7C JUMP JUMPDEST PUSH1 0x40 DUP2 MSTORE PUSH1 0x0 PUSH2 0xDED PUSH1 0x40 DUP4 ADD DUP6 PUSH2 0xD7C JUMP JUMPDEST SWAP1 POP DUP3 PUSH1 0x20 DUP4 ADD MSTORE SWAP4 SWAP3 POP POP POP JUMP JUMPDEST PUSH1 0x20 DUP1 DUP3 MSTORE PUSH1 0x28 SWAP1 DUP3 ADD MSTORE PUSH32 0x46756E6374696F6E2061636365737369626C65206F6E6C792062792074686520 PUSH1 0x40 DUP3 ADD MSTORE PUSH8 0x6F776E6572202121 PUSH1 0xC0 SHL PUSH1 0x60 DUP3 ADD MSTORE PUSH1 0x80 ADD SWAP1 JUMP JUMPDEST PUSH1 0x20 DUP1 DUP3 MSTORE PUSH1 0x1D SWAP1 DUP3 ADD MSTORE PUSH32 0x496E76616C6964206F776E6572206174207A65726F2061646472657373000000 PUSH1 0x40 DUP3 ADD MSTORE PUSH1 0x60 ADD SWAP1 JUMP JUMPDEST PUSH1 0x0 DUP3 NOT DUP3 GT ISZERO PUSH2 0xE8E JUMPI PUSH2 0xE8E PUSH2 0xEE5 JUMP JUMPDEST POP ADD SWAP1 JUMP JUMPDEST PUSH1 0x0 DUP3 DUP3 LT ISZERO PUSH2 0xEA5 JUMPI PUSH2 0xEA5 PUSH2 0xEE5 JUMP JUMPDEST POP SUB SWAP1 JUMP JUMPDEST PUSH1 0x1 DUP2 DUP2 SHR SWAP1 DUP3 AND DUP1 PUSH2 0xEBE JUMPI PUSH1 0x7F DUP3 AND SWAP2 POP JUMPDEST PUSH1 0x20 DUP3 LT DUP2 EQ ISZERO PUSH2 0xEDF JUMPI PUSH4 0x4E487B71 PUSH1 0xE0 SHL PUSH1 0x0 MSTORE PUSH1 0x22 PUSH1 0x4 MSTORE PUSH1 0x24 PUSH1 0x0 REVERT JUMPDEST POP SWAP2 SWAP1 POP JUMP JUMPDEST PUSH4 0x4E487B71 PUSH1 0xE0 SHL PUSH1 0x0 MSTORE PUSH1 0x11 PUSH1 0x4 MSTORE PUSH1 0x24 PUSH1 0x0 REVERT JUMPDEST PUSH4 0x4E487B71 PUSH1 0xE0 SHL PUSH1 0x0 MSTORE PUSH1 0x41 PUSH1 0x4 MSTORE PUSH1 0x24 PUSH1 0x0 REVERT INVALID LOG2 PUSH5 0x6970667358 0x22 SLT KECCAK256 0xB2 SELFBALANCE JUMPDEST 0x2D 0xFB 0xAB 0xA5 0xA7 SDIV PUSH2 0x5CB1 0xC2 0xE0 0xB5 EXTCODECOPY JUMPI POP DUP3 BLOCKHASH 0xB7 0xDA 0xD5 0xD2 0xB8 PUSH26 0x7CC1FA8E6CCB64736F6C63430008040033A26469706673582212 KECCAK256 PUSH21 0x6542B11AD673D70DC848CE250DFDC7E5A01BF0FA0F 0xBF ADDRESS 0xA6 EXTCODEHASH ADD 0xFB 0xA9 ORIGIN 0xD2 PUSH26 0x64736F6C63430008040033A26469706673582212208C8C64BC0E CODESIZE COINBASE PUSH31 0xFD9A63846D53F5152A930190AABBC8536B22A9EC9AB804AF64736F6C634300 ADDMOD DIV STOP CALLER LOG2 PUSH5 0x6970667358 0x22 SLT KECCAK256 PUSH2 0xEA01 0xAA 0xAF 0xC8 PUSH13 0xCE107FAFD72953DB1E3CC7E7A1 0xCE 0xB4 0xD9 DUP15 0xFB PUSH32 0xD32459A756CF64736F6C63430008040033000000000000000000000000000000 "
        },
        "methodIdentifiers": {
          "Name()": "8052474d",
          "allCompanies()": "16e60470",
          "allCompanyAddresses()": "c19db326",
          "companies(uint256)": "2813d19d",
          "companyAddresses(uint256)": "99687845",
          "createCompany(string,address)": "f22f2a1a",
          "flipkartAddress()": "7848ed6a"
        }
      }
    }
  }
}